{
  "transactions": [
    {
      "hash": "0x1d36af84e5d1983425f8b082d1f211b0a37f770b3ddcc8cea75286d5441bf271",
      "transactionType": "CALL",
      "contractName": null,
      "contractAddress": "0xde20d3655ba4c69990fda427dcdd5674b8c52595",
      "function": "setTargetAllowed(address,bool)",
      "arguments": [
        "0xD99D1c33F9fC3444f8101754aBC46c52416550D1",
        "true"
      ],
      "transaction": {
        "from": "0xc8306a4a2da13f8e3c30d5096f19d5f01969aa7d",
        "to": "0xde20d3655ba4c69990fda427dcdd5674b8c52595",
        "gas": "0x1117e",
        "value": "0x0",
        "input": "0x3a3d56fa000000000000000000000000d99d1c33f9fc3444f8101754abc46c52416550d10000000000000000000000000000000000000000000000000000000000000001",
        "nonce": "0x2e",
        "chainId": "0x61"
      },
      "additionalContracts": [],
      "isFixedGasLimit": false
    },
    {
      "hash": "0xe69d2d60eecf5c896ced2902d1b81fe6345ad17fc1273d1e4b9d85879c36e1cb",
      "transactionType": "CALL",
      "contractName": null,
      "contractAddress": "0xde20d3655ba4c69990fda427dcdd5674b8c52595",
      "function": "setSelectorAllowed(address,bytes4,bool)",
      "arguments": [
        "0xD99D1c33F9fC3444f8101754aBC46c52416550D1",
        "0x38ed1739",
        "true"
      ],
      "transaction": {
        "from": "0xc8306a4a2da13f8e3c30d5096f19d5f01969aa7d",
        "to": "0xde20d3655ba4c69990fda427dcdd5674b8c52595",
        "gas": "0x1060b",
        "value": "0x0",
        "input": "0x7a5a7c27000000000000000000000000d99d1c33f9fc3444f8101754abc46c52416550d138ed1739000000000000000000000000000000000000000000000000000000000000000000000000000000000000000000000000000000000000000000000001",
        "nonce": "0x2f",
        "chainId": "0x61"
      },
      "additionalContracts": [],
      "isFixedGasLimit": false
    },
    {
      "hash": "0xf85fd736338ae081f4a9a5f0972cb783f6ba883e199ae22a85c3c65ffbaaa0f6",
      "transactionType": "CALL",
      "contractName": null,
      "contractAddress": "0xde20d3655ba4c69990fda427dcdd5674b8c52595",
      "function": "setSelectorAllowed(address,bytes4,bool)",
      "arguments": [
        "0xD99D1c33F9fC3444f8101754aBC46c52416550D1",
        "0x7ff36ab5",
        "true"
      ],
      "transaction": {
        "from": "0xc8306a4a2da13f8e3c30d5096f19d5f01969aa7d",
        "to": "0xde20d3655ba4c69990fda427dcdd5674b8c52595",
        "gas": "0x1060b",
        "value": "0x0",
        "input": "0x7a5a7c27000000000000000000000000d99d1c33f9fc3444f8101754abc46c52416550d17ff36ab5000000000000000000000000000000000000000000000000000000000000000000000000000000000000000000000000000000000000000000000001",
        "nonce": "0x30",
        "chainId": "0x61"
      },
      "additionalContracts": [],
      "isFixedGasLimit": false
    },
    {
      "hash": "0xa68732bb4961b25f324e6ff663ae168af3a4591cd61513b87869fc904956c108",
      "transactionType": "CALL",
      "contractName": null,
      "contractAddress": "0xde20d3655ba4c69990fda427dcdd5674b8c52595",
      "function": "setTokenAllowed(address,bool)",
      "arguments": [
        "0xae13d989daC2f0dEbFf460aC112a837C89BAa7cd",
        "true"
      ],
      "transaction": {
        "from": "0xc8306a4a2da13f8e3c30d5096f19d5f01969aa7d",
        "to": "0xde20d3655ba4c69990fda427dcdd5674b8c52595",
        "gas": "0x1112d",
        "value": "0x0",
        "input": "0x15f69012000000000000000000000000ae13d989dac2f0debff460ac112a837c89baa7cd0000000000000000000000000000000000000000000000000000000000000001",
        "nonce": "0x31",
        "chainId": "0x61"
      },
      "additionalContracts": [],
      "isFixedGasLimit": false
    },
    {
      "hash": "0x6605aaff714aba43db4d5974255d26f1761bfe89917533c438b5c179a63c5d99",
      "transactionType": "CALL",
      "contractName": null,
      "contractAddress": "0xde20d3655ba4c69990fda427dcdd5674b8c52595",
      "function": "setTokenAllowed(address,bool)",
      "arguments": [
        "0x337610d27c682E347C9cD60BD4b3b107C9d34dDd",
        "true"
      ],
      "transaction": {
        "from": "0xc8306a4a2da13f8e3c30d5096f19d5f01969aa7d",
        "to": "0xde20d3655ba4c69990fda427dcdd5674b8c52595",
        "gas": "0x1112d",
        "value": "0x0",
        "input": "0x15f69012000000000000000000000000337610d27c682e347c9cd60bd4b3b107c9d34ddd0000000000000000000000000000000000000000000000000000000000000001",
        "nonce": "0x32",
        "chainId": "0x61"
      },
      "additionalContracts": [],
      "isFixedGasLimit": false
    },
    {
      "hash": "0x5f8a323a37f7550a7e7616c29ba6cc8f2a132a565af0310c5b20c8e2fce21f95",
      "transactionType": "CALL",
      "contractName": null,
      "contractAddress": "0xde20d3655ba4c69990fda427dcdd5674b8c52595",
      "function": "setTargetAllowed(address,bool)",
      "arguments": [
        "0x337610d27c682E347C9cD60BD4b3b107C9d34dDd",
        "true"
      ],
      "transaction": {
        "from": "0xc8306a4a2da13f8e3c30d5096f19d5f01969aa7d",
        "to": "0xde20d3655ba4c69990fda427dcdd5674b8c52595",
        "gas": "0x1117e",
        "value": "0x0",
        "input": "0x3a3d56fa000000000000000000000000337610d27c682e347c9cd60bd4b3b107c9d34ddd0000000000000000000000000000000000000000000000000000000000000001",
        "nonce": "0x33",
        "chainId": "0x61"
      },
      "additionalContracts": [],
      "isFixedGasLimit": false
    },
    {
      "hash": "0x9b722eb836e719662a0f41a092677d74e6af85e43ec1299a811608b08cee507c",
      "transactionType": "CALL",
      "contractName": null,
      "contractAddress": "0xde20d3655ba4c69990fda427dcdd5674b8c52595",
      "function": "setSelectorAllowed(address,bytes4,bool)",
      "arguments": [
        "0x337610d27c682E347C9cD60BD4b3b107C9d34dDd",
        "0x095ea7b3",
        "true"
      ],
      "transaction": {
        "from": "0xc8306a4a2da13f8e3c30d5096f19d5f01969aa7d",
        "to": "0xde20d3655ba4c69990fda427dcdd5674b8c52595",
        "gas": "0x1060b",
        "value": "0x0",
        "input": "0x7a5a7c27000000000000000000000000337610d27c682e347c9cd60bd4b3b107c9d34ddd095ea7b3000000000000000000000000000000000000000000000000000000000000000000000000000000000000000000000000000000000000000000000001",
        "nonce": "0x34",
        "chainId": "0x61"
      },
      "additionalContracts": [],
      "isFixedGasLimit": false
    },
    {
      "hash": "0x27443d4e154eb1a839704b30bc06a00f1f839193681cc99ab6e88640bcd7d8ba",
      "transactionType": "CALL",
      "contractName": null,
      "contractAddress": "0xde20d3655ba4c69990fda427dcdd5674b8c52595",
      "function": "setSpenderAllowed(address,address,bool)",
      "arguments": [
        "0x337610d27c682E347C9cD60BD4b3b107C9d34dDd",
        "0xD99D1c33F9fC3444f8101754aBC46c52416550D1",
        "true"
      ],
      "transaction": {
        "from": "0xc8306a4a2da13f8e3c30d5096f19d5f01969aa7d",
        "to": "0xde20d3655ba4c69990fda427dcdd5674b8c52595",
        "gas": "0x10756",
        "value": "0x0",
        "input": "0x871018a1000000000000000000000000337610d27c682e347c9cd60bd4b3b107c9d34ddd000000000000000000000000d99d1c33f9fc3444f8101754abc46c52416550d10000000000000000000000000000000000000000000000000000000000000001",
        "nonce": "0x35",
        "chainId": "0x61"
      },
      "additionalContracts": [],
      "isFixedGasLimit": false
    },
    {
      "hash": "0x57c6ee6b9ebd5ab7cb663ec81034e63fc8801b981e597a83b9b028e27dd6b75b",
      "transactionType": "CALL",
      "contractName": null,
      "contractAddress": "0xde20d3655ba4c69990fda427dcdd5674b8c52595",
      "function": "setSpenderAllowed(address,address,bool)",
      "arguments": [
        "0xae13d989daC2f0dEbFf460aC112a837C89BAa7cd",
        "0xD99D1c33F9fC3444f8101754aBC46c52416550D1",
        "true"
      ],
      "transaction": {
        "from": "0xc8306a4a2da13f8e3c30d5096f19d5f01969aa7d",
        "to": "0xde20d3655ba4c69990fda427dcdd5674b8c52595",
        "gas": "0x10756",
        "value": "0x0",
        "input": "0x871018a1000000000000000000000000ae13d989dac2f0debff460ac112a837c89baa7cd000000000000000000000000d99d1c33f9fc3444f8101754abc46c52416550d10000000000000000000000000000000000000000000000000000000000000001",
        "nonce": "0x36",
        "chainId": "0x61"
      },
      "additionalContracts": [],
      "isFixedGasLimit": false
    },
    {
      "hash": "0xba98c2fc97bfe67f0e2125d31344b0e7e230cf399c8245d7fae5e44843a96123",
      "transactionType": "CALL",
      "contractName": null,
      "contractAddress": "0xde20d3655ba4c69990fda427dcdd5674b8c52595",
      "function": "setTargetAllowed(address,bool)",
      "arguments": [
        "0xb7526572FFE56AB9D7489838Bf2E18e3323b441A",
        "true"
      ],
      "transaction": {
        "from": "0xc8306a4a2da13f8e3c30d5096f19d5f01969aa7d",
        "to": "0xde20d3655ba4c69990fda427dcdd5674b8c52595",
        "gas": "0x1117e",
        "value": "0x0",
        "input": "0x3a3d56fa000000000000000000000000b7526572ffe56ab9d7489838bf2e18e3323b441a0000000000000000000000000000000000000000000000000000000000000001",
        "nonce": "0x37",
        "chainId": "0x61"
      },
      "additionalContracts": [],
      "isFixedGasLimit": false
    },
    {
      "hash": "0x58a42e588e15726e55b1a0d52b37e0209c46c84188b2b9c5519d9de7a8ea2c19",
      "transactionType": "CALL",
      "contractName": null,
      "contractAddress": "0xde20d3655ba4c69990fda427dcdd5674b8c52595",
      "function": "setSelectorAllowed(address,bytes4,bool)",
      "arguments": [
        "0xb7526572FFE56AB9D7489838Bf2E18e3323b441A",
        "0x2608f818",
        "true"
      ],
      "transaction": {
        "from": "0xc8306a4a2da13f8e3c30d5096f19d5f01969aa7d",
        "to": "0xde20d3655ba4c69990fda427dcdd5674b8c52595",
        "gas": "0x1060b",
        "value": "0x0",
        "input": "0x7a5a7c27000000000000000000000000b7526572ffe56ab9d7489838bf2e18e3323b441a2608f818000000000000000000000000000000000000000000000000000000000000000000000000000000000000000000000000000000000000000000000001",
        "nonce": "0x38",
        "chainId": "0x61"
      },
      "additionalContracts": [],
      "isFixedGasLimit": false
    },
    {
      "hash": "0x8c6e16e116852a8c85d256bffd5b9372e0a91d334d47a47e1baf1b5c400b14a7",
      "transactionType": "CALL",
      "contractName": null,
      "contractAddress": "0xde20d3655ba4c69990fda427dcdd5674b8c52595",
      "function": "setLimit(bytes32,uint256)",
      "arguments": [
        "0xf84921ee8be045d408ab443a0f530284469ab7658c788f4d4933fa971c3c38d3",
        "1200"
      ],
      "transaction": {
        "from": "0xc8306a4a2da13f8e3c30d5096f19d5f01969aa7d",
        "to": "0xde20d3655ba4c69990fda427dcdd5674b8c52595",
        "gas": "0x96a4",
        "value": "0x0",
        "input": "0x22895b9ff84921ee8be045d408ab443a0f530284469ab7658c788f4d4933fa971c3c38d300000000000000000000000000000000000000000000000000000000000004b0",
        "nonce": "0x39",
        "chainId": "0x61"
      },
      "additionalContracts": [],
      "isFixedGasLimit": false
    },
    {
      "hash": "0x92378413d5c7c448014996f59c84c8609b99352c2fdae4aca6a59bd204cc9fe3",
      "transactionType": "CALL",
      "contractName": null,
      "contractAddress": "0xde20d3655ba4c69990fda427dcdd5674b8c52595",
      "function": "setLimit(bytes32,uint256)",
      "arguments": [
        "0xcf7470957e421cece59cd9bfee8db9252c364ada9e351140ab1b999fa13d9055",
        "3"
      ],
      "transaction": {
        "from": "0xc8306a4a2da13f8e3c30d5096f19d5f01969aa7d",
        "to": "0xde20d3655ba4c69990fda427dcdd5674b8c52595",
        "gas": "0x9693",
        "value": "0x0",
        "input": "0x22895b9fcf7470957e421cece59cd9bfee8db9252c364ada9e351140ab1b999fa13d90550000000000000000000000000000000000000000000000000000000000000003",
        "nonce": "0x3a",
        "chainId": "0x61"
      },
      "additionalContracts": [],
      "isFixedGasLimit": false
    }
  ],
  "receipts": [
    {
      "status": "0x1",
      "cumulativeGasUsed": "0x29aa7",
      "logs": [
        {
          "address": "0xde20d3655ba4c69990fda427dcdd5674b8c52595",
          "topics": [
            "0xd5cc69c3fd825b34b369396f105ab7c13b09d888d513418c0e02a42db3133999",
            "0x000000000000000000000000d99d1c33f9fc3444f8101754abc46c52416550d1"
          ],
          "data": "0x0000000000000000000000000000000000000000000000000000000000000001",
          "blockHash": "0xa452fdef1e5a1b6f9977b6924e35e078a899942515800fcdd1d102da3ba59d62",
          "blockNumber": "0x55d34fc",
          "blockTimestamp": "0x698e4104",
          "transactionHash": "0x1d36af84e5d1983425f8b082d1f211b0a37f770b3ddcc8cea75286d5441bf271",
          "transactionIndex": "0x2",
          "logIndex": "0x4",
          "removed": false
        }
      ],
      "logsBloom": "0x00000000000000000002000000000000000040000000000000000000000000000000000000000000000000000000000000080000000000000000000000000000004000000000000000000000820000000000000000000000000000000000000000000000000000000000000000000000000000000000000000000000000000000000000000000000000000000000000000000000000080000000000400000000000000000000000000000000000000000000000000000000000000000000000000000000000000000000000000000000000000000000000000000000000000000000000000000000000000000000000000000000000000000100000000000000",
      "type": "0x0",
      "transactionHash": "0x1d36af84e5d1983425f8b082d1f211b0a37f770b3ddcc8cea75286d5441bf271",
      "transactionIndex": "0x2",
      "blockHash": "0xa452fdef1e5a1b6f9977b6924e35e078a899942515800fcdd1d102da3ba59d62",
      "blockNumber": "0x55d34fc",
      "gasUsed": "0xbb01",
      "effectiveGasPrice": "0x5f5e100",
      "from": "0xc8306a4a2da13f8e3c30d5096f19d5f01969aa7d",
      "to": "0xde20d3655ba4c69990fda427dcdd5674b8c52595",
      "contractAddress": null
    },
    {
      "status": "0x1",
      "cumulativeGasUsed": "0x3585f",
      "logs": [
        {
          "address": "0xde20d3655ba4c69990fda427dcdd5674b8c52595",
          "topics": [
            "0xc8feb62b1b295ccec8d4fcabfae6673ec51dd67cf746942a19f162afa891a9f4",
            "0x000000000000000000000000d99d1c33f9fc3444f8101754abc46c52416550d1",
            "0x38ed173900000000000000000000000000000000000000000000000000000000"
          ],
          "data": "0x0000000000000000000000000000000000000000000000000000000000000001",
          "blockHash": "0xa452fdef1e5a1b6f9977b6924e35e078a899942515800fcdd1d102da3ba59d62",
          "blockNumber": "0x55d34fc",
          "blockTimestamp": "0x698e4104",
          "transactionHash": "0xf85fd736338ae081f4a9a5f0972cb783f6ba883e199ae22a85c3c65ffbaaa0f6",
          "transactionIndex": "0x3",
          "logIndex": "0x5",
          "removed": false
        }
      ],
      "logsBloom": "0x00000000000000000000000000000000000040000000000000000000000000000000000040000000000000000000000000080000000000000000000000000000004000008000000000000000020000000000000000000000000000000000000000000000000000000000000000000000000000000000000000000000000000000000000000000000000000000000000000000000000080000000000400000000000000000000000000000000000000000000002000000000000000000000000000000000000200000000000000000000000020000000000000000000000100000000000000000000000000000000000000000000000000000000000000000000",
      "type": "0x0",
      "transactionHash": "0xf85fd736338ae081f4a9a5f0972cb783f6ba883e199ae22a85c3c65ffbaaa0f6",
      "transactionIndex": "0x3",
      "blockHash": "0xa452fdef1e5a1b6f9977b6924e35e078a899942515800fcdd1d102da3ba59d62",
      "blockNumber": "0x55d34fc",
      "gasUsed": "0xbdb8",
      "effectiveGasPrice": "0x5f5e100",
      "from": "0xc8306a4a2da13f8e3c30d5096f19d5f01969aa7d",
      "to": "0xde20d3655ba4c69990fda427dcdd5674b8c52595",
      "contractAddress": null
    },
    {
      "status": "0x1",
      "cumulativeGasUsed": "0x41617",
      "logs": [
        {
          "address": "0xde20d3655ba4c69990fda427dcdd5674b8c52595",
          "topics": [
            "0xc8feb62b1b295ccec8d4fcabfae6673ec51dd67cf746942a19f162afa891a9f4",
            "0x000000000000000000000000d99d1c33f9fc3444f8101754abc46c52416550d1",
            "0x7ff36ab500000000000000000000000000000000000000000000000000000000"
          ],
          "data": "0x0000000000000000000000000000000000000000000000000000000000000001",
          "blockHash": "0xa452fdef1e5a1b6f9977b6924e35e078a899942515800fcdd1d102da3ba59d62",
          "blockNumber": "0x55d34fc",
          "blockTimestamp": "0x698e4104",
          "transactionHash": "0xa68732bb4961b25f324e6ff663ae168af3a4591cd61513b87869fc904956c108",
          "transactionIndex": "0x4",
          "logIndex": "0x6",
          "removed": false
        }
      ],
      "logsBloom": "0x00000000000800000000000000000000000040000000000000000000000000000000000040000000000000000000000000080000000010000000000000000000004000000000000000000000020000000000000000000000000000000000000000000000400000000000000000000000000000000000000000000000000000000000000000000000000000000000000000000000000080000000000400000000000000000000000000000000000000000000002000000000000000000000000000000000000200000000000000000000000000000000000000000000000000000000000000000000000000000000000000000000000000000000000000000000",
      "type": "0x0",
      "transactionHash": "0xa68732bb4961b25f324e6ff663ae168af3a4591cd61513b87869fc904956c108",
      "transactionIndex": "0x4",
      "blockHash": "0xa452fdef1e5a1b6f9977b6924e35e078a899942515800fcdd1d102da3ba59d62",
      "blockNumber": "0x55d34fc",
      "gasUsed": "0xbdb8",
      "effectiveGasPrice": "0x5f5e100",
      "from": "0xc8306a4a2da13f8e3c30d5096f19d5f01969aa7d",
      "to": "0xde20d3655ba4c69990fda427dcdd5674b8c52595",
      "contractAddress": null
    },
    {
      "status": "0x1",
      "cumulativeGasUsed": "0x4d0e1",
      "logs": [
        {
          "address": "0xde20d3655ba4c69990fda427dcdd5674b8c52595",
          "topics": [
            "0xdcb2804db02b95bdd568fd11a31c5577ffdf36538c0f670e92930d9c1e8518ab",
            "0x000000000000000000000000ae13d989dac2f0debff460ac112a837c89baa7cd"
          ],
          "data": "0x0000000000000000000000000000000000000000000000000000000000000001",
          "blockHash": "0xa452fdef1e5a1b6f9977b6924e35e078a899942515800fcdd1d102da3ba59d62",
          "blockNumber": "0x55d34fc",
          "blockTimestamp": "0x698e4104",
          "transactionHash": "0x6605aaff714aba43db4d5974255d26f1761bfe89917533c438b5c179a63c5d99",
          "transactionIndex": "0x5",
          "logIndex": "0x7",
          "removed": false
        }
      ],
      "logsBloom": "0x00000000000000000000000000000000000000000000002000000000000000000002000000000000010000000000000000000000000000000000000000000000000000000000000000000000020004000000000000000000000000000000000000000000000000000000000000000000000000000000000000000000000000000000000000000000000000000000000000000000000080000000000400000000000000000000000000000000000000000000000000000000000000000000000000000000000000000000000000000000000000000000000000000000010001000000000000000000000000000000000000000000000000000000000000000000",
      "type": "0x0",
      "transactionHash": "0x6605aaff714aba43db4d5974255d26f1761bfe89917533c438b5c179a63c5d99",
      "transactionIndex": "0x5",
      "blockHash": "0xa452fdef1e5a1b6f9977b6924e35e078a899942515800fcdd1d102da3ba59d62",
      "blockNumber": "0x55d34fc",
      "gasUsed": "0xbaca",
      "effectiveGasPrice": "0x5f5e100",
      "from": "0xc8306a4a2da13f8e3c30d5096f19d5f01969aa7d",
      "to": "0xde20d3655ba4c69990fda427dcdd5674b8c52595",
      "contractAddress": null
    },
    {
      "status": "0x1",
      "cumulativeGasUsed": "0x58bab",
      "logs": [
        {
          "address": "0xde20d3655ba4c69990fda427dcdd5674b8c52595",
          "topics": [
            "0xdcb2804db02b95bdd568fd11a31c5577ffdf36538c0f670e92930d9c1e8518ab",
            "0x000000000000000000000000337610d27c682e347c9cd60bd4b3b107c9d34ddd"
          ],
          "data": "0x0000000000000000000000000000000000000000000000000000000000000001",
          "blockHash": "0xa452fdef1e5a1b6f9977b6924e35e078a899942515800fcdd1d102da3ba59d62",
          "blockNumber": "0x55d34fc",
          "blockTimestamp": "0x698e4104",
          "transactionHash": "0xe69d2d60eecf5c896ced2902d1b81fe6345ad17fc1273d1e4b9d85879c36e1cb",
          "transactionIndex": "0x6",
          "logIndex": "0x8",
          "removed": false
        }
      ],
      "logsBloom": "0x00000000000000000000000000000000000000000000000000000000000000000002000000000000010000000000000000000000000000000000000000100000000000000000000000000000020000000000000000000000000000000001000000000000000000000000000000000000000000000000000000000000000000000000000000000000000000000000008000000000000080000000000400000000000000000000000000000000000000000000000000000000000000000000000000000000000000000000000000000000000000000000000000000000010000000000000000000000000000000000000000000000000000000000000000000000",
      "type": "0x0",
      "transactionHash": "0xe69d2d60eecf5c896ced2902d1b81fe6345ad17fc1273d1e4b9d85879c36e1cb",
      "transactionIndex": "0x6",
      "blockHash": "0xa452fdef1e5a1b6f9977b6924e35e078a899942515800fcdd1d102da3ba59d62",
      "blockNumber": "0x55d34fc",
      "gasUsed": "0xbaca",
      "effectiveGasPrice": "0x5f5e100",
      "from": "0xc8306a4a2da13f8e3c30d5096f19d5f01969aa7d",
      "to": "0xde20d3655ba4c69990fda427dcdd5674b8c52595",
      "contractAddress": null
    },
    {
      "status": "0x1",
      "cumulativeGasUsed": "0x646ac",
      "logs": [
        {
          "address": "0xde20d3655ba4c69990fda427dcdd5674b8c52595",
          "topics": [
            "0xd5cc69c3fd825b34b369396f105ab7c13b09d888d513418c0e02a42db3133999",
            "0x000000000000000000000000337610d27c682e347c9cd60bd4b3b107c9d34ddd"
          ],
          "data": "0x0000000000000000000000000000000000000000000000000000000000000001",
          "blockHash": "0xa452fdef1e5a1b6f9977b6924e35e078a899942515800fcdd1d102da3ba59d62",
          "blockNumber": "0x55d34fc",
          "blockTimestamp": "0x698e4104",
          "transactionHash": "0x58a42e588e15726e55b1a0d52b37e0209c46c84188b2b9c5519d9de7a8ea2c19",
          "transactionIndex": "0x7",
          "logIndex": "0x9",
          "removed": false
        }
      ],
      "logsBloom": "0x00000000000000000002000000000000000000000000000000000000000000000000000000000000000000000000000000000000000000000000000000100000000000000000000000000000820000000000000000000000000000000001000000000000000000000000000000000000000000000000000000000000000000000000000000000000000000000000008000000000000080000000000400000000000000000000000000000000000000000000000000000000000000000000000000000000000000000000000000000000000000000000000000000000000000000000000000000000000000000000000000000000000000000100000000000000",
      "type": "0x0",
      "transactionHash": "0x58a42e588e15726e55b1a0d52b37e0209c46c84188b2b9c5519d9de7a8ea2c19",
      "transactionIndex": "0x7",
      "blockHash": "0xa452fdef1e5a1b6f9977b6924e35e078a899942515800fcdd1d102da3ba59d62",
      "blockNumber": "0x55d34fc",
      "gasUsed": "0xbb01",
      "effectiveGasPrice": "0x5f5e100",
      "from": "0xc8306a4a2da13f8e3c30d5096f19d5f01969aa7d",
      "to": "0xde20d3655ba4c69990fda427dcdd5674b8c52595",
      "contractAddress": null
    },
    {
      "status": "0x1",
      "cumulativeGasUsed": "0x1905c",
      "logs": [
        {
          "address": "0xde20d3655ba4c69990fda427dcdd5674b8c52595",
          "topics": [
            "0xc8feb62b1b295ccec8d4fcabfae6673ec51dd67cf746942a19f162afa891a9f4",
            "0x000000000000000000000000337610d27c682e347c9cd60bd4b3b107c9d34ddd",
            "0x095ea7b300000000000000000000000000000000000000000000000000000000"
          ],
          "data": "0x0000000000000000000000000000000000000000000000000000000000000001",
          "blockHash": "0xc05b29f833c4657d42e97c3d3a54ebc1c398d969fee34d56bd2f1dd6aa6eea57",
          "blockNumber": "0x55d34fd",
          "blockTimestamp": "0x698e4104",
          "transactionHash": "0x5f8a323a37f7550a7e7616c29ba6cc8f2a132a565af0310c5b20c8e2fce21f95",
          "transactionIndex": "0x1",
          "logIndex": "0x2",
          "removed": false
        }
      ],
      "logsBloom": "0x00000000000000000000000000000000000000000000000000000000000000000000000040000000000000000400000000000000000000000008000000100000000000000000000000000000020000000000000000000000000000000001000000000000000000000000000000000000000000000000000000000000000000000000000000000000000000000000008000000000000080000000000400000000000000000000000000000000000000000000002000000000000000000000000000000008000200000000000000000000000000000000000000000000000000000000000000000000000000000000000000000000000000000000000000000000",
      "type": "0x0",
      "transactionHash": "0x5f8a323a37f7550a7e7616c29ba6cc8f2a132a565af0310c5b20c8e2fce21f95",
      "transactionIndex": "0x1",
      "blockHash": "0xc05b29f833c4657d42e97c3d3a54ebc1c398d969fee34d56bd2f1dd6aa6eea57",
      "blockNumber": "0x55d34fd",
      "gasUsed": "0xbdb8",
      "effectiveGasPrice": "0x5f5e100",
      "from": "0xc8306a4a2da13f8e3c30d5096f19d5f01969aa7d",
      "to": "0xde20d3655ba4c69990fda427dcdd5674b8c52595",
      "contractAddress": null
    },
    {
      "status": "0x1",
      "cumulativeGasUsed": "0x1c607",
      "logs": [
        {
          "address": "0xde20d3655ba4c69990fda427dcdd5674b8c52595",
          "topics": [
            "0x95c087089192bf9794af589e4c80ce5881b2309bf8e2a09281a94db4896bd41d",
            "0x000000000000000000000000337610d27c682e347c9cd60bd4b3b107c9d34ddd",
            "0x000000000000000000000000d99d1c33f9fc3444f8101754abc46c52416550d1"
          ],
          "data": "0x0000000000000000000000000000000000000000000000000000000000000001",
          "blockHash": "0x910ab40743a57181d1dbbd7bba4d68278f1b1098861a4684d08855118e3a36d0",
          "blockNumber": "0x55d34fe",
          "blockTimestamp": "0x698e4105",
          "transactionHash": "0x27443d4e154eb1a839704b30bc06a00f1f839193681cc99ab6e88640bcd7d8ba",
          "transactionIndex": "0x1",
          "logIndex": "0x0",
          "removed": false
        }
      ],
      "logsBloom": "0x00000000000000000000000000000000000040000000000000000000000000000000000000000000000000000000000000080000000000000000000000100000004000000000000000000000020000000000000000000000000000008001000000000000000000000000000000000000000000000000000000000000000000000000000000000000000000000000008000000000000080000000000400000000000000000000000000000000000000000000000000000000000000000000000000000000000400000000000000000000000000000000000000000000000000000000000000000000000000000000000000000000000000000000010000000000",
      "type": "0x0",
      "transactionHash": "0x27443d4e154eb1a839704b30bc06a00f1f839193681cc99ab6e88640bcd7d8ba",
      "transactionIndex": "0x1",
      "blockHash": "0x910ab40743a57181d1dbbd7bba4d68278f1b1098861a4684d08855118e3a36d0",
      "blockNumber": "0x55d34fe",
      "gasUsed": "0xbea7",
      "effectiveGasPrice": "0x5f5e100",
      "from": "0xc8306a4a2da13f8e3c30d5096f19d5f01969aa7d",
      "to": "0xde20d3655ba4c69990fda427dcdd5674b8c52595",
      "contractAddress": null
    },
    {
      "status": "0x1",
      "cumulativeGasUsed": "0x284ae",
      "logs": [
        {
          "address": "0xde20d3655ba4c69990fda427dcdd5674b8c52595",
          "topics": [
            "0x95c087089192bf9794af589e4c80ce5881b2309bf8e2a09281a94db4896bd41d",
            "0x000000000000000000000000ae13d989dac2f0debff460ac112a837c89baa7cd",
            "0x000000000000000000000000d99d1c33f9fc3444f8101754abc46c52416550d1"
          ],
          "data": "0x0000000000000000000000000000000000000000000000000000000000000001",
          "blockHash": "0x910ab40743a57181d1dbbd7bba4d68278f1b1098861a4684d08855118e3a36d0",
          "blockNumber": "0x55d34fe",
          "blockTimestamp": "0x698e4105",
          "transactionHash": "0xba98c2fc97bfe67f0e2125d31344b0e7e230cf399c8245d7fae5e44843a96123",
          "transactionIndex": "0x2",
          "logIndex": "0x1",
          "removed": false
        }
      ],
      "logsBloom": "0x00000000000000000000000000000000000040000000002000000000000000000000000000000000000000000000000000080000000000000000000000000000004000000000000000000000020004000000000000000000000000008000000000000000000000000000000000000000000000000000000000000000000000000000000000000000000000000000000000000000000080000000000400000000000000000000000000000000000000000000000000000000000000000000000000000000000400000000000000000000000000000000000000000000000001000000000000000000000000000000000000000000000000000000010000000000",
      "type": "0x0",
      "transactionHash": "0xba98c2fc97bfe67f0e2125d31344b0e7e230cf399c8245d7fae5e44843a96123",
      "transactionIndex": "0x2",
      "blockHash": "0x910ab40743a57181d1dbbd7bba4d68278f1b1098861a4684d08855118e3a36d0",
      "blockNumber": "0x55d34fe",
      "gasUsed": "0xbea7",
      "effectiveGasPrice": "0x5f5e100",
      "from": "0xc8306a4a2da13f8e3c30d5096f19d5f01969aa7d",
      "to": "0xde20d3655ba4c69990fda427dcdd5674b8c52595",
      "contractAddress": null
    },
    {
      "status": "0x1",
      "cumulativeGasUsed": "0x33faf",
      "logs": [
        {
          "address": "0xde20d3655ba4c69990fda427dcdd5674b8c52595",
          "topics": [
            "0xd5cc69c3fd825b34b369396f105ab7c13b09d888d513418c0e02a42db3133999",
            "0x000000000000000000000000b7526572ffe56ab9d7489838bf2e18e3323b441a"
          ],
          "data": "0x0000000000000000000000000000000000000000000000000000000000000001",
          "blockHash": "0x910ab40743a57181d1dbbd7bba4d68278f1b1098861a4684d08855118e3a36d0",
          "blockNumber": "0x55d34fe",
          "blockTimestamp": "0x698e4105",
          "transactionHash": "0x9b722eb836e719662a0f41a092677d74e6af85e43ec1299a811608b08cee507c",
          "transactionIndex": "0x3",
          "logIndex": "0x2",
          "removed": false
        }
      ],
      "logsBloom": "0x00000000000000000002000000000000000000000000000040000000000000000000000000000000000000000000000000000000000000000000000000000000000000000000000000000000820000000000000000000010000000000000000000000000000000000000000000000000000000000000000000000000000000000000000000000000000000000000000000000000000080000000000400000000000000000000000000000000000000000000000000000000020000000000000000000000000000000000000000000000000000000000000000000000000000000000000000000000000000000000000000000000000000000100000000000000",
      "type": "0x0",
      "transactionHash": "0x9b722eb836e719662a0f41a092677d74e6af85e43ec1299a811608b08cee507c",
      "transactionIndex": "0x3",
      "blockHash": "0x910ab40743a57181d1dbbd7bba4d68278f1b1098861a4684d08855118e3a36d0",
      "blockNumber": "0x55d34fe",
      "gasUsed": "0xbb01",
      "effectiveGasPrice": "0x5f5e100",
      "from": "0xc8306a4a2da13f8e3c30d5096f19d5f01969aa7d",
      "to": "0xde20d3655ba4c69990fda427dcdd5674b8c52595",
      "contractAddress": null
    },
    {
      "status": "0x1",
      "cumulativeGasUsed": "0x3fd67",
      "logs": [
        {
          "address": "0xde20d3655ba4c69990fda427dcdd5674b8c52595",
          "topics": [
            "0xc8feb62b1b295ccec8d4fcabfae6673ec51dd67cf746942a19f162afa891a9f4",
            "0x000000000000000000000000b7526572ffe56ab9d7489838bf2e18e3323b441a",
            "0x2608f81800000000000000000000000000000000000000000000000000000000"
          ],
          "data": "0x0000000000000000000000000000000000000000000000000000000000000001",
          "blockHash": "0x910ab40743a57181d1dbbd7bba4d68278f1b1098861a4684d08855118e3a36d0",
          "blockNumber": "0x55d34fe",
          "blockTimestamp": "0x698e4105",
          "transactionHash": "0x92378413d5c7c448014996f59c84c8609b99352c2fdae4aca6a59bd204cc9fe3",
          "transactionIndex": "0x4",
          "logIndex": "0x3",
          "removed": false
        }
      ],
      "logsBloom": "0x00000000000000000000000000000000000000000000000040000000000000000000000040000000000000000000000000000000000000000000000000000000000000000000000000000000020000000000000000000010000800000000000000000000000000000000000000000000000000000000000000000000000000000000000000000000000000000000000000000000000080000000000400000000000008000000000000000000000000000000002000000000020000000000000000000000000200000000000000000000000000000000000000000000000000000000000000000000000000100000000000000000000000000000000000000000",
      "type": "0x0",
      "transactionHash": "0x92378413d5c7c448014996f59c84c8609b99352c2fdae4aca6a59bd204cc9fe3",
      "transactionIndex": "0x4",
      "blockHash": "0x910ab40743a57181d1dbbd7bba4d68278f1b1098861a4684d08855118e3a36d0",
      "blockNumber": "0x55d34fe",
      "gasUsed": "0xbdb8",
      "effectiveGasPrice": "0x5f5e100",
      "from": "0xc8306a4a2da13f8e3c30d5096f19d5f01969aa7d",
      "to": "0xde20d3655ba4c69990fda427dcdd5674b8c52595",
      "contractAddress": null
    },
    {
      "status": "0x1",
      "cumulativeGasUsed": "0x46a77",
      "logs": [
        {
          "address": "0xde20d3655ba4c69990fda427dcdd5674b8c52595",
          "topics": [
            "0xaf66558b06891433cdca82216c190759340d5f935527f16629bb9294dfbc9201",
            "0xf84921ee8be045d408ab443a0f530284469ab7658c788f4d4933fa971c3c38d3"
          ],
          "data": "0x00000000000000000000000000000000000000000000000000000000000004b0",
          "blockHash": "0x910ab40743a57181d1dbbd7bba4d68278f1b1098861a4684d08855118e3a36d0",
          "blockNumber": "0x55d34fe",
          "blockTimestamp": "0x698e4105",
          "transactionHash": "0x8c6e16e116852a8c85d256bffd5b9372e0a91d334d47a47e1baf1b5c400b14a7",
          "transactionIndex": "0x5",
          "logIndex": "0x4",
          "removed": false
        }
      ],
      "logsBloom": "0x00000000000000000000000000000000000000000000000000000000000000000000000000000000000000000000000000000000000000000000000000000000000000000000000000000000020000000000000000000000000000000000000000000000000000000000000000000000000000000000000000000000000000000000000000000000000000000000000004000000000080000000000400000000000000040000000000000000000000000000000400000000004000000000000000000002000000000000001000000000000000000000000000000000000000000000000000000000000000000000000000000000000000000000000000000000",
      "type": "0x0",
      "transactionHash": "0x8c6e16e116852a8c85d256bffd5b9372e0a91d334d47a47e1baf1b5c400b14a7",
      "transactionIndex": "0x5",
      "blockHash": "0x910ab40743a57181d1dbbd7bba4d68278f1b1098861a4684d08855118e3a36d0",
      "blockNumber": "0x55d34fe",
      "gasUsed": "0x6d10",
      "effectiveGasPrice": "0x5f5e100",
      "from": "0xc8306a4a2da13f8e3c30d5096f19d5f01969aa7d",
      "to": "0xde20d3655ba4c69990fda427dcdd5674b8c52595",
      "contractAddress": null
    },
    {
      "status": "0x1",
      "cumulativeGasUsed": "0x4d77b",
      "logs": [
        {
          "address": "0xde20d3655ba4c69990fda427dcdd5674b8c52595",
          "topics": [
            "0xaf66558b06891433cdca82216c190759340d5f935527f16629bb9294dfbc9201",
            "0xcf7470957e421cece59cd9bfee8db9252c364ada9e351140ab1b999fa13d9055"
          ],
          "data": "0x0000000000000000000000000000000000000000000000000000000000000003",
          "blockHash": "0x910ab40743a57181d1dbbd7bba4d68278f1b1098861a4684d08855118e3a36d0",
          "blockNumber": "0x55d34fe",
          "blockTimestamp": "0x698e4105",
          "transactionHash": "0x57c6ee6b9ebd5ab7cb663ec81034e63fc8801b981e597a83b9b028e27dd6b75b",
          "transactionIndex": "0x6",
          "logIndex": "0x5",
          "removed": false
        }
      ],
      "logsBloom": "0x00000000000000000000000000000000000000000000000000000000000000000000000000000000000000000000000000000000000000000000000000000000000000000000000000000000020000000000000000000000000000000000000000000000000000000000000000000000000000000000000100000000000000000000000000000000000000000000000000000000000080000000000400000000000000040000000000000010000000000000000400000000000000000000000000000000000000000000001000000000000000000000000000000080000000000000000000000000000000000000000000000000000000000000000000000000",
      "type": "0x0",
      "transactionHash": "0x57c6ee6b9ebd5ab7cb663ec81034e63fc8801b981e597a83b9b028e27dd6b75b",
      "transactionIndex": "0x6",
      "blockHash": "0x910ab40743a57181d1dbbd7bba4d68278f1b1098861a4684d08855118e3a36d0",
      "blockNumber": "0x55d34fe",
      "gasUsed": "0x6d04",
      "effectiveGasPrice": "0x5f5e100",
      "from": "0xc8306a4a2da13f8e3c30d5096f19d5f01969aa7d",
      "to": "0xde20d3655ba4c69990fda427dcdd5674b8c52595",
      "contractAddress": null
    }
  ],
  "libraries": [],
  "pending": [],
  "returns": {},
  "timestamp": 1770930437988,
  "chain": 97,
  "commit": "f28c719"
}