{
  "transactions": [
    {
      "hash": "0x212ea841837f00735085ec07c6eff50e8b754ec296a3119191c3dcd33bff54b2",
      "transactionType": "CALL",
      "contractName": null,
      "contractAddress": "0xf087b0e4e829109603533fa3c81bae101e46934b",
      "function": "setTargetAllowed(address,bool)",
      "arguments": [
        "0xD99D1c33F9fC3444f8101754aBC46c52416550D1",
        "true"
      ],
      "transaction": {
        "from": "0x99981e09b6e5fb63a683555ff0ac30b7fdb40403",
        "to": "0xf087b0e4e829109603533fa3c81bae101e46934b",
        "gas": "0x1117e",
        "value": "0x0",
        "input": "0x3a3d56fa000000000000000000000000d99d1c33f9fc3444f8101754abc46c52416550d10000000000000000000000000000000000000000000000000000000000000001",
        "nonce": "0x6",
        "chainId": "0x61"
      },
      "additionalContracts": [],
      "isFixedGasLimit": false
    },
    {
      "hash": "0x67f6b74709692299e5a60cd712188781565502a6ba6beba204498c4d40f4516c",
      "transactionType": "CALL",
      "contractName": null,
      "contractAddress": "0xf087b0e4e829109603533fa3c81bae101e46934b",
      "function": "setSelectorAllowed(address,bytes4,bool)",
      "arguments": [
        "0xD99D1c33F9fC3444f8101754aBC46c52416550D1",
        "0x38ed1739",
        "true"
      ],
      "transaction": {
        "from": "0x99981e09b6e5fb63a683555ff0ac30b7fdb40403",
        "to": "0xf087b0e4e829109603533fa3c81bae101e46934b",
        "gas": "0x1060b",
        "value": "0x0",
        "input": "0x7a5a7c27000000000000000000000000d99d1c33f9fc3444f8101754abc46c52416550d138ed1739000000000000000000000000000000000000000000000000000000000000000000000000000000000000000000000000000000000000000000000001",
        "nonce": "0x7",
        "chainId": "0x61"
      },
      "additionalContracts": [],
      "isFixedGasLimit": false
    },
    {
      "hash": "0x259a790498786662f97be3229cd7114833ea5974fec1f08a575ed98d43d4c86d",
      "transactionType": "CALL",
      "contractName": null,
      "contractAddress": "0xf087b0e4e829109603533fa3c81bae101e46934b",
      "function": "setTokenAllowed(address,bool)",
      "arguments": [
        "0xae13d989daC2f0dEbFf460aC112a837C89BAa7cd",
        "true"
      ],
      "transaction": {
        "from": "0x99981e09b6e5fb63a683555ff0ac30b7fdb40403",
        "to": "0xf087b0e4e829109603533fa3c81bae101e46934b",
        "gas": "0x1112d",
        "value": "0x0",
        "input": "0x15f69012000000000000000000000000ae13d989dac2f0debff460ac112a837c89baa7cd0000000000000000000000000000000000000000000000000000000000000001",
        "nonce": "0x8",
        "chainId": "0x61"
      },
      "additionalContracts": [],
      "isFixedGasLimit": false
    },
    {
      "hash": "0x03a7488edb92edce370c247ed808877c6d3e8ea9829cfe6bb588919fa9ce67cb",
      "transactionType": "CALL",
      "contractName": null,
      "contractAddress": "0xf087b0e4e829109603533fa3c81bae101e46934b",
      "function": "setTokenAllowed(address,bool)",
      "arguments": [
        "0xA11c8D9DC9b66E209Ef60F0C8D969D3CD988782c",
        "true"
      ],
      "transaction": {
        "from": "0x99981e09b6e5fb63a683555ff0ac30b7fdb40403",
        "to": "0xf087b0e4e829109603533fa3c81bae101e46934b",
        "gas": "0x1112d",
        "value": "0x0",
        "input": "0x15f69012000000000000000000000000a11c8d9dc9b66e209ef60f0c8d969d3cd988782c0000000000000000000000000000000000000000000000000000000000000001",
        "nonce": "0x9",
        "chainId": "0x61"
      },
      "additionalContracts": [],
      "isFixedGasLimit": false
    },
    {
      "hash": "0xd83642d3ac0d626d3f80a5893ca140c5aa46f9e403c707b6eb85834852d4323f",
      "transactionType": "CALL",
      "contractName": null,
      "contractAddress": "0xf087b0e4e829109603533fa3c81bae101e46934b",
      "function": "setTargetAllowed(address,bool)",
      "arguments": [
        "0xA11c8D9DC9b66E209Ef60F0C8D969D3CD988782c",
        "true"
      ],
      "transaction": {
        "from": "0x99981e09b6e5fb63a683555ff0ac30b7fdb40403",
        "to": "0xf087b0e4e829109603533fa3c81bae101e46934b",
        "gas": "0x1117e",
        "value": "0x0",
        "input": "0x3a3d56fa000000000000000000000000a11c8d9dc9b66e209ef60f0c8d969d3cd988782c0000000000000000000000000000000000000000000000000000000000000001",
        "nonce": "0xa",
        "chainId": "0x61"
      },
      "additionalContracts": [],
      "isFixedGasLimit": false
    },
    {
      "hash": "0xc8df90e53acaa399811840ac48520e660b4b5187554e887f58201f61648f7f90",
      "transactionType": "CALL",
      "contractName": null,
      "contractAddress": "0xf087b0e4e829109603533fa3c81bae101e46934b",
      "function": "setSelectorAllowed(address,bytes4,bool)",
      "arguments": [
        "0xA11c8D9DC9b66E209Ef60F0C8D969D3CD988782c",
        "0x095ea7b3",
        "true"
      ],
      "transaction": {
        "from": "0x99981e09b6e5fb63a683555ff0ac30b7fdb40403",
        "to": "0xf087b0e4e829109603533fa3c81bae101e46934b",
        "gas": "0x1060b",
        "value": "0x0",
        "input": "0x7a5a7c27000000000000000000000000a11c8d9dc9b66e209ef60f0c8d969d3cd988782c095ea7b3000000000000000000000000000000000000000000000000000000000000000000000000000000000000000000000000000000000000000000000001",
        "nonce": "0xb",
        "chainId": "0x61"
      },
      "additionalContracts": [],
      "isFixedGasLimit": false
    },
    {
      "hash": "0x744342b7a3019b88c0edaefa8d5e9f1d35d3ef49fdd28825eb07dfa6fd4a5a17",
      "transactionType": "CALL",
      "contractName": null,
      "contractAddress": "0xf087b0e4e829109603533fa3c81bae101e46934b",
      "function": "setSpenderAllowed(address,address,bool)",
      "arguments": [
        "0xA11c8D9DC9b66E209Ef60F0C8D969D3CD988782c",
        "0xD99D1c33F9fC3444f8101754aBC46c52416550D1",
        "true"
      ],
      "transaction": {
        "from": "0x99981e09b6e5fb63a683555ff0ac30b7fdb40403",
        "to": "0xf087b0e4e829109603533fa3c81bae101e46934b",
        "gas": "0x10756",
        "value": "0x0",
        "input": "0x871018a1000000000000000000000000a11c8d9dc9b66e209ef60f0c8d969d3cd988782c000000000000000000000000d99d1c33f9fc3444f8101754abc46c52416550d10000000000000000000000000000000000000000000000000000000000000001",
        "nonce": "0xc",
        "chainId": "0x61"
      },
      "additionalContracts": [],
      "isFixedGasLimit": false
    },
    {
      "hash": "0x36d87b0fa228c8add8e2bc2621edeac80371747c9c12b889c7f42633ed1d3afb",
      "transactionType": "CALL",
      "contractName": null,
      "contractAddress": "0xf087b0e4e829109603533fa3c81bae101e46934b",
      "function": "setSpenderAllowed(address,address,bool)",
      "arguments": [
        "0xae13d989daC2f0dEbFf460aC112a837C89BAa7cd",
        "0xD99D1c33F9fC3444f8101754aBC46c52416550D1",
        "true"
      ],
      "transaction": {
        "from": "0x99981e09b6e5fb63a683555ff0ac30b7fdb40403",
        "to": "0xf087b0e4e829109603533fa3c81bae101e46934b",
        "gas": "0x10756",
        "value": "0x0",
        "input": "0x871018a1000000000000000000000000ae13d989dac2f0debff460ac112a837c89baa7cd000000000000000000000000d99d1c33f9fc3444f8101754abc46c52416550d10000000000000000000000000000000000000000000000000000000000000001",
        "nonce": "0xd",
        "chainId": "0x61"
      },
      "additionalContracts": [],
      "isFixedGasLimit": false
    },
    {
      "hash": "0x5d0a15468bbc9eb865505fc109f52a5c10799efa4e03c7b2b6bd0701e16407fb",
      "transactionType": "CALL",
      "contractName": null,
      "contractAddress": "0xf087b0e4e829109603533fa3c81bae101e46934b",
      "function": "setTargetAllowed(address,bool)",
      "arguments": [
        "0xb7526572FFE56AB9D7489838Bf2E18e3323b441A",
        "true"
      ],
      "transaction": {
        "from": "0x99981e09b6e5fb63a683555ff0ac30b7fdb40403",
        "to": "0xf087b0e4e829109603533fa3c81bae101e46934b",
        "gas": "0x1117e",
        "value": "0x0",
        "input": "0x3a3d56fa000000000000000000000000b7526572ffe56ab9d7489838bf2e18e3323b441a0000000000000000000000000000000000000000000000000000000000000001",
        "nonce": "0xe",
        "chainId": "0x61"
      },
      "additionalContracts": [],
      "isFixedGasLimit": false
    },
    {
      "hash": "0x3ccdbc741c8b86974359815176bf31ff282149c99cc1ae3d6724417583188dec",
      "transactionType": "CALL",
      "contractName": null,
      "contractAddress": "0xf087b0e4e829109603533fa3c81bae101e46934b",
      "function": "setSelectorAllowed(address,bytes4,bool)",
      "arguments": [
        "0xb7526572FFE56AB9D7489838Bf2E18e3323b441A",
        "0x2608f818",
        "true"
      ],
      "transaction": {
        "from": "0x99981e09b6e5fb63a683555ff0ac30b7fdb40403",
        "to": "0xf087b0e4e829109603533fa3c81bae101e46934b",
        "gas": "0x1060b",
        "value": "0x0",
        "input": "0x7a5a7c27000000000000000000000000b7526572ffe56ab9d7489838bf2e18e3323b441a2608f818000000000000000000000000000000000000000000000000000000000000000000000000000000000000000000000000000000000000000000000001",
        "nonce": "0xf",
        "chainId": "0x61"
      },
      "additionalContracts": [],
      "isFixedGasLimit": false
    },
    {
      "hash": "0x9d63fe75392672c8be642d00b684b3135a4ce2bcd04dc68e14b77bbae516b28f",
      "transactionType": "CALL",
      "contractName": null,
      "contractAddress": "0xf087b0e4e829109603533fa3c81bae101e46934b",
      "function": "setLimit(bytes32,uint256)",
      "arguments": [
        "0xf84921ee8be045d408ab443a0f530284469ab7658c788f4d4933fa971c3c38d3",
        "1200"
      ],
      "transaction": {
        "from": "0x99981e09b6e5fb63a683555ff0ac30b7fdb40403",
        "to": "0xf087b0e4e829109603533fa3c81bae101e46934b",
        "gas": "0x96a4",
        "value": "0x0",
        "input": "0x22895b9ff84921ee8be045d408ab443a0f530284469ab7658c788f4d4933fa971c3c38d300000000000000000000000000000000000000000000000000000000000004b0",
        "nonce": "0x10",
        "chainId": "0x61"
      },
      "additionalContracts": [],
      "isFixedGasLimit": false
    },
    {
      "hash": "0x7aeac88de3b7078fa2dc43ea425fb758994fe63e5c39512693ccdb2e9e47bda7",
      "transactionType": "CALL",
      "contractName": null,
      "contractAddress": "0xf087b0e4e829109603533fa3c81bae101e46934b",
      "function": "setLimit(bytes32,uint256)",
      "arguments": [
        "0xcf7470957e421cece59cd9bfee8db9252c364ada9e351140ab1b999fa13d9055",
        "3"
      ],
      "transaction": {
        "from": "0x99981e09b6e5fb63a683555ff0ac30b7fdb40403",
        "to": "0xf087b0e4e829109603533fa3c81bae101e46934b",
        "gas": "0x9693",
        "value": "0x0",
        "input": "0x22895b9fcf7470957e421cece59cd9bfee8db9252c364ada9e351140ab1b999fa13d90550000000000000000000000000000000000000000000000000000000000000003",
        "nonce": "0x11",
        "chainId": "0x61"
      },
      "additionalContracts": [],
      "isFixedGasLimit": false
    }
  ],
  "receipts": [
    {
      "status": "0x1",
      "cumulativeGasUsed": "0x79520",
      "logs": [
        {
          "address": "0xf087b0e4e829109603533fa3c81bae101e46934b",
          "topics": [
            "0xd5cc69c3fd825b34b369396f105ab7c13b09d888d513418c0e02a42db3133999",
            "0x000000000000000000000000d99d1c33f9fc3444f8101754abc46c52416550d1"
          ],
          "data": "0x0000000000000000000000000000000000000000000000000000000000000001",
          "blockHash": "0x7f0705d0a74e6f167d12c70605115ef2f2431b4196b8acd1461f268fc21bd654",
          "blockNumber": "0x55979c9",
          "blockTimestamp": "0x698c8e65",
          "transactionHash": "0x3ccdbc741c8b86974359815176bf31ff282149c99cc1ae3d6724417583188dec",
          "transactionIndex": "0x6",
          "logIndex": "0xb",
          "removed": false
        }
      ],
      "logsBloom": "0x00000004000000000002000000000000000040000000000000000000000000000000000000000000000000000000000000080000000000000000000000000000004000000000000000000000800000000000000000000000000000000000000000000000000000000000000000000000000000000000000000000000000000000000000000000000000000000000000000000000000000400000000000000000000000000000000000000000000800000000000000000000000000000000000000000000000000000000000000000000000000000000000000000000000000000000000000000000000000000000000000000000000000000100000000000000",
      "type": "0x0",
      "transactionHash": "0x3ccdbc741c8b86974359815176bf31ff282149c99cc1ae3d6724417583188dec",
      "transactionIndex": "0x6",
      "blockHash": "0x7f0705d0a74e6f167d12c70605115ef2f2431b4196b8acd1461f268fc21bd654",
      "blockNumber": "0x55979c9",
      "gasUsed": "0xbb01",
      "effectiveGasPrice": "0x5f5e100",
      "from": "0x99981e09b6e5fb63a683555ff0ac30b7fdb40403",
      "to": "0xf087b0e4e829109603533fa3c81bae101e46934b",
      "contractAddress": null
    },
    {
      "status": "0x1",
      "cumulativeGasUsed": "0xd3c96",
      "logs": [
        {
          "address": "0xf087b0e4e829109603533fa3c81bae101e46934b",
          "topics": [
            "0xc8feb62b1b295ccec8d4fcabfae6673ec51dd67cf746942a19f162afa891a9f4",
            "0x000000000000000000000000d99d1c33f9fc3444f8101754abc46c52416550d1",
            "0x38ed173900000000000000000000000000000000000000000000000000000000"
          ],
          "data": "0x0000000000000000000000000000000000000000000000000000000000000001",
          "blockHash": "0x7f0705d0a74e6f167d12c70605115ef2f2431b4196b8acd1461f268fc21bd654",
          "blockNumber": "0x55979c9",
          "blockTimestamp": "0x698c8e65",
          "transactionHash": "0x36d87b0fa228c8add8e2bc2621edeac80371747c9c12b889c7f42633ed1d3afb",
          "transactionIndex": "0x9",
          "logIndex": "0x16",
          "removed": false
        }
      ],
      "logsBloom": "0x00000004000000000000000000000000000040000000000000000000000000000000000040000000000000000000000000080000000000000000000000000000004000008000000000000000000000000000000000000000000000000000000000000000000000000000000000000000000000000000000000000000000000000000000000000000000000000000000000000000000000400000000000000000000000000000000000000000000800000000002000000000000000000000000000000000000200000000000000000000000020000000000000000000000100000000000000000000000000000000000000000000000000000000000000000000",
      "type": "0x0",
      "transactionHash": "0x36d87b0fa228c8add8e2bc2621edeac80371747c9c12b889c7f42633ed1d3afb",
      "transactionIndex": "0x9",
      "blockHash": "0x7f0705d0a74e6f167d12c70605115ef2f2431b4196b8acd1461f268fc21bd654",
      "blockNumber": "0x55979c9",
      "gasUsed": "0xbdb8",
      "effectiveGasPrice": "0x5f5e100",
      "from": "0x99981e09b6e5fb63a683555ff0ac30b7fdb40403",
      "to": "0xf087b0e4e829109603533fa3c81bae101e46934b",
      "contractAddress": null
    },
    {
      "status": "0x1",
      "cumulativeGasUsed": "0x99564",
      "logs": [
        {
          "address": "0xf087b0e4e829109603533fa3c81bae101e46934b",
          "topics": [
            "0xdcb2804db02b95bdd568fd11a31c5577ffdf36538c0f670e92930d9c1e8518ab",
            "0x000000000000000000000000ae13d989dac2f0debff460ac112a837c89baa7cd"
          ],
          "data": "0x0000000000000000000000000000000000000000000000000000000000000001",
          "blockHash": "0xec11626d50d2291e71599926ff369dc137eaf125d38037cc008885bb03c9e574",
          "blockNumber": "0x55979ca",
          "blockTimestamp": "0x698c8e65",
          "transactionHash": "0x67f6b74709692299e5a60cd712188781565502a6ba6beba204498c4d40f4516c",
          "transactionIndex": "0x6",
          "logIndex": "0x10",
          "removed": false
        }
      ],
      "logsBloom": "0x00000004000000000000000000000000000000000000002000000000000000000002000000000000010000000000000000000000000000000000000000000000000000000000000000000000000004000000000000000000000000000000000000000000000000000000000000000000000000000000000000000000000000000000000000000000000000000000000000000000000000400000000000000000000000000000000000000000000800000000000000000000000000000000000000000000000000000000000000000000000000000000000000000000010001000000000000000000000000000000000000000000000000000000000000000000",
      "type": "0x0",
      "transactionHash": "0x67f6b74709692299e5a60cd712188781565502a6ba6beba204498c4d40f4516c",
      "transactionIndex": "0x6",
      "blockHash": "0xec11626d50d2291e71599926ff369dc137eaf125d38037cc008885bb03c9e574",
      "blockNumber": "0x55979ca",
      "gasUsed": "0xbaca",
      "effectiveGasPrice": "0x5f5e100",
      "from": "0x99981e09b6e5fb63a683555ff0ac30b7fdb40403",
      "to": "0xf087b0e4e829109603533fa3c81bae101e46934b",
      "contractAddress": null
    },
    {
      "status": "0x1",
      "cumulativeGasUsed": "0xae763",
      "logs": [
        {
          "address": "0xf087b0e4e829109603533fa3c81bae101e46934b",
          "topics": [
            "0xdcb2804db02b95bdd568fd11a31c5577ffdf36538c0f670e92930d9c1e8518ab",
            "0x000000000000000000000000a11c8d9dc9b66e209ef60f0c8d969d3cd988782c"
          ],
          "data": "0x0000000000000000000000000000000000000000000000000000000000000001",
          "blockHash": "0xec11626d50d2291e71599926ff369dc137eaf125d38037cc008885bb03c9e574",
          "blockNumber": "0x55979ca",
          "blockTimestamp": "0x698c8e65",
          "transactionHash": "0x9d63fe75392672c8be642d00b684b3135a4ce2bcd04dc68e14b77bbae516b28f",
          "transactionIndex": "0x8",
          "logIndex": "0x11",
          "removed": false
        }
      ],
      "logsBloom": "0x00000004000000000000000000000000000000000000000000000000000000000002000000000000010000000000000000000000000000000000000000000000000000000000000000000000000000000000000000080000000000000000000000000000000000000000000100000000000000000000000000000000000000000000000000000000000000000000000000000000000000400000000000000000000000000000000000000000000800000000000000000000000000000000000000000000001000000000000000000000000000000000000000000000010000000000000000000000000000000000000000000000000000000000000000000000",
      "type": "0x0",
      "transactionHash": "0x9d63fe75392672c8be642d00b684b3135a4ce2bcd04dc68e14b77bbae516b28f",
      "transactionIndex": "0x8",
      "blockHash": "0xec11626d50d2291e71599926ff369dc137eaf125d38037cc008885bb03c9e574",
      "blockNumber": "0x55979ca",
      "gasUsed": "0xbaca",
      "effectiveGasPrice": "0x5f5e100",
      "from": "0x99981e09b6e5fb63a683555ff0ac30b7fdb40403",
      "to": "0xf087b0e4e829109603533fa3c81bae101e46934b",
      "contractAddress": null
    },
    {
      "status": "0x1",
      "cumulativeGasUsed": "0xba264",
      "logs": [
        {
          "address": "0xf087b0e4e829109603533fa3c81bae101e46934b",
          "topics": [
            "0xd5cc69c3fd825b34b369396f105ab7c13b09d888d513418c0e02a42db3133999",
            "0x000000000000000000000000a11c8d9dc9b66e209ef60f0c8d969d3cd988782c"
          ],
          "data": "0x0000000000000000000000000000000000000000000000000000000000000001",
          "blockHash": "0xec11626d50d2291e71599926ff369dc137eaf125d38037cc008885bb03c9e574",
          "blockNumber": "0x55979ca",
          "blockTimestamp": "0x698c8e65",
          "transactionHash": "0x5d0a15468bbc9eb865505fc109f52a5c10799efa4e03c7b2b6bd0701e16407fb",
          "transactionIndex": "0x9",
          "logIndex": "0x12",
          "removed": false
        }
      ],
      "logsBloom": "0x00000004000000000002000000000000000000000000000000000000000000000000000000000000000000000000000000000000000000000000000000000000000000000000000000000000800000000000000000080000000000000000000000000000000000000000000100000000000000000000000000000000000000000000000000000000000000000000000000000000000000400000000000000000000000000000000000000000000800000000000000000000000000000000000000000000001000000000000000000000000000000000000000000000000000000000000000000000000000000000000000000000000000000100000000000000",
      "type": "0x0",
      "transactionHash": "0x5d0a15468bbc9eb865505fc109f52a5c10799efa4e03c7b2b6bd0701e16407fb",
      "transactionIndex": "0x9",
      "blockHash": "0xec11626d50d2291e71599926ff369dc137eaf125d38037cc008885bb03c9e574",
      "blockNumber": "0x55979ca",
      "gasUsed": "0xbb01",
      "effectiveGasPrice": "0x5f5e100",
      "from": "0x99981e09b6e5fb63a683555ff0ac30b7fdb40403",
      "to": "0xf087b0e4e829109603533fa3c81bae101e46934b",
      "contractAddress": null
    },
    {
      "status": "0x1",
      "cumulativeGasUsed": "0xd804c",
      "logs": [
        {
          "address": "0xf087b0e4e829109603533fa3c81bae101e46934b",
          "topics": [
            "0xc8feb62b1b295ccec8d4fcabfae6673ec51dd67cf746942a19f162afa891a9f4",
            "0x000000000000000000000000a11c8d9dc9b66e209ef60f0c8d969d3cd988782c",
            "0x095ea7b300000000000000000000000000000000000000000000000000000000"
          ],
          "data": "0x0000000000000000000000000000000000000000000000000000000000000001",
          "blockHash": "0xec11626d50d2291e71599926ff369dc137eaf125d38037cc008885bb03c9e574",
          "blockNumber": "0x55979ca",
          "blockTimestamp": "0x698c8e65",
          "transactionHash": "0xd83642d3ac0d626d3f80a5893ca140c5aa46f9e403c707b6eb85834852d4323f",
          "transactionIndex": "0xc",
          "logIndex": "0x14",
          "removed": false
        }
      ],
      "logsBloom": "0x00000004000000000000000000000000000000000000000000000000000000000000000040000000000000000400000000000000000000000008000000000000000000000000000000000000000000000000000000080000000000000000000000000000000000000000000100000000000000000000000000000000000000000000000000000000000000000000000000000000000000400000000000000000000000000000000000000000000800000000002000000000000000000000000000000008001200000000000000000000000000000000000000000000000000000000000000000000000000000000000000000000000000000000000000000000",
      "type": "0x0",
      "transactionHash": "0xd83642d3ac0d626d3f80a5893ca140c5aa46f9e403c707b6eb85834852d4323f",
      "transactionIndex": "0xc",
      "blockHash": "0xec11626d50d2291e71599926ff369dc137eaf125d38037cc008885bb03c9e574",
      "blockNumber": "0x55979ca",
      "gasUsed": "0xbdb8",
      "effectiveGasPrice": "0x5f5e100",
      "from": "0x99981e09b6e5fb63a683555ff0ac30b7fdb40403",
      "to": "0xf087b0e4e829109603533fa3c81bae101e46934b",
      "contractAddress": null
    },
    {
      "status": "0x1",
      "cumulativeGasUsed": "0xe3ef3",
      "logs": [
        {
          "address": "0xf087b0e4e829109603533fa3c81bae101e46934b",
          "topics": [
            "0x95c087089192bf9794af589e4c80ce5881b2309bf8e2a09281a94db4896bd41d",
            "0x000000000000000000000000a11c8d9dc9b66e209ef60f0c8d969d3cd988782c",
            "0x000000000000000000000000d99d1c33f9fc3444f8101754abc46c52416550d1"
          ],
          "data": "0x0000000000000000000000000000000000000000000000000000000000000001",
          "blockHash": "0xec11626d50d2291e71599926ff369dc137eaf125d38037cc008885bb03c9e574",
          "blockNumber": "0x55979ca",
          "blockTimestamp": "0x698c8e65",
          "transactionHash": "0x259a790498786662f97be3229cd7114833ea5974fec1f08a575ed98d43d4c86d",
          "transactionIndex": "0xd",
          "logIndex": "0x15",
          "removed": false
        }
      ],
      "logsBloom": "0x00000004000000000000000000000000000040000000000000000000000000000000000000000000000000000000000000080000000000000000000000000000004000000000000000000000000000000000000000080000000000008000000000000000000000000000000100000000000000000000000000000000000000000000000000000000000000000000000000000000000000400000000000000000000000000000000000000000000800000000000000000000000000000000000000000000001400000000000000000000000000000000000000000000000000000000000000000000000000000000000000000000000000000000010000000000",
      "type": "0x0",
      "transactionHash": "0x259a790498786662f97be3229cd7114833ea5974fec1f08a575ed98d43d4c86d",
      "transactionIndex": "0xd",
      "blockHash": "0xec11626d50d2291e71599926ff369dc137eaf125d38037cc008885bb03c9e574",
      "blockNumber": "0x55979ca",
      "gasUsed": "0xbea7",
      "effectiveGasPrice": "0x5f5e100",
      "from": "0x99981e09b6e5fb63a683555ff0ac30b7fdb40403",
      "to": "0xf087b0e4e829109603533fa3c81bae101e46934b",
      "contractAddress": null
    },
    {
      "status": "0x1",
      "cumulativeGasUsed": "0xefd9a",
      "logs": [
        {
          "address": "0xf087b0e4e829109603533fa3c81bae101e46934b",
          "topics": [
            "0x95c087089192bf9794af589e4c80ce5881b2309bf8e2a09281a94db4896bd41d",
            "0x000000000000000000000000ae13d989dac2f0debff460ac112a837c89baa7cd",
            "0x000000000000000000000000d99d1c33f9fc3444f8101754abc46c52416550d1"
          ],
          "data": "0x0000000000000000000000000000000000000000000000000000000000000001",
          "blockHash": "0xec11626d50d2291e71599926ff369dc137eaf125d38037cc008885bb03c9e574",
          "blockNumber": "0x55979ca",
          "blockTimestamp": "0x698c8e65",
          "transactionHash": "0x212ea841837f00735085ec07c6eff50e8b754ec296a3119191c3dcd33bff54b2",
          "transactionIndex": "0xe",
          "logIndex": "0x16",
          "removed": false
        }
      ],
      "logsBloom": "0x00000004000000000000000000000000000040000000002000000000000000000000000000000000000000000000000000080000000000000000000000000000004000000000000000000000000004000000000000000000000000008000000000000000000000000000000000000000000000000000000000000000000000000000000000000000000000000000000000000000000000400000000000000000000000000000000000000000000800000000000000000000000000000000000000000000000400000000000000000000000000000000000000000000000001000000000000000000000000000000000000000000000000000000010000000000",
      "type": "0x0",
      "transactionHash": "0x212ea841837f00735085ec07c6eff50e8b754ec296a3119191c3dcd33bff54b2",
      "transactionIndex": "0xe",
      "blockHash": "0xec11626d50d2291e71599926ff369dc137eaf125d38037cc008885bb03c9e574",
      "blockNumber": "0x55979ca",
      "gasUsed": "0xbea7",
      "effectiveGasPrice": "0x5f5e100",
      "from": "0x99981e09b6e5fb63a683555ff0ac30b7fdb40403",
      "to": "0xf087b0e4e829109603533fa3c81bae101e46934b",
      "contractAddress": null
    },
    {
      "status": "0x1",
      "cumulativeGasUsed": "0xfb89b",
      "logs": [
        {
          "address": "0xf087b0e4e829109603533fa3c81bae101e46934b",
          "topics": [
            "0xd5cc69c3fd825b34b369396f105ab7c13b09d888d513418c0e02a42db3133999",
            "0x000000000000000000000000b7526572ffe56ab9d7489838bf2e18e3323b441a"
          ],
          "data": "0x0000000000000000000000000000000000000000000000000000000000000001",
          "blockHash": "0xec11626d50d2291e71599926ff369dc137eaf125d38037cc008885bb03c9e574",
          "blockNumber": "0x55979ca",
          "blockTimestamp": "0x698c8e65",
          "transactionHash": "0x03a7488edb92edce370c247ed808877c6d3e8ea9829cfe6bb588919fa9ce67cb",
          "transactionIndex": "0xf",
          "logIndex": "0x17",
          "removed": false
        }
      ],
      "logsBloom": "0x00000004000000000002000000000000000000000000000040000000000000000000000000000000000000000000000000000000000000000000000000000000000000000000000000000000800000000000000000000010000000000000000000000000000000000000000000000000000000000000000000000000000000000000000000000000000000000000000000000000000000400000000000000000000000000000000000000000000800000000000000000000020000000000000000000000000000000000000000000000000000000000000000000000000000000000000000000000000000000000000000000000000000000100000000000000",
      "type": "0x0",
      "transactionHash": "0x03a7488edb92edce370c247ed808877c6d3e8ea9829cfe6bb588919fa9ce67cb",
      "transactionIndex": "0xf",
      "blockHash": "0xec11626d50d2291e71599926ff369dc137eaf125d38037cc008885bb03c9e574",
      "blockNumber": "0x55979ca",
      "gasUsed": "0xbb01",
      "effectiveGasPrice": "0x5f5e100",
      "from": "0x99981e09b6e5fb63a683555ff0ac30b7fdb40403",
      "to": "0xf087b0e4e829109603533fa3c81bae101e46934b",
      "contractAddress": null
    },
    {
      "status": "0x1",
      "cumulativeGasUsed": "0x110d70",
      "logs": [
        {
          "address": "0xf087b0e4e829109603533fa3c81bae101e46934b",
          "topics": [
            "0xc8feb62b1b295ccec8d4fcabfae6673ec51dd67cf746942a19f162afa891a9f4",
            "0x000000000000000000000000b7526572ffe56ab9d7489838bf2e18e3323b441a",
            "0x2608f81800000000000000000000000000000000000000000000000000000000"
          ],
          "data": "0x0000000000000000000000000000000000000000000000000000000000000001",
          "blockHash": "0xec11626d50d2291e71599926ff369dc137eaf125d38037cc008885bb03c9e574",
          "blockNumber": "0x55979ca",
          "blockTimestamp": "0x698c8e65",
          "transactionHash": "0x744342b7a3019b88c0edaefa8d5e9f1d35d3ef49fdd28825eb07dfa6fd4a5a17",
          "transactionIndex": "0x11",
          "logIndex": "0x18",
          "removed": false
        }
      ],
      "logsBloom": "0x00000004000000000000000000000000000000000000000040000000000000000000000040000000000000000000000000000000000000000000000000000000000000000000000000000000000000000000000000000010000800000000000000000000000000000000000000000000000000000000000000000000000000000000000000000000000000000000000000000000000000400000000000000000000008000000000000000000000800000000002000000000020000000000000000000000000200000000000000000000000000000000000000000000000000000000000000000000000000100000000000000000000000000000000000000000",
      "type": "0x0",
      "transactionHash": "0x744342b7a3019b88c0edaefa8d5e9f1d35d3ef49fdd28825eb07dfa6fd4a5a17",
      "transactionIndex": "0x11",
      "blockHash": "0xec11626d50d2291e71599926ff369dc137eaf125d38037cc008885bb03c9e574",
      "blockNumber": "0x55979ca",
      "gasUsed": "0xbdb8",
      "effectiveGasPrice": "0x5f5e100",
      "from": "0x99981e09b6e5fb63a683555ff0ac30b7fdb40403",
      "to": "0xf087b0e4e829109603533fa3c81bae101e46934b",
      "contractAddress": null
    },
    {
      "status": "0x1",
      "cumulativeGasUsed": "0x117a80",
      "logs": [
        {
          "address": "0xf087b0e4e829109603533fa3c81bae101e46934b",
          "topics": [
            "0xaf66558b06891433cdca82216c190759340d5f935527f16629bb9294dfbc9201",
            "0xf84921ee8be045d408ab443a0f530284469ab7658c788f4d4933fa971c3c38d3"
          ],
          "data": "0x00000000000000000000000000000000000000000000000000000000000004b0",
          "blockHash": "0xec11626d50d2291e71599926ff369dc137eaf125d38037cc008885bb03c9e574",
          "blockNumber": "0x55979ca",
          "blockTimestamp": "0x698c8e65",
          "transactionHash": "0xc8df90e53acaa399811840ac48520e660b4b5187554e887f58201f61648f7f90",
          "transactionIndex": "0x12",
          "logIndex": "0x19",
          "removed": false
        }
      ],
      "logsBloom": "0x00000004000000000000000000000000000000000000000000000000000000000000000000000000000000000000000000000000000000000000000000000000000000000000000000000000000000000000000000000000000000000000000000000000000000000000000000000000000000000000000000000000000000000000000000000000000000000000000004000000000000400000000000000000000000040000000000000000000800000000000400000000004000000000000000000002000000000000001000000000000000000000000000000000000000000000000000000000000000000000000000000000000000000000000000000000",
      "type": "0x0",
      "transactionHash": "0xc8df90e53acaa399811840ac48520e660b4b5187554e887f58201f61648f7f90",
      "transactionIndex": "0x12",
      "blockHash": "0xec11626d50d2291e71599926ff369dc137eaf125d38037cc008885bb03c9e574",
      "blockNumber": "0x55979ca",
      "gasUsed": "0x6d10",
      "effectiveGasPrice": "0x5f5e100",
      "from": "0x99981e09b6e5fb63a683555ff0ac30b7fdb40403",
      "to": "0xf087b0e4e829109603533fa3c81bae101e46934b",
      "contractAddress": null
    },
    {
      "status": "0x1",
      "cumulativeGasUsed": "0x11e784",
      "logs": [
        {
          "address": "0xf087b0e4e829109603533fa3c81bae101e46934b",
          "topics": [
            "0xaf66558b06891433cdca82216c190759340d5f935527f16629bb9294dfbc9201",
            "0xcf7470957e421cece59cd9bfee8db9252c364ada9e351140ab1b999fa13d9055"
          ],
          "data": "0x0000000000000000000000000000000000000000000000000000000000000003",
          "blockHash": "0xec11626d50d2291e71599926ff369dc137eaf125d38037cc008885bb03c9e574",
          "blockNumber": "0x55979ca",
          "blockTimestamp": "0x698c8e65",
          "transactionHash": "0x7aeac88de3b7078fa2dc43ea425fb758994fe63e5c39512693ccdb2e9e47bda7",
          "transactionIndex": "0x13",
          "logIndex": "0x1a",
          "removed": false
        }
      ],
      "logsBloom": "0x00000004000000000000000000000000000000000000000000000000000000000000000000000000000000000000000000000000000000000000000000000000000000000000000000000000000000000000000000000000000000000000000000000000000000000000000000000000000000000000000100000000000000000000000000000000000000000000000000000000000000400000000000000000000000040000000000000010000800000000000400000000000000000000000000000000000000000000001000000000000000000000000000000080000000000000000000000000000000000000000000000000000000000000000000000000",
      "type": "0x0",
      "transactionHash": "0x7aeac88de3b7078fa2dc43ea425fb758994fe63e5c39512693ccdb2e9e47bda7",
      "transactionIndex": "0x13",
      "blockHash": "0xec11626d50d2291e71599926ff369dc137eaf125d38037cc008885bb03c9e574",
      "blockNumber": "0x55979ca",
      "gasUsed": "0x6d04",
      "effectiveGasPrice": "0x5f5e100",
      "from": "0x99981e09b6e5fb63a683555ff0ac30b7fdb40403",
      "to": "0xf087b0e4e829109603533fa3c81bae101e46934b",
      "contractAddress": null
    }
  ],
  "libraries": [],
  "pending": [],
  "returns": {},
  "timestamp": 1770819175440,
  "chain": 97,
  "commit": "3775458"
}