{
  "transactions": [
    {
      "hash": "0x374872b51638ad84062045990ae3848f09f6e6fbe3b774b5162ea5fa51574af5",
      "transactionType": "CALL",
      "contractName": null,
      "contractAddress": "0xcfdc3bea04c36673a1eabf777647d38fcfcb23c7",
      "function": "setTargetAllowed(address,bool)",
      "arguments": [
        "0xD99D1c33F9fC3444f8101754aBC46c52416550D1",
        "true"
      ],
      "transaction": {
        "from": "0xc8306a4a2da13f8e3c30d5096f19d5f01969aa7d",
        "to": "0xcfdc3bea04c36673a1eabf777647d38fcfcb23c7",
        "gas": "0x1117e",
        "value": "0x0",
        "input": "0x3a3d56fa000000000000000000000000d99d1c33f9fc3444f8101754abc46c52416550d10000000000000000000000000000000000000000000000000000000000000001",
        "nonce": "0x7d",
        "chainId": "0x61"
      },
      "additionalContracts": [],
      "isFixedGasLimit": false
    },
    {
      "hash": "0x8a6ed98b91a82ff39da7ca19ac46f81c3f7264dbc1782a261ff98abf3c33f3e1",
      "transactionType": "CALL",
      "contractName": null,
      "contractAddress": "0xcfdc3bea04c36673a1eabf777647d38fcfcb23c7",
      "function": "setTargetAllowed(address,bool)",
      "arguments": [
        "0xb7526572FFE56AB9D7489838Bf2E18e3323b441A",
        "true"
      ],
      "transaction": {
        "from": "0xc8306a4a2da13f8e3c30d5096f19d5f01969aa7d",
        "to": "0xcfdc3bea04c36673a1eabf777647d38fcfcb23c7",
        "gas": "0x1117e",
        "value": "0x0",
        "input": "0x3a3d56fa000000000000000000000000b7526572ffe56ab9d7489838bf2e18e3323b441a0000000000000000000000000000000000000000000000000000000000000001",
        "nonce": "0x7e",
        "chainId": "0x61"
      },
      "additionalContracts": [],
      "isFixedGasLimit": false
    },
    {
      "hash": "0x0d605e1fce24602f53badfe12ba45f6cd21dd049ed5902cb077c9c61b9b839b5",
      "transactionType": "CALL",
      "contractName": null,
      "contractAddress": "0xcfdc3bea04c36673a1eabf777647d38fcfcb23c7",
      "function": "setSelectorAllowed(address,bytes4,bool)",
      "arguments": [
        "0xD99D1c33F9fC3444f8101754aBC46c52416550D1",
        "0x38ed1739",
        "true"
      ],
      "transaction": {
        "from": "0xc8306a4a2da13f8e3c30d5096f19d5f01969aa7d",
        "to": "0xcfdc3bea04c36673a1eabf777647d38fcfcb23c7",
        "gas": "0x115d6",
        "value": "0x0",
        "input": "0x7a5a7c27000000000000000000000000d99d1c33f9fc3444f8101754abc46c52416550d138ed1739000000000000000000000000000000000000000000000000000000000000000000000000000000000000000000000000000000000000000000000001",
        "nonce": "0x7f",
        "chainId": "0x61"
      },
      "additionalContracts": [],
      "isFixedGasLimit": false
    },
    {
      "hash": "0x063a7d0b21bf67ecd1f49959a5372a7f07f757b6f88b4fc63f6f725fbcf08359",
      "transactionType": "CALL",
      "contractName": null,
      "contractAddress": "0xcfdc3bea04c36673a1eabf777647d38fcfcb23c7",
      "function": "setSelectorAllowed(address,bytes4,bool)",
      "arguments": [
        "0xD99D1c33F9fC3444f8101754aBC46c52416550D1",
        "0x8803dbee",
        "true"
      ],
      "transaction": {
        "from": "0xc8306a4a2da13f8e3c30d5096f19d5f01969aa7d",
        "to": "0xcfdc3bea04c36673a1eabf777647d38fcfcb23c7",
        "gas": "0x115d6",
        "value": "0x0",
        "input": "0x7a5a7c27000000000000000000000000d99d1c33f9fc3444f8101754abc46c52416550d18803dbee000000000000000000000000000000000000000000000000000000000000000000000000000000000000000000000000000000000000000000000001",
        "nonce": "0x80",
        "chainId": "0x61"
      },
      "additionalContracts": [],
      "isFixedGasLimit": false
    },
    {
      "hash": "0x27c4bd9384c663f66e08ac0c7f358f0d4a98b1a4abbc3e60a5b439a446a06510",
      "transactionType": "CALL",
      "contractName": null,
      "contractAddress": "0xcfdc3bea04c36673a1eabf777647d38fcfcb23c7",
      "function": "setSelectorAllowed(address,bytes4,bool)",
      "arguments": [
        "0xb7526572FFE56AB9D7489838Bf2E18e3323b441A",
        "0x0e752702",
        "true"
      ],
      "transaction": {
        "from": "0xc8306a4a2da13f8e3c30d5096f19d5f01969aa7d",
        "to": "0xcfdc3bea04c36673a1eabf777647d38fcfcb23c7",
        "gas": "0x115d6",
        "value": "0x0",
        "input": "0x7a5a7c27000000000000000000000000b7526572ffe56ab9d7489838bf2e18e3323b441a0e752702000000000000000000000000000000000000000000000000000000000000000000000000000000000000000000000000000000000000000000000001",
        "nonce": "0x81",
        "chainId": "0x61"
      },
      "additionalContracts": [],
      "isFixedGasLimit": false
    },
    {
      "hash": "0x7bf7573267e9bf7d559f8a5dace6f7cee26bed10175dd63428750c0505b2f871",
      "transactionType": "CALL",
      "contractName": null,
      "contractAddress": "0xcfdc3bea04c36673a1eabf777647d38fcfcb23c7",
      "function": "setTokenAllowed(address,bool)",
      "arguments": [
        "0xae13d989daC2f0dEbFf460aC112a837C89BAa7cd",
        "true"
      ],
      "transaction": {
        "from": "0xc8306a4a2da13f8e3c30d5096f19d5f01969aa7d",
        "to": "0xcfdc3bea04c36673a1eabf777647d38fcfcb23c7",
        "gas": "0x1112d",
        "value": "0x0",
        "input": "0x15f69012000000000000000000000000ae13d989dac2f0debff460ac112a837c89baa7cd0000000000000000000000000000000000000000000000000000000000000001",
        "nonce": "0x82",
        "chainId": "0x61"
      },
      "additionalContracts": [],
      "isFixedGasLimit": false
    },
    {
      "hash": "0xf16d2431bc409bbc8592d8ed384f332e727856766a1dc224fed60e0f9b60aed7",
      "transactionType": "CALL",
      "contractName": null,
      "contractAddress": "0xcfdc3bea04c36673a1eabf777647d38fcfcb23c7",
      "function": "setTargetAllowed(address,bool)",
      "arguments": [
        "0xae13d989daC2f0dEbFf460aC112a837C89BAa7cd",
        "true"
      ],
      "transaction": {
        "from": "0xc8306a4a2da13f8e3c30d5096f19d5f01969aa7d",
        "to": "0xcfdc3bea04c36673a1eabf777647d38fcfcb23c7",
        "gas": "0x1117e",
        "value": "0x0",
        "input": "0x3a3d56fa000000000000000000000000ae13d989dac2f0debff460ac112a837c89baa7cd0000000000000000000000000000000000000000000000000000000000000001",
        "nonce": "0x83",
        "chainId": "0x61"
      },
      "additionalContracts": [],
      "isFixedGasLimit": false
    },
    {
      "hash": "0x61a6c120ae1c827305dfb06422c2459d4ea52c0cf397decb51596d9a32e812eb",
      "transactionType": "CALL",
      "contractName": null,
      "contractAddress": "0xcfdc3bea04c36673a1eabf777647d38fcfcb23c7",
      "function": "setSelectorAllowed(address,bytes4,bool)",
      "arguments": [
        "0xae13d989daC2f0dEbFf460aC112a837C89BAa7cd",
        "0x095ea7b3",
        "true"
      ],
      "transaction": {
        "from": "0xc8306a4a2da13f8e3c30d5096f19d5f01969aa7d",
        "to": "0xcfdc3bea04c36673a1eabf777647d38fcfcb23c7",
        "gas": "0x115d6",
        "value": "0x0",
        "input": "0x7a5a7c27000000000000000000000000ae13d989dac2f0debff460ac112a837c89baa7cd095ea7b3000000000000000000000000000000000000000000000000000000000000000000000000000000000000000000000000000000000000000000000001",
        "nonce": "0x84",
        "chainId": "0x61"
      },
      "additionalContracts": [],
      "isFixedGasLimit": false
    },
    {
      "hash": "0x2e96b86e6e4ead0b9dc52b192c4c6ec74b88e3b12c43ca064c98a3132b9396fc",
      "transactionType": "CALL",
      "contractName": null,
      "contractAddress": "0xcfdc3bea04c36673a1eabf777647d38fcfcb23c7",
      "function": "setTokenAllowed(address,bool)",
      "arguments": [
        "0x337610d27c682E347C9cD60BD4b3b107C9d34dDd",
        "true"
      ],
      "transaction": {
        "from": "0xc8306a4a2da13f8e3c30d5096f19d5f01969aa7d",
        "to": "0xcfdc3bea04c36673a1eabf777647d38fcfcb23c7",
        "gas": "0x1112d",
        "value": "0x0",
        "input": "0x15f69012000000000000000000000000337610d27c682e347c9cd60bd4b3b107c9d34ddd0000000000000000000000000000000000000000000000000000000000000001",
        "nonce": "0x85",
        "chainId": "0x61"
      },
      "additionalContracts": [],
      "isFixedGasLimit": false
    },
    {
      "hash": "0x426411df915601c14d2d11426844196883120314038c1d999ab1873bf3a0702f",
      "transactionType": "CALL",
      "contractName": null,
      "contractAddress": "0xcfdc3bea04c36673a1eabf777647d38fcfcb23c7",
      "function": "setTargetAllowed(address,bool)",
      "arguments": [
        "0x337610d27c682E347C9cD60BD4b3b107C9d34dDd",
        "true"
      ],
      "transaction": {
        "from": "0xc8306a4a2da13f8e3c30d5096f19d5f01969aa7d",
        "to": "0xcfdc3bea04c36673a1eabf777647d38fcfcb23c7",
        "gas": "0x1117e",
        "value": "0x0",
        "input": "0x3a3d56fa000000000000000000000000337610d27c682e347c9cd60bd4b3b107c9d34ddd0000000000000000000000000000000000000000000000000000000000000001",
        "nonce": "0x86",
        "chainId": "0x61"
      },
      "additionalContracts": [],
      "isFixedGasLimit": false
    },
    {
      "hash": "0x26d81d98b4e681fc80f436cf2bcef57f4db783b0197927fdad3c965dc7e63b5e",
      "transactionType": "CALL",
      "contractName": null,
      "contractAddress": "0xcfdc3bea04c36673a1eabf777647d38fcfcb23c7",
      "function": "setSelectorAllowed(address,bytes4,bool)",
      "arguments": [
        "0x337610d27c682E347C9cD60BD4b3b107C9d34dDd",
        "0x095ea7b3",
        "true"
      ],
      "transaction": {
        "from": "0xc8306a4a2da13f8e3c30d5096f19d5f01969aa7d",
        "to": "0xcfdc3bea04c36673a1eabf777647d38fcfcb23c7",
        "gas": "0x115d6",
        "value": "0x0",
        "input": "0x7a5a7c27000000000000000000000000337610d27c682e347c9cd60bd4b3b107c9d34ddd095ea7b3000000000000000000000000000000000000000000000000000000000000000000000000000000000000000000000000000000000000000000000001",
        "nonce": "0x87",
        "chainId": "0x61"
      },
      "additionalContracts": [],
      "isFixedGasLimit": false
    },
    {
      "hash": "0x255a2fdc2097c95f5d5d3468b79e3f2616d2293fa69fc07696ce37408b074277",
      "transactionType": "CALL",
      "contractName": null,
      "contractAddress": "0xcfdc3bea04c36673a1eabf777647d38fcfcb23c7",
      "function": "setSpenderAllowed(address,address,bool)",
      "arguments": [
        "0xae13d989daC2f0dEbFf460aC112a837C89BAa7cd",
        "0xD99D1c33F9fC3444f8101754aBC46c52416550D1",
        "true"
      ],
      "transaction": {
        "from": "0xc8306a4a2da13f8e3c30d5096f19d5f01969aa7d",
        "to": "0xcfdc3bea04c36673a1eabf777647d38fcfcb23c7",
        "gas": "0x11693",
        "value": "0x0",
        "input": "0x871018a1000000000000000000000000ae13d989dac2f0debff460ac112a837c89baa7cd000000000000000000000000d99d1c33f9fc3444f8101754abc46c52416550d10000000000000000000000000000000000000000000000000000000000000001",
        "nonce": "0x88",
        "chainId": "0x61"
      },
      "additionalContracts": [],
      "isFixedGasLimit": false
    },
    {
      "hash": "0x980d85ba3ab9cf0113f24f05a0622de5545a3cebdb7bd845d419466f3ef289ea",
      "transactionType": "CALL",
      "contractName": null,
      "contractAddress": "0xcfdc3bea04c36673a1eabf777647d38fcfcb23c7",
      "function": "setSpenderAllowed(address,address,bool)",
      "arguments": [
        "0x337610d27c682E347C9cD60BD4b3b107C9d34dDd",
        "0xD99D1c33F9fC3444f8101754aBC46c52416550D1",
        "true"
      ],
      "transaction": {
        "from": "0xc8306a4a2da13f8e3c30d5096f19d5f01969aa7d",
        "to": "0xcfdc3bea04c36673a1eabf777647d38fcfcb23c7",
        "gas": "0x11693",
        "value": "0x0",
        "input": "0x871018a1000000000000000000000000337610d27c682e347c9cd60bd4b3b107c9d34ddd000000000000000000000000d99d1c33f9fc3444f8101754abc46c52416550d10000000000000000000000000000000000000000000000000000000000000001",
        "nonce": "0x89",
        "chainId": "0x61"
      },
      "additionalContracts": [],
      "isFixedGasLimit": false
    },
    {
      "hash": "0x180b26b32d24ab5a0fe27bfcfa89984fe37eca881a84b7c97ffea7203bfe707f",
      "transactionType": "CALL",
      "contractName": null,
      "contractAddress": "0xcfdc3bea04c36673a1eabf777647d38fcfcb23c7",
      "function": "setSpenderAllowed(address,address,bool)",
      "arguments": [
        "0x337610d27c682E347C9cD60BD4b3b107C9d34dDd",
        "0xb7526572FFE56AB9D7489838Bf2E18e3323b441A",
        "true"
      ],
      "transaction": {
        "from": "0xc8306a4a2da13f8e3c30d5096f19d5f01969aa7d",
        "to": "0xcfdc3bea04c36673a1eabf777647d38fcfcb23c7",
        "gas": "0x11693",
        "value": "0x0",
        "input": "0x871018a1000000000000000000000000337610d27c682e347c9cd60bd4b3b107c9d34ddd000000000000000000000000b7526572ffe56ab9d7489838bf2e18e3323b441a0000000000000000000000000000000000000000000000000000000000000001",
        "nonce": "0x8a",
        "chainId": "0x61"
      },
      "additionalContracts": [],
      "isFixedGasLimit": false
    },
    {
      "hash": "0x42fab8854a9f335a75a57dedee816115b2e61e7c5aab641cb1bfc2481faae73e",
      "transactionType": "CALL",
      "contractName": null,
      "contractAddress": "0xcfdc3bea04c36673a1eabf777647d38fcfcb23c7",
      "function": "setRouter(address)",
      "arguments": [
        "0xD99D1c33F9fC3444f8101754aBC46c52416550D1"
      ],
      "transaction": {
        "from": "0xc8306a4a2da13f8e3c30d5096f19d5f01969aa7d",
        "to": "0xcfdc3bea04c36673a1eabf777647d38fcfcb23c7",
        "gas": "0xff43",
        "value": "0x0",
        "input": "0xc0d78655000000000000000000000000d99d1c33f9fc3444f8101754abc46c52416550d1",
        "nonce": "0x8b",
        "chainId": "0x61"
      },
      "additionalContracts": [],
      "isFixedGasLimit": false
    }
  ],
  "receipts": [
    {
      "status": "0x1",
      "cumulativeGasUsed": "0x2828c",
      "logs": [
        {
          "address": "0xcfdc3bea04c36673a1eabf777647d38fcfcb23c7",
          "topics": [
            "0xd5cc69c3fd825b34b369396f105ab7c13b09d888d513418c0e02a42db3133999",
            "0x000000000000000000000000d99d1c33f9fc3444f8101754abc46c52416550d1"
          ],
          "data": "0x0000000000000000000000000000000000000000000000000000000000000001",
          "blockHash": "0xb5841400e046cb0d581a29b8d500b43aa9ba07ad34b88e5c7b0dc96c43ff9d55",
          "blockNumber": "0x564e719",
          "blockTimestamp": "0x6991bafa",
          "transactionHash": "0x374872b51638ad84062045990ae3848f09f6e6fbe3b774b5162ea5fa51574af5",
          "transactionIndex": "0x1",
          "logIndex": "0x5",
          "removed": false
        }
      ],
      "logsBloom": "0x00000000000000000002000000000000000040000000000000000000000000000000000000000000000000000000000000080000000000000000000000000000004000000000000000000000800000000000000000000000000000000000000000000000000000000000000000000000000000000000000000000000000000000000000000000000000000000000008000400000000000000000000000000000000000000000000000000000000000000000000000000000000000000000000000000000080000000000000000000000000000000000000000000000000000000000000000000000000000000000000000000000000000000100000000000000",
      "type": "0x2",
      "transactionHash": "0x374872b51638ad84062045990ae3848f09f6e6fbe3b774b5162ea5fa51574af5",
      "transactionIndex": "0x1",
      "blockHash": "0xb5841400e046cb0d581a29b8d500b43aa9ba07ad34b88e5c7b0dc96c43ff9d55",
      "blockNumber": "0x564e719",
      "gasUsed": "0xbb01",
      "effectiveGasPrice": "0x5f5e100",
      "from": "0xc8306a4a2da13f8e3c30d5096f19d5f01969aa7d",
      "to": "0xcfdc3bea04c36673a1eabf777647d38fcfcb23c7",
      "contractAddress": null
    },
    {
      "status": "0x1",
      "cumulativeGasUsed": "0x33d8d",
      "logs": [
        {
          "address": "0xcfdc3bea04c36673a1eabf777647d38fcfcb23c7",
          "topics": [
            "0xd5cc69c3fd825b34b369396f105ab7c13b09d888d513418c0e02a42db3133999",
            "0x000000000000000000000000b7526572ffe56ab9d7489838bf2e18e3323b441a"
          ],
          "data": "0x0000000000000000000000000000000000000000000000000000000000000001",
          "blockHash": "0xb5841400e046cb0d581a29b8d500b43aa9ba07ad34b88e5c7b0dc96c43ff9d55",
          "blockNumber": "0x564e719",
          "blockTimestamp": "0x6991bafa",
          "transactionHash": "0x8a6ed98b91a82ff39da7ca19ac46f81c3f7264dbc1782a261ff98abf3c33f3e1",
          "transactionIndex": "0x2",
          "logIndex": "0x6",
          "removed": false
        }
      ],
      "logsBloom": "0x00000000000000000002000000000000000000000000000040000000000000000000000000000000000000000000000000000000000000000000000000000000000000000000000000000000800000000000000000000010000000000000000000000000000000000000000000000000000000000000000000000000000000000000000000000000000000000000008000400000000000000000000000000000000000000000000000000000000000000000000000000000020000000000000000000000080000000000000000000000000000000000000000000000000000000000000000000000000000000000000000000000000000000100000000000000",
      "type": "0x2",
      "transactionHash": "0x8a6ed98b91a82ff39da7ca19ac46f81c3f7264dbc1782a261ff98abf3c33f3e1",
      "transactionIndex": "0x2",
      "blockHash": "0xb5841400e046cb0d581a29b8d500b43aa9ba07ad34b88e5c7b0dc96c43ff9d55",
      "blockNumber": "0x564e719",
      "gasUsed": "0xbb01",
      "effectiveGasPrice": "0x5f5e100",
      "from": "0xc8306a4a2da13f8e3c30d5096f19d5f01969aa7d",
      "to": "0xcfdc3bea04c36673a1eabf777647d38fcfcb23c7",
      "contractAddress": null
    },
    {
      "status": "0x1",
      "cumulativeGasUsed": "0x3fb87",
      "logs": [
        {
          "address": "0xcfdc3bea04c36673a1eabf777647d38fcfcb23c7",
          "topics": [
            "0xc8feb62b1b295ccec8d4fcabfae6673ec51dd67cf746942a19f162afa891a9f4",
            "0x000000000000000000000000d99d1c33f9fc3444f8101754abc46c52416550d1",
            "0x38ed173900000000000000000000000000000000000000000000000000000000"
          ],
          "data": "0x0000000000000000000000000000000000000000000000000000000000000001",
          "blockHash": "0xb5841400e046cb0d581a29b8d500b43aa9ba07ad34b88e5c7b0dc96c43ff9d55",
          "blockNumber": "0x564e719",
          "blockTimestamp": "0x6991bafa",
          "transactionHash": "0x0d605e1fce24602f53badfe12ba45f6cd21dd049ed5902cb077c9c61b9b839b5",
          "transactionIndex": "0x3",
          "logIndex": "0x7",
          "removed": false
        }
      ],
      "logsBloom": "0x00000000000000000000000000000000000040000000000000000000000000000000000040000000000000000000000000080000000000000000000000000000004000008000000000000000000000000000000000000000000000000000000000000000000000000000000000000000000000000000000000000000000000000000000000000000000000000000008000400000000000000000000000000000000000000000000000000000000000000000002000000000000000000000000000000000080200000000000000000000000020000000000000000000000100000000000000000000000000000000000000000000000000000000000000000000",
      "type": "0x2",
      "transactionHash": "0x0d605e1fce24602f53badfe12ba45f6cd21dd049ed5902cb077c9c61b9b839b5",
      "transactionIndex": "0x3",
      "blockHash": "0xb5841400e046cb0d581a29b8d500b43aa9ba07ad34b88e5c7b0dc96c43ff9d55",
      "blockNumber": "0x564e719",
      "gasUsed": "0xbdfa",
      "effectiveGasPrice": "0x5f5e100",
      "from": "0xc8306a4a2da13f8e3c30d5096f19d5f01969aa7d",
      "to": "0xcfdc3bea04c36673a1eabf777647d38fcfcb23c7",
      "contractAddress": null
    },
    {
      "status": "0x1",
      "cumulativeGasUsed": "0x4b981",
      "logs": [
        {
          "address": "0xcfdc3bea04c36673a1eabf777647d38fcfcb23c7",
          "topics": [
            "0xc8feb62b1b295ccec8d4fcabfae6673ec51dd67cf746942a19f162afa891a9f4",
            "0x000000000000000000000000d99d1c33f9fc3444f8101754abc46c52416550d1",
            "0x8803dbee00000000000000000000000000000000000000000000000000000000"
          ],
          "data": "0x0000000000000000000000000000000000000000000000000000000000000001",
          "blockHash": "0xb5841400e046cb0d581a29b8d500b43aa9ba07ad34b88e5c7b0dc96c43ff9d55",
          "blockNumber": "0x564e719",
          "blockTimestamp": "0x6991bafa",
          "transactionHash": "0x27c4bd9384c663f66e08ac0c7f358f0d4a98b1a4abbc3e60a5b439a446a06510",
          "transactionIndex": "0x4",
          "logIndex": "0x8",
          "removed": false
        }
      ],
      "logsBloom": "0x00000000000000000000000000000000000040000000000000000000000000000000000040000000000000000000000000080000000000000000000000000000004000000000000000000000000000000000000000000000000000000000000000000000000000000000000000000000000000000000000000000000000000000000000000080000000000000000008000400000000000000000000000000000000000000000000100000000000000000000002000000000000000000000000000000000080200000000000000000000000000000000000000000000000000000000000000000000000000000000000000000000000000040000000000000000",
      "type": "0x2",
      "transactionHash": "0x27c4bd9384c663f66e08ac0c7f358f0d4a98b1a4abbc3e60a5b439a446a06510",
      "transactionIndex": "0x4",
      "blockHash": "0xb5841400e046cb0d581a29b8d500b43aa9ba07ad34b88e5c7b0dc96c43ff9d55",
      "blockNumber": "0x564e719",
      "gasUsed": "0xbdfa",
      "effectiveGasPrice": "0x5f5e100",
      "from": "0xc8306a4a2da13f8e3c30d5096f19d5f01969aa7d",
      "to": "0xcfdc3bea04c36673a1eabf777647d38fcfcb23c7",
      "contractAddress": null
    },
    {
      "status": "0x1",
      "cumulativeGasUsed": "0x5777b",
      "logs": [
        {
          "address": "0xcfdc3bea04c36673a1eabf777647d38fcfcb23c7",
          "topics": [
            "0xc8feb62b1b295ccec8d4fcabfae6673ec51dd67cf746942a19f162afa891a9f4",
            "0x000000000000000000000000b7526572ffe56ab9d7489838bf2e18e3323b441a",
            "0x0e75270200000000000000000000000000000000000000000000000000000000"
          ],
          "data": "0x0000000000000000000000000000000000000000000000000000000000000001",
          "blockHash": "0xb5841400e046cb0d581a29b8d500b43aa9ba07ad34b88e5c7b0dc96c43ff9d55",
          "blockNumber": "0x564e719",
          "blockTimestamp": "0x6991bafa",
          "transactionHash": "0x063a7d0b21bf67ecd1f49959a5372a7f07f757b6f88b4fc63f6f725fbcf08359",
          "transactionIndex": "0x5",
          "logIndex": "0x9",
          "removed": false
        }
      ],
      "logsBloom": "0x00000000000000000004000000000000000000000000000040000000000000000000000040000000000000000000000000000000000000000000000000000000000000000000000000000000000000000000000000000010000000000000000000000000000000000000000000000000000000000000000000000000000000000000000000000000000000000000008000400000000000000000000000000000000000000000000000000000000000000000002000000000020000000000000000000000080200000001000000000000000000000000000000000000000000000000000000000000000000000000000000000000000004000000000000000000",
      "type": "0x2",
      "transactionHash": "0x063a7d0b21bf67ecd1f49959a5372a7f07f757b6f88b4fc63f6f725fbcf08359",
      "transactionIndex": "0x5",
      "blockHash": "0xb5841400e046cb0d581a29b8d500b43aa9ba07ad34b88e5c7b0dc96c43ff9d55",
      "blockNumber": "0x564e719",
      "gasUsed": "0xbdfa",
      "effectiveGasPrice": "0x5f5e100",
      "from": "0xc8306a4a2da13f8e3c30d5096f19d5f01969aa7d",
      "to": "0xcfdc3bea04c36673a1eabf777647d38fcfcb23c7",
      "contractAddress": null
    },
    {
      "status": "0x1",
      "cumulativeGasUsed": "0x63245",
      "logs": [
        {
          "address": "0xcfdc3bea04c36673a1eabf777647d38fcfcb23c7",
          "topics": [
            "0xdcb2804db02b95bdd568fd11a31c5577ffdf36538c0f670e92930d9c1e8518ab",
            "0x000000000000000000000000ae13d989dac2f0debff460ac112a837c89baa7cd"
          ],
          "data": "0x0000000000000000000000000000000000000000000000000000000000000001",
          "blockHash": "0xb5841400e046cb0d581a29b8d500b43aa9ba07ad34b88e5c7b0dc96c43ff9d55",
          "blockNumber": "0x564e719",
          "blockTimestamp": "0x6991bafa",
          "transactionHash": "0x7bf7573267e9bf7d559f8a5dace6f7cee26bed10175dd63428750c0505b2f871",
          "transactionIndex": "0x6",
          "logIndex": "0xa",
          "removed": false
        }
      ],
      "logsBloom": "0x00000000000000000000000000000000000000000000002000000000000000000002000000000000010000000000000000000000000000000000000000000000000000000000000000000000000004000000000000000000000000000000000000000000000000000000000000000000000000000000000000000000000000000000000000000000000000000000008000400000000000000000000000000000000000000000000000000000000000000000000000000000000000000000000000000000080000000000000000000000000000000000000000000000010001000000000000000000000000000000000000000000000000000000000000000000",
      "type": "0x2",
      "transactionHash": "0x7bf7573267e9bf7d559f8a5dace6f7cee26bed10175dd63428750c0505b2f871",
      "transactionIndex": "0x6",
      "blockHash": "0xb5841400e046cb0d581a29b8d500b43aa9ba07ad34b88e5c7b0dc96c43ff9d55",
      "blockNumber": "0x564e719",
      "gasUsed": "0xbaca",
      "effectiveGasPrice": "0x5f5e100",
      "from": "0xc8306a4a2da13f8e3c30d5096f19d5f01969aa7d",
      "to": "0xcfdc3bea04c36673a1eabf777647d38fcfcb23c7",
      "contractAddress": null
    },
    {
      "status": "0x1",
      "cumulativeGasUsed": "0x6ed46",
      "logs": [
        {
          "address": "0xcfdc3bea04c36673a1eabf777647d38fcfcb23c7",
          "topics": [
            "0xd5cc69c3fd825b34b369396f105ab7c13b09d888d513418c0e02a42db3133999",
            "0x000000000000000000000000ae13d989dac2f0debff460ac112a837c89baa7cd"
          ],
          "data": "0x0000000000000000000000000000000000000000000000000000000000000001",
          "blockHash": "0xb5841400e046cb0d581a29b8d500b43aa9ba07ad34b88e5c7b0dc96c43ff9d55",
          "blockNumber": "0x564e719",
          "blockTimestamp": "0x6991bafa",
          "transactionHash": "0x2e96b86e6e4ead0b9dc52b192c4c6ec74b88e3b12c43ca064c98a3132b9396fc",
          "transactionIndex": "0x7",
          "logIndex": "0xb",
          "removed": false
        }
      ],
      "logsBloom": "0x00000000000000000002000000000000000000000000002000000000000000000000000000000000000000000000000000000000000000000000000000000000000000000000000000000000800004000000000000000000000000000000000000000000000000000000000000000000000000000000000000000000000000000000000000000000000000000000008000400000000000000000000000000000000000000000000000000000000000000000000000000000000000000000000000000000080000000000000000000000000000000000000000000000000001000000000000000000000000000000000000000000000000000100000000000000",
      "type": "0x2",
      "transactionHash": "0x2e96b86e6e4ead0b9dc52b192c4c6ec74b88e3b12c43ca064c98a3132b9396fc",
      "transactionIndex": "0x7",
      "blockHash": "0xb5841400e046cb0d581a29b8d500b43aa9ba07ad34b88e5c7b0dc96c43ff9d55",
      "blockNumber": "0x564e719",
      "gasUsed": "0xbb01",
      "effectiveGasPrice": "0x5f5e100",
      "from": "0xc8306a4a2da13f8e3c30d5096f19d5f01969aa7d",
      "to": "0xcfdc3bea04c36673a1eabf777647d38fcfcb23c7",
      "contractAddress": null
    },
    {
      "status": "0x1",
      "cumulativeGasUsed": "0x7ab40",
      "logs": [
        {
          "address": "0xcfdc3bea04c36673a1eabf777647d38fcfcb23c7",
          "topics": [
            "0xc8feb62b1b295ccec8d4fcabfae6673ec51dd67cf746942a19f162afa891a9f4",
            "0x000000000000000000000000ae13d989dac2f0debff460ac112a837c89baa7cd",
            "0x095ea7b300000000000000000000000000000000000000000000000000000000"
          ],
          "data": "0x0000000000000000000000000000000000000000000000000000000000000001",
          "blockHash": "0xb5841400e046cb0d581a29b8d500b43aa9ba07ad34b88e5c7b0dc96c43ff9d55",
          "blockNumber": "0x564e719",
          "blockTimestamp": "0x6991bafa",
          "transactionHash": "0x61a6c120ae1c827305dfb06422c2459d4ea52c0cf397decb51596d9a32e812eb",
          "transactionIndex": "0x8",
          "logIndex": "0xc",
          "removed": false
        }
      ],
      "logsBloom": "0x00000000000000000000000000000000000000000000002000000000000000000000000040000000000000000400000000000000000000000008000000000000000000000000000000000000000004000000000000000000000000000000000000000000000000000000000000000000000000000000000000000000000000000000000000000000000000000000008000400000000000000000000000000000000000000000000000000000000000000000002000000000000000000000000000000008080200000000000000000000000000000000000000000000000001000000000000000000000000000000000000000000000000000000000000000000",
      "type": "0x2",
      "transactionHash": "0x61a6c120ae1c827305dfb06422c2459d4ea52c0cf397decb51596d9a32e812eb",
      "transactionIndex": "0x8",
      "blockHash": "0xb5841400e046cb0d581a29b8d500b43aa9ba07ad34b88e5c7b0dc96c43ff9d55",
      "blockNumber": "0x564e719",
      "gasUsed": "0xbdfa",
      "effectiveGasPrice": "0x5f5e100",
      "from": "0xc8306a4a2da13f8e3c30d5096f19d5f01969aa7d",
      "to": "0xcfdc3bea04c36673a1eabf777647d38fcfcb23c7",
      "contractAddress": null
    },
    {
      "status": "0x1",
      "cumulativeGasUsed": "0x8660a",
      "logs": [
        {
          "address": "0xcfdc3bea04c36673a1eabf777647d38fcfcb23c7",
          "topics": [
            "0xdcb2804db02b95bdd568fd11a31c5577ffdf36538c0f670e92930d9c1e8518ab",
            "0x000000000000000000000000337610d27c682e347c9cd60bd4b3b107c9d34ddd"
          ],
          "data": "0x0000000000000000000000000000000000000000000000000000000000000001",
          "blockHash": "0xb5841400e046cb0d581a29b8d500b43aa9ba07ad34b88e5c7b0dc96c43ff9d55",
          "blockNumber": "0x564e719",
          "blockTimestamp": "0x6991bafa",
          "transactionHash": "0x26d81d98b4e681fc80f436cf2bcef57f4db783b0197927fdad3c965dc7e63b5e",
          "transactionIndex": "0x9",
          "logIndex": "0xd",
          "removed": false
        }
      ],
      "logsBloom": "0x00000000000000000000000000000000000000000000000000000000000000000002000000000000010000000000000000000000000000000000000000100000000000000000000000000000000000000000000000000000000000000001000000000000000000000000000000000000000000000000000000000000000000000000000000000000000000000000008000400000000000000000000000000000000000000000000000000000000000000000000000000000000000000000000000000000080000000000000000000000000000000000000000000000010000000000000000000000000000000000000000000000000000000000000000000000",
      "type": "0x2",
      "transactionHash": "0x26d81d98b4e681fc80f436cf2bcef57f4db783b0197927fdad3c965dc7e63b5e",
      "transactionIndex": "0x9",
      "blockHash": "0xb5841400e046cb0d581a29b8d500b43aa9ba07ad34b88e5c7b0dc96c43ff9d55",
      "blockNumber": "0x564e719",
      "gasUsed": "0xbaca",
      "effectiveGasPrice": "0x5f5e100",
      "from": "0xc8306a4a2da13f8e3c30d5096f19d5f01969aa7d",
      "to": "0xcfdc3bea04c36673a1eabf777647d38fcfcb23c7",
      "contractAddress": null
    },
    {
      "status": "0x1",
      "cumulativeGasUsed": "0x9210b",
      "logs": [
        {
          "address": "0xcfdc3bea04c36673a1eabf777647d38fcfcb23c7",
          "topics": [
            "0xd5cc69c3fd825b34b369396f105ab7c13b09d888d513418c0e02a42db3133999",
            "0x000000000000000000000000337610d27c682e347c9cd60bd4b3b107c9d34ddd"
          ],
          "data": "0x0000000000000000000000000000000000000000000000000000000000000001",
          "blockHash": "0xb5841400e046cb0d581a29b8d500b43aa9ba07ad34b88e5c7b0dc96c43ff9d55",
          "blockNumber": "0x564e719",
          "blockTimestamp": "0x6991bafa",
          "transactionHash": "0xf16d2431bc409bbc8592d8ed384f332e727856766a1dc224fed60e0f9b60aed7",
          "transactionIndex": "0xa",
          "logIndex": "0xe",
          "removed": false
        }
      ],
      "logsBloom": "0x00000000000000000002000000000000000000000000000000000000000000000000000000000000000000000000000000000000000000000000000000100000000000000000000000000000800000000000000000000000000000000001000000000000000000000000000000000000000000000000000000000000000000000000000000000000000000000000008000400000000000000000000000000000000000000000000000000000000000000000000000000000000000000000000000000000080000000000000000000000000000000000000000000000000000000000000000000000000000000000000000000000000000000100000000000000",
      "type": "0x2",
      "transactionHash": "0xf16d2431bc409bbc8592d8ed384f332e727856766a1dc224fed60e0f9b60aed7",
      "transactionIndex": "0xa",
      "blockHash": "0xb5841400e046cb0d581a29b8d500b43aa9ba07ad34b88e5c7b0dc96c43ff9d55",
      "blockNumber": "0x564e719",
      "gasUsed": "0xbb01",
      "effectiveGasPrice": "0x5f5e100",
      "from": "0xc8306a4a2da13f8e3c30d5096f19d5f01969aa7d",
      "to": "0xcfdc3bea04c36673a1eabf777647d38fcfcb23c7",
      "contractAddress": null
    },
    {
      "status": "0x1",
      "cumulativeGasUsed": "0x9df05",
      "logs": [
        {
          "address": "0xcfdc3bea04c36673a1eabf777647d38fcfcb23c7",
          "topics": [
            "0xc8feb62b1b295ccec8d4fcabfae6673ec51dd67cf746942a19f162afa891a9f4",
            "0x000000000000000000000000337610d27c682e347c9cd60bd4b3b107c9d34ddd",
            "0x095ea7b300000000000000000000000000000000000000000000000000000000"
          ],
          "data": "0x0000000000000000000000000000000000000000000000000000000000000001",
          "blockHash": "0xb5841400e046cb0d581a29b8d500b43aa9ba07ad34b88e5c7b0dc96c43ff9d55",
          "blockNumber": "0x564e719",
          "blockTimestamp": "0x6991bafa",
          "transactionHash": "0x255a2fdc2097c95f5d5d3468b79e3f2616d2293fa69fc07696ce37408b074277",
          "transactionIndex": "0xb",
          "logIndex": "0xf",
          "removed": false
        }
      ],
      "logsBloom": "0x00000000000000000000000000000000000000000000000000000000000000000000000040000000000000000400000000000000000000000008000000100000000000000000000000000000000000000000000000000000000000000001000000000000000000000000000000000000000000000000000000000000000000000000000000000000000000000000008000400000000000000000000000000000000000000000000000000000000000000000002000000000000000000000000000000008080200000000000000000000000000000000000000000000000000000000000000000000000000000000000000000000000000000000000000000000",
      "type": "0x2",
      "transactionHash": "0x255a2fdc2097c95f5d5d3468b79e3f2616d2293fa69fc07696ce37408b074277",
      "transactionIndex": "0xb",
      "blockHash": "0xb5841400e046cb0d581a29b8d500b43aa9ba07ad34b88e5c7b0dc96c43ff9d55",
      "blockNumber": "0x564e719",
      "gasUsed": "0xbdfa",
      "effectiveGasPrice": "0x5f5e100",
      "from": "0xc8306a4a2da13f8e3c30d5096f19d5f01969aa7d",
      "to": "0xcfdc3bea04c36673a1eabf777647d38fcfcb23c7",
      "contractAddress": null
    },
    {
      "status": "0x1",
      "cumulativeGasUsed": "0xa9d80",
      "logs": [
        {
          "address": "0xcfdc3bea04c36673a1eabf777647d38fcfcb23c7",
          "topics": [
            "0x95c087089192bf9794af589e4c80ce5881b2309bf8e2a09281a94db4896bd41d",
            "0x000000000000000000000000ae13d989dac2f0debff460ac112a837c89baa7cd",
            "0x000000000000000000000000d99d1c33f9fc3444f8101754abc46c52416550d1"
          ],
          "data": "0x0000000000000000000000000000000000000000000000000000000000000001",
          "blockHash": "0xb5841400e046cb0d581a29b8d500b43aa9ba07ad34b88e5c7b0dc96c43ff9d55",
          "blockNumber": "0x564e719",
          "blockTimestamp": "0x6991bafa",
          "transactionHash": "0x426411df915601c14d2d11426844196883120314038c1d999ab1873bf3a0702f",
          "transactionIndex": "0xc",
          "logIndex": "0x10",
          "removed": false
        }
      ],
      "logsBloom": "0x00000000000000000000000000000000000040000000002000000000000000000000000000000000000000000000000000080000000000000000000000000000004000000000000000000000000004000000000000000000000000008000000000000000000000000000000000000000000000000000000000000000000000000000000000000000000000000000008000400000000000000000000000000000000000000000000000000000000000000000000000000000000000000000000000000000080400000000000000000000000000000000000000000000000001000000000000000000000000000000000000000000000000000000010000000000",
      "type": "0x2",
      "transactionHash": "0x426411df915601c14d2d11426844196883120314038c1d999ab1873bf3a0702f",
      "transactionIndex": "0xc",
      "blockHash": "0xb5841400e046cb0d581a29b8d500b43aa9ba07ad34b88e5c7b0dc96c43ff9d55",
      "blockNumber": "0x564e719",
      "gasUsed": "0xbe7b",
      "effectiveGasPrice": "0x5f5e100",
      "from": "0xc8306a4a2da13f8e3c30d5096f19d5f01969aa7d",
      "to": "0xcfdc3bea04c36673a1eabf777647d38fcfcb23c7",
      "contractAddress": null
    },
    {
      "status": "0x1",
      "cumulativeGasUsed": "0xb5bfb",
      "logs": [
        {
          "address": "0xcfdc3bea04c36673a1eabf777647d38fcfcb23c7",
          "topics": [
            "0x95c087089192bf9794af589e4c80ce5881b2309bf8e2a09281a94db4896bd41d",
            "0x000000000000000000000000337610d27c682e347c9cd60bd4b3b107c9d34ddd",
            "0x000000000000000000000000d99d1c33f9fc3444f8101754abc46c52416550d1"
          ],
          "data": "0x0000000000000000000000000000000000000000000000000000000000000001",
          "blockHash": "0xb5841400e046cb0d581a29b8d500b43aa9ba07ad34b88e5c7b0dc96c43ff9d55",
          "blockNumber": "0x564e719",
          "blockTimestamp": "0x6991bafa",
          "transactionHash": "0x180b26b32d24ab5a0fe27bfcfa89984fe37eca881a84b7c97ffea7203bfe707f",
          "transactionIndex": "0xd",
          "logIndex": "0x11",
          "removed": false
        }
      ],
      "logsBloom": "0x00000000000000000000000000000000000040000000000000000000000000000000000000000000000000000000000000080000000000000000000000100000004000000000000000000000000000000000000000000000000000008001000000000000000000000000000000000000000000000000000000000000000000000000000000000000000000000000008000400000000000000000000000000000000000000000000000000000000000000000000000000000000000000000000000000000080400000000000000000000000000000000000000000000000000000000000000000000000000000000000000000000000000000000010000000000",
      "type": "0x2",
      "transactionHash": "0x180b26b32d24ab5a0fe27bfcfa89984fe37eca881a84b7c97ffea7203bfe707f",
      "transactionIndex": "0xd",
      "blockHash": "0xb5841400e046cb0d581a29b8d500b43aa9ba07ad34b88e5c7b0dc96c43ff9d55",
      "blockNumber": "0x564e719",
      "gasUsed": "0xbe7b",
      "effectiveGasPrice": "0x5f5e100",
      "from": "0xc8306a4a2da13f8e3c30d5096f19d5f01969aa7d",
      "to": "0xcfdc3bea04c36673a1eabf777647d38fcfcb23c7",
      "contractAddress": null
    },
    {
      "status": "0x1",
      "cumulativeGasUsed": "0xc1a76",
      "logs": [
        {
          "address": "0xcfdc3bea04c36673a1eabf777647d38fcfcb23c7",
          "topics": [
            "0x95c087089192bf9794af589e4c80ce5881b2309bf8e2a09281a94db4896bd41d",
            "0x000000000000000000000000337610d27c682e347c9cd60bd4b3b107c9d34ddd",
            "0x000000000000000000000000b7526572ffe56ab9d7489838bf2e18e3323b441a"
          ],
          "data": "0x0000000000000000000000000000000000000000000000000000000000000001",
          "blockHash": "0xb5841400e046cb0d581a29b8d500b43aa9ba07ad34b88e5c7b0dc96c43ff9d55",
          "blockNumber": "0x564e719",
          "blockTimestamp": "0x6991bafa",
          "transactionHash": "0x42fab8854a9f335a75a57dedee816115b2e61e7c5aab641cb1bfc2481faae73e",
          "transactionIndex": "0xe",
          "logIndex": "0x12",
          "removed": false
        }
      ],
      "logsBloom": "0x00000000000000000000000000000000000000000000000040000000000000000000000000000000000000000000000000000000000000000000000000100000000000000000000000000000000000000000000000000010000000008001000000000000000000000000000000000000000000000000000000000000000000000000000000000000000000000000008000400000000000000000000000000000000000000000000000000000000000000000000000000000020000000000000000000000080400000000000000000000000000000000000000000000000000000000000000000000000000000000000000000000000000000000010000000000",
      "type": "0x2",
      "transactionHash": "0x42fab8854a9f335a75a57dedee816115b2e61e7c5aab641cb1bfc2481faae73e",
      "transactionIndex": "0xe",
      "blockHash": "0xb5841400e046cb0d581a29b8d500b43aa9ba07ad34b88e5c7b0dc96c43ff9d55",
      "blockNumber": "0x564e719",
      "gasUsed": "0xbe7b",
      "effectiveGasPrice": "0x5f5e100",
      "from": "0xc8306a4a2da13f8e3c30d5096f19d5f01969aa7d",
      "to": "0xcfdc3bea04c36673a1eabf777647d38fcfcb23c7",
      "contractAddress": null
    },
    {
      "status": "0x1",
      "cumulativeGasUsed": "0xcd345",
      "logs": [
        {
          "address": "0xcfdc3bea04c36673a1eabf777647d38fcfcb23c7",
          "topics": [
            "0x7aed1d3e8155a07ccf395e44ea3109a0e2d6c9b29bbbe9f142d9790596f4dc80",
            "0x000000000000000000000000d99d1c33f9fc3444f8101754abc46c52416550d1"
          ],
          "data": "0x",
          "blockHash": "0xb5841400e046cb0d581a29b8d500b43aa9ba07ad34b88e5c7b0dc96c43ff9d55",
          "blockNumber": "0x564e719",
          "blockTimestamp": "0x6991bafa",
          "transactionHash": "0x980d85ba3ab9cf0113f24f05a0622de5545a3cebdb7bd845d419466f3ef289ea",
          "transactionIndex": "0xf",
          "logIndex": "0x13",
          "removed": false
        }
      ],
      "logsBloom": "0x00000000000000000000000000000000000040000000000000000000000000000000000000000000000000000000000000080000000000000000000000000000004000000000000000000000000000000000000000000000000000000000000000000000000000000000000000000000000000000000000000000000000000000000000000000000000000000000008000400000400000000000000001000040000000000000000000000000000000000000000000000000000000000000000000000000080000000000000000000000000000000000000000000000000000000000000000000000000000000000000000000000000000000000000000000000",
      "type": "0x2",
      "transactionHash": "0x980d85ba3ab9cf0113f24f05a0622de5545a3cebdb7bd845d419466f3ef289ea",
      "transactionIndex": "0xf",
      "blockHash": "0xb5841400e046cb0d581a29b8d500b43aa9ba07ad34b88e5c7b0dc96c43ff9d55",
      "blockNumber": "0x564e719",
      "gasUsed": "0xb8cf",
      "effectiveGasPrice": "0x5f5e100",
      "from": "0xc8306a4a2da13f8e3c30d5096f19d5f01969aa7d",
      "to": "0xcfdc3bea04c36673a1eabf777647d38fcfcb23c7",
      "contractAddress": null
    }
  ],
  "libraries": [],
  "pending": [],
  "returns": {},
  "timestamp": 1771158266166,
  "chain": 97,
  "commit": "b61a679"
}