{
  "transactions": [
    {
      "hash": "0xf4ed860670c2e7d44e5b1a0e9c1293a9032e35ec2fe484b184437ea0ace867fc",
      "transactionType": "CALL",
      "contractName": null,
      "contractAddress": "0x66fca14edb48b6a67d6036e40a88e43cdc9f50ae",
      "function": "setTargetAllowed(address,bool)",
      "arguments": [
        "0xD99D1c33F9fC3444f8101754aBC46c52416550D1",
        "true"
      ],
      "transaction": {
        "from": "0xc8306a4a2da13f8e3c30d5096f19d5f01969aa7d",
        "to": "0x66fca14edb48b6a67d6036e40a88e43cdc9f50ae",
        "gas": "0x1117e",
        "value": "0x0",
        "input": "0x3a3d56fa000000000000000000000000d99d1c33f9fc3444f8101754abc46c52416550d10000000000000000000000000000000000000000000000000000000000000001",
        "nonce": "0xa",
        "chainId": "0x61"
      },
      "additionalContracts": [],
      "isFixedGasLimit": false
    },
    {
      "hash": "0xf0efdc484095ebd069144f6f9e2c91844ab68f1b5a6674e7db99c1ccd5bd7735",
      "transactionType": "CALL",
      "contractName": null,
      "contractAddress": "0x66fca14edb48b6a67d6036e40a88e43cdc9f50ae",
      "function": "setSelectorAllowed(address,bytes4,bool)",
      "arguments": [
        "0xD99D1c33F9fC3444f8101754aBC46c52416550D1",
        "0x38ed1739",
        "true"
      ],
      "transaction": {
        "from": "0xc8306a4a2da13f8e3c30d5096f19d5f01969aa7d",
        "to": "0x66fca14edb48b6a67d6036e40a88e43cdc9f50ae",
        "gas": "0x1060b",
        "value": "0x0",
        "input": "0x7a5a7c27000000000000000000000000d99d1c33f9fc3444f8101754abc46c52416550d138ed1739000000000000000000000000000000000000000000000000000000000000000000000000000000000000000000000000000000000000000000000001",
        "nonce": "0xb",
        "chainId": "0x61"
      },
      "additionalContracts": [],
      "isFixedGasLimit": false
    },
    {
      "hash": "0xd0d521b2cce908a17480f9f19ba6420721ddd72cdb278d148a3246d13c93c0e6",
      "transactionType": "CALL",
      "contractName": null,
      "contractAddress": "0x66fca14edb48b6a67d6036e40a88e43cdc9f50ae",
      "function": "setTokenAllowed(address,bool)",
      "arguments": [
        "0xae13d989daC2f0dEbFf460aC112a837C89BAa7cd",
        "true"
      ],
      "transaction": {
        "from": "0xc8306a4a2da13f8e3c30d5096f19d5f01969aa7d",
        "to": "0x66fca14edb48b6a67d6036e40a88e43cdc9f50ae",
        "gas": "0x1112d",
        "value": "0x0",
        "input": "0x15f69012000000000000000000000000ae13d989dac2f0debff460ac112a837c89baa7cd0000000000000000000000000000000000000000000000000000000000000001",
        "nonce": "0xc",
        "chainId": "0x61"
      },
      "additionalContracts": [],
      "isFixedGasLimit": false
    },
    {
      "hash": "0xf819329ea3f663b5239221c366f3365c92776f4356f7b3068cb71fec926b4a47",
      "transactionType": "CALL",
      "contractName": null,
      "contractAddress": "0x66fca14edb48b6a67d6036e40a88e43cdc9f50ae",
      "function": "setTokenAllowed(address,bool)",
      "arguments": [
        "0xA11c8D9DC9b66E209Ef60F0C8D969D3CD988782c",
        "true"
      ],
      "transaction": {
        "from": "0xc8306a4a2da13f8e3c30d5096f19d5f01969aa7d",
        "to": "0x66fca14edb48b6a67d6036e40a88e43cdc9f50ae",
        "gas": "0x1112d",
        "value": "0x0",
        "input": "0x15f69012000000000000000000000000a11c8d9dc9b66e209ef60f0c8d969d3cd988782c0000000000000000000000000000000000000000000000000000000000000001",
        "nonce": "0xd",
        "chainId": "0x61"
      },
      "additionalContracts": [],
      "isFixedGasLimit": false
    },
    {
      "hash": "0xf190094391a8f99535e1d9d61cde2cb2d5f221e4b40846f781012a3569088676",
      "transactionType": "CALL",
      "contractName": null,
      "contractAddress": "0x66fca14edb48b6a67d6036e40a88e43cdc9f50ae",
      "function": "setTargetAllowed(address,bool)",
      "arguments": [
        "0xA11c8D9DC9b66E209Ef60F0C8D969D3CD988782c",
        "true"
      ],
      "transaction": {
        "from": "0xc8306a4a2da13f8e3c30d5096f19d5f01969aa7d",
        "to": "0x66fca14edb48b6a67d6036e40a88e43cdc9f50ae",
        "gas": "0x1117e",
        "value": "0x0",
        "input": "0x3a3d56fa000000000000000000000000a11c8d9dc9b66e209ef60f0c8d969d3cd988782c0000000000000000000000000000000000000000000000000000000000000001",
        "nonce": "0xe",
        "chainId": "0x61"
      },
      "additionalContracts": [],
      "isFixedGasLimit": false
    },
    {
      "hash": "0x860735dc39bd0472e5e09ef4c316bfdd19718a8b6b812922515c5535bbebdf98",
      "transactionType": "CALL",
      "contractName": null,
      "contractAddress": "0x66fca14edb48b6a67d6036e40a88e43cdc9f50ae",
      "function": "setSelectorAllowed(address,bytes4,bool)",
      "arguments": [
        "0xA11c8D9DC9b66E209Ef60F0C8D969D3CD988782c",
        "0x095ea7b3",
        "true"
      ],
      "transaction": {
        "from": "0xc8306a4a2da13f8e3c30d5096f19d5f01969aa7d",
        "to": "0x66fca14edb48b6a67d6036e40a88e43cdc9f50ae",
        "gas": "0x1060b",
        "value": "0x0",
        "input": "0x7a5a7c27000000000000000000000000a11c8d9dc9b66e209ef60f0c8d969d3cd988782c095ea7b3000000000000000000000000000000000000000000000000000000000000000000000000000000000000000000000000000000000000000000000001",
        "nonce": "0xf",
        "chainId": "0x61"
      },
      "additionalContracts": [],
      "isFixedGasLimit": false
    },
    {
      "hash": "0xcaefb4c9543f0f00049988588effffa6e5fad0f6b1b9631fb3e9f03cad6ebd80",
      "transactionType": "CALL",
      "contractName": null,
      "contractAddress": "0x66fca14edb48b6a67d6036e40a88e43cdc9f50ae",
      "function": "setSpenderAllowed(address,address,bool)",
      "arguments": [
        "0xA11c8D9DC9b66E209Ef60F0C8D969D3CD988782c",
        "0xD99D1c33F9fC3444f8101754aBC46c52416550D1",
        "true"
      ],
      "transaction": {
        "from": "0xc8306a4a2da13f8e3c30d5096f19d5f01969aa7d",
        "to": "0x66fca14edb48b6a67d6036e40a88e43cdc9f50ae",
        "gas": "0x10756",
        "value": "0x0",
        "input": "0x871018a1000000000000000000000000a11c8d9dc9b66e209ef60f0c8d969d3cd988782c000000000000000000000000d99d1c33f9fc3444f8101754abc46c52416550d10000000000000000000000000000000000000000000000000000000000000001",
        "nonce": "0x10",
        "chainId": "0x61"
      },
      "additionalContracts": [],
      "isFixedGasLimit": false
    },
    {
      "hash": "0x07429085852995011176a08fa8d34acb58d02b0fb1cb7c532819824fedc47563",
      "transactionType": "CALL",
      "contractName": null,
      "contractAddress": "0x66fca14edb48b6a67d6036e40a88e43cdc9f50ae",
      "function": "setSpenderAllowed(address,address,bool)",
      "arguments": [
        "0xae13d989daC2f0dEbFf460aC112a837C89BAa7cd",
        "0xD99D1c33F9fC3444f8101754aBC46c52416550D1",
        "true"
      ],
      "transaction": {
        "from": "0xc8306a4a2da13f8e3c30d5096f19d5f01969aa7d",
        "to": "0x66fca14edb48b6a67d6036e40a88e43cdc9f50ae",
        "gas": "0x10756",
        "value": "0x0",
        "input": "0x871018a1000000000000000000000000ae13d989dac2f0debff460ac112a837c89baa7cd000000000000000000000000d99d1c33f9fc3444f8101754abc46c52416550d10000000000000000000000000000000000000000000000000000000000000001",
        "nonce": "0x11",
        "chainId": "0x61"
      },
      "additionalContracts": [],
      "isFixedGasLimit": false
    },
    {
      "hash": "0x16202381a4a94ddfe6c1822100d650ac654d5fa8a7686821bb8475256a753dff",
      "transactionType": "CALL",
      "contractName": null,
      "contractAddress": "0x66fca14edb48b6a67d6036e40a88e43cdc9f50ae",
      "function": "setTargetAllowed(address,bool)",
      "arguments": [
        "0xb7526572FFE56AB9D7489838Bf2E18e3323b441A",
        "true"
      ],
      "transaction": {
        "from": "0xc8306a4a2da13f8e3c30d5096f19d5f01969aa7d",
        "to": "0x66fca14edb48b6a67d6036e40a88e43cdc9f50ae",
        "gas": "0x1117e",
        "value": "0x0",
        "input": "0x3a3d56fa000000000000000000000000b7526572ffe56ab9d7489838bf2e18e3323b441a0000000000000000000000000000000000000000000000000000000000000001",
        "nonce": "0x12",
        "chainId": "0x61"
      },
      "additionalContracts": [],
      "isFixedGasLimit": false
    },
    {
      "hash": "0xcb73ace54dd9c9aeedbc153cd41ad7e067396836881849facc32b99cbcc5e2f8",
      "transactionType": "CALL",
      "contractName": null,
      "contractAddress": "0x66fca14edb48b6a67d6036e40a88e43cdc9f50ae",
      "function": "setSelectorAllowed(address,bytes4,bool)",
      "arguments": [
        "0xb7526572FFE56AB9D7489838Bf2E18e3323b441A",
        "0x2608f818",
        "true"
      ],
      "transaction": {
        "from": "0xc8306a4a2da13f8e3c30d5096f19d5f01969aa7d",
        "to": "0x66fca14edb48b6a67d6036e40a88e43cdc9f50ae",
        "gas": "0x1060b",
        "value": "0x0",
        "input": "0x7a5a7c27000000000000000000000000b7526572ffe56ab9d7489838bf2e18e3323b441a2608f818000000000000000000000000000000000000000000000000000000000000000000000000000000000000000000000000000000000000000000000001",
        "nonce": "0x13",
        "chainId": "0x61"
      },
      "additionalContracts": [],
      "isFixedGasLimit": false
    },
    {
      "hash": "0xd09e827968ced6e8ece00d7409c09d77b2945e73bf1685dac491bd2f1a42532f",
      "transactionType": "CALL",
      "contractName": null,
      "contractAddress": "0x66fca14edb48b6a67d6036e40a88e43cdc9f50ae",
      "function": "setLimit(bytes32,uint256)",
      "arguments": [
        "0xf84921ee8be045d408ab443a0f530284469ab7658c788f4d4933fa971c3c38d3",
        "1200"
      ],
      "transaction": {
        "from": "0xc8306a4a2da13f8e3c30d5096f19d5f01969aa7d",
        "to": "0x66fca14edb48b6a67d6036e40a88e43cdc9f50ae",
        "gas": "0x96a4",
        "value": "0x0",
        "input": "0x22895b9ff84921ee8be045d408ab443a0f530284469ab7658c788f4d4933fa971c3c38d300000000000000000000000000000000000000000000000000000000000004b0",
        "nonce": "0x14",
        "chainId": "0x61"
      },
      "additionalContracts": [],
      "isFixedGasLimit": false
    },
    {
      "hash": "0x9bd05e31cf77ea6a3c9564da7b70af3d7c5f34e88a70c0489c5271ed214cb58b",
      "transactionType": "CALL",
      "contractName": null,
      "contractAddress": "0x66fca14edb48b6a67d6036e40a88e43cdc9f50ae",
      "function": "setLimit(bytes32,uint256)",
      "arguments": [
        "0xcf7470957e421cece59cd9bfee8db9252c364ada9e351140ab1b999fa13d9055",
        "3"
      ],
      "transaction": {
        "from": "0xc8306a4a2da13f8e3c30d5096f19d5f01969aa7d",
        "to": "0x66fca14edb48b6a67d6036e40a88e43cdc9f50ae",
        "gas": "0x9693",
        "value": "0x0",
        "input": "0x22895b9fcf7470957e421cece59cd9bfee8db9252c364ada9e351140ab1b999fa13d90550000000000000000000000000000000000000000000000000000000000000003",
        "nonce": "0x15",
        "chainId": "0x61"
      },
      "additionalContracts": [],
      "isFixedGasLimit": false
    }
  ],
  "receipts": [
    {
      "status": "0x1",
      "cumulativeGasUsed": "0x3a1f8",
      "logs": [
        {
          "address": "0x66fca14edb48b6a67d6036e40a88e43cdc9f50ae",
          "topics": [
            "0xd5cc69c3fd825b34b369396f105ab7c13b09d888d513418c0e02a42db3133999",
            "0x000000000000000000000000d99d1c33f9fc3444f8101754abc46c52416550d1"
          ],
          "data": "0x0000000000000000000000000000000000000000000000000000000000000001",
          "blockHash": "0x620211f592383b422c6775315ebb318a61e8c3140ea819651cb423dc2a5b999c",
          "blockNumber": "0x55a38dc",
          "blockTimestamp": "0x698ce632",
          "transactionHash": "0xf4ed860670c2e7d44e5b1a0e9c1293a9032e35ec2fe484b184437ea0ace867fc",
          "transactionIndex": "0x2",
          "logIndex": "0x6",
          "removed": false
        }
      ],
      "logsBloom": "0x00000000000000000002000000000000000040100000000000000000000000000000000000000000000000000000000000080000000000000000000000000000004000000000000000000000800000000000000000000000000000000000000000000000000000000000000000000000000000000000000000000000000000000000000000000000000000000000000000000000000000000000000000000000000000000000000000000000000000000000000000000000000000000000000000000000000000000000000000000000000000000000000000000000000000000800000000001000000000000000000000000000000000000100000000000000",
      "type": "0x2",
      "transactionHash": "0xf4ed860670c2e7d44e5b1a0e9c1293a9032e35ec2fe484b184437ea0ace867fc",
      "transactionIndex": "0x2",
      "blockHash": "0x620211f592383b422c6775315ebb318a61e8c3140ea819651cb423dc2a5b999c",
      "blockNumber": "0x55a38dc",
      "gasUsed": "0xbb01",
      "effectiveGasPrice": "0x5f5e100",
      "from": "0xc8306a4a2da13f8e3c30d5096f19d5f01969aa7d",
      "to": "0x66fca14edb48b6a67d6036e40a88e43cdc9f50ae",
      "contractAddress": null
    },
    {
      "status": "0x1",
      "cumulativeGasUsed": "0x45fb0",
      "logs": [
        {
          "address": "0x66fca14edb48b6a67d6036e40a88e43cdc9f50ae",
          "topics": [
            "0xc8feb62b1b295ccec8d4fcabfae6673ec51dd67cf746942a19f162afa891a9f4",
            "0x000000000000000000000000d99d1c33f9fc3444f8101754abc46c52416550d1",
            "0x38ed173900000000000000000000000000000000000000000000000000000000"
          ],
          "data": "0x0000000000000000000000000000000000000000000000000000000000000001",
          "blockHash": "0x620211f592383b422c6775315ebb318a61e8c3140ea819651cb423dc2a5b999c",
          "blockNumber": "0x55a38dc",
          "blockTimestamp": "0x698ce632",
          "transactionHash": "0xf0efdc484095ebd069144f6f9e2c91844ab68f1b5a6674e7db99c1ccd5bd7735",
          "transactionIndex": "0x3",
          "logIndex": "0x7",
          "removed": false
        }
      ],
      "logsBloom": "0x00000000000000000000000000000000000040100000000000000000000000000000000040000000000000000000000000080000000000000000000000000000004000008000000000000000000000000000000000000000000000000000000000000000000000000000000000000000000000000000000000000000000000000000000000000000000000000000000000000000000000000000000000000000000000000000000000000000000000000000002000000000000000000000000000000000000200000000000000000000000020000000000000000000000100000800000000001000000000000000000000000000000000000000000000000000",
      "type": "0x2",
      "transactionHash": "0xf0efdc484095ebd069144f6f9e2c91844ab68f1b5a6674e7db99c1ccd5bd7735",
      "transactionIndex": "0x3",
      "blockHash": "0x620211f592383b422c6775315ebb318a61e8c3140ea819651cb423dc2a5b999c",
      "blockNumber": "0x55a38dc",
      "gasUsed": "0xbdb8",
      "effectiveGasPrice": "0x5f5e100",
      "from": "0xc8306a4a2da13f8e3c30d5096f19d5f01969aa7d",
      "to": "0x66fca14edb48b6a67d6036e40a88e43cdc9f50ae",
      "contractAddress": null
    },
    {
      "status": "0x1",
      "cumulativeGasUsed": "0x51a7a",
      "logs": [
        {
          "address": "0x66fca14edb48b6a67d6036e40a88e43cdc9f50ae",
          "topics": [
            "0xdcb2804db02b95bdd568fd11a31c5577ffdf36538c0f670e92930d9c1e8518ab",
            "0x000000000000000000000000ae13d989dac2f0debff460ac112a837c89baa7cd"
          ],
          "data": "0x0000000000000000000000000000000000000000000000000000000000000001",
          "blockHash": "0x620211f592383b422c6775315ebb318a61e8c3140ea819651cb423dc2a5b999c",
          "blockNumber": "0x55a38dc",
          "blockTimestamp": "0x698ce632",
          "transactionHash": "0xd0d521b2cce908a17480f9f19ba6420721ddd72cdb278d148a3246d13c93c0e6",
          "transactionIndex": "0x4",
          "logIndex": "0x8",
          "removed": false
        }
      ],
      "logsBloom": "0x00000000000000000000000000000000000000100000002000000000000000000002000000000000010000000000000000000000000000000000000000000000000000000000000000000000000004000000000000000000000000000000000000000000000000000000000000000000000000000000000000000000000000000000000000000000000000000000000000000000000000000000000000000000000000000000000000000000000000000000000000000000000000000000000000000000000000000000000000000000000000000000000000000000010001000800000000001000000000000000000000000000000000000000000000000000",
      "type": "0x2",
      "transactionHash": "0xd0d521b2cce908a17480f9f19ba6420721ddd72cdb278d148a3246d13c93c0e6",
      "transactionIndex": "0x4",
      "blockHash": "0x620211f592383b422c6775315ebb318a61e8c3140ea819651cb423dc2a5b999c",
      "blockNumber": "0x55a38dc",
      "gasUsed": "0xbaca",
      "effectiveGasPrice": "0x5f5e100",
      "from": "0xc8306a4a2da13f8e3c30d5096f19d5f01969aa7d",
      "to": "0x66fca14edb48b6a67d6036e40a88e43cdc9f50ae",
      "contractAddress": null
    },
    {
      "status": "0x1",
      "cumulativeGasUsed": "0x5d544",
      "logs": [
        {
          "address": "0x66fca14edb48b6a67d6036e40a88e43cdc9f50ae",
          "topics": [
            "0xdcb2804db02b95bdd568fd11a31c5577ffdf36538c0f670e92930d9c1e8518ab",
            "0x000000000000000000000000a11c8d9dc9b66e209ef60f0c8d969d3cd988782c"
          ],
          "data": "0x0000000000000000000000000000000000000000000000000000000000000001",
          "blockHash": "0x620211f592383b422c6775315ebb318a61e8c3140ea819651cb423dc2a5b999c",
          "blockNumber": "0x55a38dc",
          "blockTimestamp": "0x698ce632",
          "transactionHash": "0xf190094391a8f99535e1d9d61cde2cb2d5f221e4b40846f781012a3569088676",
          "transactionIndex": "0x5",
          "logIndex": "0x9",
          "removed": false
        }
      ],
      "logsBloom": "0x00000000000000000000000000000000000000100000000000000000000000000002000000000000010000000000000000000000000000000000000000000000000000000000000000000000000000000000000000080000000000000000000000000000000000000000000100000000000000000000000000000000000000000000000000000000000000000000000000000000000000000000000000000000000000000000000000000000000000000000000000000000000000000000000000000000001000000000000000000000000000000000000000000000010000000800000000001000000000000000000000000000000000000000000000000000",
      "type": "0x2",
      "transactionHash": "0xf190094391a8f99535e1d9d61cde2cb2d5f221e4b40846f781012a3569088676",
      "transactionIndex": "0x5",
      "blockHash": "0x620211f592383b422c6775315ebb318a61e8c3140ea819651cb423dc2a5b999c",
      "blockNumber": "0x55a38dc",
      "gasUsed": "0xbaca",
      "effectiveGasPrice": "0x5f5e100",
      "from": "0xc8306a4a2da13f8e3c30d5096f19d5f01969aa7d",
      "to": "0x66fca14edb48b6a67d6036e40a88e43cdc9f50ae",
      "contractAddress": null
    },
    {
      "status": "0x1",
      "cumulativeGasUsed": "0x69045",
      "logs": [
        {
          "address": "0x66fca14edb48b6a67d6036e40a88e43cdc9f50ae",
          "topics": [
            "0xd5cc69c3fd825b34b369396f105ab7c13b09d888d513418c0e02a42db3133999",
            "0x000000000000000000000000a11c8d9dc9b66e209ef60f0c8d969d3cd988782c"
          ],
          "data": "0x0000000000000000000000000000000000000000000000000000000000000001",
          "blockHash": "0x620211f592383b422c6775315ebb318a61e8c3140ea819651cb423dc2a5b999c",
          "blockNumber": "0x55a38dc",
          "blockTimestamp": "0x698ce632",
          "transactionHash": "0xf819329ea3f663b5239221c366f3365c92776f4356f7b3068cb71fec926b4a47",
          "transactionIndex": "0x6",
          "logIndex": "0xa",
          "removed": false
        }
      ],
      "logsBloom": "0x00000000000000000002000000000000000000100000000000000000000000000000000000000000000000000000000000000000000000000000000000000000000000000000000000000000800000000000000000080000000000000000000000000000000000000000000100000000000000000000000000000000000000000000000000000000000000000000000000000000000000000000000000000000000000000000000000000000000000000000000000000000000000000000000000000000001000000000000000000000000000000000000000000000000000000800000000001000000000000000000000000000000000000100000000000000",
      "type": "0x2",
      "transactionHash": "0xf819329ea3f663b5239221c366f3365c92776f4356f7b3068cb71fec926b4a47",
      "transactionIndex": "0x6",
      "blockHash": "0x620211f592383b422c6775315ebb318a61e8c3140ea819651cb423dc2a5b999c",
      "blockNumber": "0x55a38dc",
      "gasUsed": "0xbb01",
      "effectiveGasPrice": "0x5f5e100",
      "from": "0xc8306a4a2da13f8e3c30d5096f19d5f01969aa7d",
      "to": "0x66fca14edb48b6a67d6036e40a88e43cdc9f50ae",
      "contractAddress": null
    },
    {
      "status": "0x1",
      "cumulativeGasUsed": "0x74dfd",
      "logs": [
        {
          "address": "0x66fca14edb48b6a67d6036e40a88e43cdc9f50ae",
          "topics": [
            "0xc8feb62b1b295ccec8d4fcabfae6673ec51dd67cf746942a19f162afa891a9f4",
            "0x000000000000000000000000a11c8d9dc9b66e209ef60f0c8d969d3cd988782c",
            "0x095ea7b300000000000000000000000000000000000000000000000000000000"
          ],
          "data": "0x0000000000000000000000000000000000000000000000000000000000000001",
          "blockHash": "0x620211f592383b422c6775315ebb318a61e8c3140ea819651cb423dc2a5b999c",
          "blockNumber": "0x55a38dc",
          "blockTimestamp": "0x698ce632",
          "transactionHash": "0x07429085852995011176a08fa8d34acb58d02b0fb1cb7c532819824fedc47563",
          "transactionIndex": "0x7",
          "logIndex": "0xb",
          "removed": false
        }
      ],
      "logsBloom": "0x00000000000000000000000000000000000000100000000000000000000000000000000040000000000000000400000000000000000000000008000000000000000000000000000000000000000000000000000000080000000000000000000000000000000000000000000100000000000000000000000000000000000000000000000000000000000000000000000000000000000000000000000000000000000000000000000000000000000000000000002000000000000000000000000000000008001200000000000000000000000000000000000000000000000000000800000000001000000000000000000000000000000000000000000000000000",
      "type": "0x2",
      "transactionHash": "0x07429085852995011176a08fa8d34acb58d02b0fb1cb7c532819824fedc47563",
      "transactionIndex": "0x7",
      "blockHash": "0x620211f592383b422c6775315ebb318a61e8c3140ea819651cb423dc2a5b999c",
      "blockNumber": "0x55a38dc",
      "gasUsed": "0xbdb8",
      "effectiveGasPrice": "0x5f5e100",
      "from": "0xc8306a4a2da13f8e3c30d5096f19d5f01969aa7d",
      "to": "0x66fca14edb48b6a67d6036e40a88e43cdc9f50ae",
      "contractAddress": null
    },
    {
      "status": "0x1",
      "cumulativeGasUsed": "0x80ca4",
      "logs": [
        {
          "address": "0x66fca14edb48b6a67d6036e40a88e43cdc9f50ae",
          "topics": [
            "0x95c087089192bf9794af589e4c80ce5881b2309bf8e2a09281a94db4896bd41d",
            "0x000000000000000000000000a11c8d9dc9b66e209ef60f0c8d969d3cd988782c",
            "0x000000000000000000000000d99d1c33f9fc3444f8101754abc46c52416550d1"
          ],
          "data": "0x0000000000000000000000000000000000000000000000000000000000000001",
          "blockHash": "0x620211f592383b422c6775315ebb318a61e8c3140ea819651cb423dc2a5b999c",
          "blockNumber": "0x55a38dc",
          "blockTimestamp": "0x698ce632",
          "transactionHash": "0x860735dc39bd0472e5e09ef4c316bfdd19718a8b6b812922515c5535bbebdf98",
          "transactionIndex": "0x8",
          "logIndex": "0xc",
          "removed": false
        }
      ],
      "logsBloom": "0x00000000000000000000000000000000000040100000000000000000000000000000000000000000000000000000000000080000000000000000000000000000004000000000000000000000000000000000000000080000000000008000000000000000000000000000000100000000000000000000000000000000000000000000000000000000000000000000000000000000000000000000000000000000000000000000000000000000000000000000000000000000000000000000000000000000001400000000000000000000000000000000000000000000000000000800000000001000000000000000000000000000000000000000010000000000",
      "type": "0x2",
      "transactionHash": "0x860735dc39bd0472e5e09ef4c316bfdd19718a8b6b812922515c5535bbebdf98",
      "transactionIndex": "0x8",
      "blockHash": "0x620211f592383b422c6775315ebb318a61e8c3140ea819651cb423dc2a5b999c",
      "blockNumber": "0x55a38dc",
      "gasUsed": "0xbea7",
      "effectiveGasPrice": "0x5f5e100",
      "from": "0xc8306a4a2da13f8e3c30d5096f19d5f01969aa7d",
      "to": "0x66fca14edb48b6a67d6036e40a88e43cdc9f50ae",
      "contractAddress": null
    },
    {
      "status": "0x1",
      "cumulativeGasUsed": "0x8cb4b",
      "logs": [
        {
          "address": "0x66fca14edb48b6a67d6036e40a88e43cdc9f50ae",
          "topics": [
            "0x95c087089192bf9794af589e4c80ce5881b2309bf8e2a09281a94db4896bd41d",
            "0x000000000000000000000000ae13d989dac2f0debff460ac112a837c89baa7cd",
            "0x000000000000000000000000d99d1c33f9fc3444f8101754abc46c52416550d1"
          ],
          "data": "0x0000000000000000000000000000000000000000000000000000000000000001",
          "blockHash": "0x620211f592383b422c6775315ebb318a61e8c3140ea819651cb423dc2a5b999c",
          "blockNumber": "0x55a38dc",
          "blockTimestamp": "0x698ce632",
          "transactionHash": "0xcaefb4c9543f0f00049988588effffa6e5fad0f6b1b9631fb3e9f03cad6ebd80",
          "transactionIndex": "0x9",
          "logIndex": "0xd",
          "removed": false
        }
      ],
      "logsBloom": "0x00000000000000000000000000000000000040100000002000000000000000000000000000000000000000000000000000080000000000000000000000000000004000000000000000000000000004000000000000000000000000008000000000000000000000000000000000000000000000000000000000000000000000000000000000000000000000000000000000000000000000000000000000000000000000000000000000000000000000000000000000000000000000000000000000000000000400000000000000000000000000000000000000000000000001000800000000001000000000000000000000000000000000000000010000000000",
      "type": "0x2",
      "transactionHash": "0xcaefb4c9543f0f00049988588effffa6e5fad0f6b1b9631fb3e9f03cad6ebd80",
      "transactionIndex": "0x9",
      "blockHash": "0x620211f592383b422c6775315ebb318a61e8c3140ea819651cb423dc2a5b999c",
      "blockNumber": "0x55a38dc",
      "gasUsed": "0xbea7",
      "effectiveGasPrice": "0x5f5e100",
      "from": "0xc8306a4a2da13f8e3c30d5096f19d5f01969aa7d",
      "to": "0x66fca14edb48b6a67d6036e40a88e43cdc9f50ae",
      "contractAddress": null
    },
    {
      "status": "0x1",
      "cumulativeGasUsed": "0x9864c",
      "logs": [
        {
          "address": "0x66fca14edb48b6a67d6036e40a88e43cdc9f50ae",
          "topics": [
            "0xd5cc69c3fd825b34b369396f105ab7c13b09d888d513418c0e02a42db3133999",
            "0x000000000000000000000000b7526572ffe56ab9d7489838bf2e18e3323b441a"
          ],
          "data": "0x0000000000000000000000000000000000000000000000000000000000000001",
          "blockHash": "0x620211f592383b422c6775315ebb318a61e8c3140ea819651cb423dc2a5b999c",
          "blockNumber": "0x55a38dc",
          "blockTimestamp": "0x698ce632",
          "transactionHash": "0x16202381a4a94ddfe6c1822100d650ac654d5fa8a7686821bb8475256a753dff",
          "transactionIndex": "0xa",
          "logIndex": "0xe",
          "removed": false
        }
      ],
      "logsBloom": "0x00000000000000000002000000000000000000100000000040000000000000000000000000000000000000000000000000000000000000000000000000000000000000000000000000000000800000000000000000000010000000000000000000000000000000000000000000000000000000000000000000000000000000000000000000000000000000000000000000000000000000000000000000000000000000000000000000000000000000000000000000000000020000000000000000000000000000000000000000000000000000000000000000000000000000000800000000001000000000000000000000000000000000000100000000000000",
      "type": "0x2",
      "transactionHash": "0x16202381a4a94ddfe6c1822100d650ac654d5fa8a7686821bb8475256a753dff",
      "transactionIndex": "0xa",
      "blockHash": "0x620211f592383b422c6775315ebb318a61e8c3140ea819651cb423dc2a5b999c",
      "blockNumber": "0x55a38dc",
      "gasUsed": "0xbb01",
      "effectiveGasPrice": "0x5f5e100",
      "from": "0xc8306a4a2da13f8e3c30d5096f19d5f01969aa7d",
      "to": "0x66fca14edb48b6a67d6036e40a88e43cdc9f50ae",
      "contractAddress": null
    },
    {
      "status": "0x1",
      "cumulativeGasUsed": "0xa4404",
      "logs": [
        {
          "address": "0x66fca14edb48b6a67d6036e40a88e43cdc9f50ae",
          "topics": [
            "0xc8feb62b1b295ccec8d4fcabfae6673ec51dd67cf746942a19f162afa891a9f4",
            "0x000000000000000000000000b7526572ffe56ab9d7489838bf2e18e3323b441a",
            "0x2608f81800000000000000000000000000000000000000000000000000000000"
          ],
          "data": "0x0000000000000000000000000000000000000000000000000000000000000001",
          "blockHash": "0x620211f592383b422c6775315ebb318a61e8c3140ea819651cb423dc2a5b999c",
          "blockNumber": "0x55a38dc",
          "blockTimestamp": "0x698ce632",
          "transactionHash": "0xcb73ace54dd9c9aeedbc153cd41ad7e067396836881849facc32b99cbcc5e2f8",
          "transactionIndex": "0xb",
          "logIndex": "0xf",
          "removed": false
        }
      ],
      "logsBloom": "0x00000000000000000000000000000000000000100000000040000000000000000000000040000000000000000000000000000000000000000000000000000000000000000000000000000000000000000000000000000010000800000000000000000000000000000000000000000000000000000000000000000000000000000000000000000000000000000000000000000000000000000000000000000000000008000000000000000000000000000000002000000000020000000000000000000000000200000000000000000000000000000000000000000000000000000800000000001000000000100000000000000000000000000000000000000000",
      "type": "0x2",
      "transactionHash": "0xcb73ace54dd9c9aeedbc153cd41ad7e067396836881849facc32b99cbcc5e2f8",
      "transactionIndex": "0xb",
      "blockHash": "0x620211f592383b422c6775315ebb318a61e8c3140ea819651cb423dc2a5b999c",
      "blockNumber": "0x55a38dc",
      "gasUsed": "0xbdb8",
      "effectiveGasPrice": "0x5f5e100",
      "from": "0xc8306a4a2da13f8e3c30d5096f19d5f01969aa7d",
      "to": "0x66fca14edb48b6a67d6036e40a88e43cdc9f50ae",
      "contractAddress": null
    },
    {
      "status": "0x1",
      "cumulativeGasUsed": "0xab114",
      "logs": [
        {
          "address": "0x66fca14edb48b6a67d6036e40a88e43cdc9f50ae",
          "topics": [
            "0xaf66558b06891433cdca82216c190759340d5f935527f16629bb9294dfbc9201",
            "0xf84921ee8be045d408ab443a0f530284469ab7658c788f4d4933fa971c3c38d3"
          ],
          "data": "0x00000000000000000000000000000000000000000000000000000000000004b0",
          "blockHash": "0x620211f592383b422c6775315ebb318a61e8c3140ea819651cb423dc2a5b999c",
          "blockNumber": "0x55a38dc",
          "blockTimestamp": "0x698ce632",
          "transactionHash": "0x9bd05e31cf77ea6a3c9564da7b70af3d7c5f34e88a70c0489c5271ed214cb58b",
          "transactionIndex": "0xc",
          "logIndex": "0x10",
          "removed": false
        }
      ],
      "logsBloom": "0x00000000000000000000000000000000000000100000000000000000000000000000000000000000000000000000000000000000000000000000000000000000000000000000000000000000000000000000000000000000000000000000000000000000000000000000000000000000000000000000000000000000000000000000000000000000000000000000000004000000000000000000000000000000000000040000000000000000000000000000000400000000004000000000000000000002000000000000001000000000000000000000000000000000000000000800000000001000000000000000000000000000000000000000000000000000",
      "type": "0x2",
      "transactionHash": "0x9bd05e31cf77ea6a3c9564da7b70af3d7c5f34e88a70c0489c5271ed214cb58b",
      "transactionIndex": "0xc",
      "blockHash": "0x620211f592383b422c6775315ebb318a61e8c3140ea819651cb423dc2a5b999c",
      "blockNumber": "0x55a38dc",
      "gasUsed": "0x6d10",
      "effectiveGasPrice": "0x5f5e100",
      "from": "0xc8306a4a2da13f8e3c30d5096f19d5f01969aa7d",
      "to": "0x66fca14edb48b6a67d6036e40a88e43cdc9f50ae",
      "contractAddress": null
    },
    {
      "status": "0x1",
      "cumulativeGasUsed": "0xb1e18",
      "logs": [
        {
          "address": "0x66fca14edb48b6a67d6036e40a88e43cdc9f50ae",
          "topics": [
            "0xaf66558b06891433cdca82216c190759340d5f935527f16629bb9294dfbc9201",
            "0xcf7470957e421cece59cd9bfee8db9252c364ada9e351140ab1b999fa13d9055"
          ],
          "data": "0x0000000000000000000000000000000000000000000000000000000000000003",
          "blockHash": "0x620211f592383b422c6775315ebb318a61e8c3140ea819651cb423dc2a5b999c",
          "blockNumber": "0x55a38dc",
          "blockTimestamp": "0x698ce632",
          "transactionHash": "0xd09e827968ced6e8ece00d7409c09d77b2945e73bf1685dac491bd2f1a42532f",
          "transactionIndex": "0xd",
          "logIndex": "0x11",
          "removed": false
        }
      ],
      "logsBloom": "0x00000000000000000000000000000000000000100000000000000000000000000000000000000000000000000000000000000000000000000000000000000000000000000000000000000000000000000000000000000000000000000000000000000000000000000000000000000000000000000000000100000000000000000000000000000000000000000000000000000000000000000000000000000000000000040000000000000010000000000000000400000000000000000000000000000000000000000000001000000000000000000000000000000080000000000800000000001000000000000000000000000000000000000000000000000000",
      "type": "0x2",
      "transactionHash": "0xd09e827968ced6e8ece00d7409c09d77b2945e73bf1685dac491bd2f1a42532f",
      "transactionIndex": "0xd",
      "blockHash": "0x620211f592383b422c6775315ebb318a61e8c3140ea819651cb423dc2a5b999c",
      "blockNumber": "0x55a38dc",
      "gasUsed": "0x6d04",
      "effectiveGasPrice": "0x5f5e100",
      "from": "0xc8306a4a2da13f8e3c30d5096f19d5f01969aa7d",
      "to": "0x66fca14edb48b6a67d6036e40a88e43cdc9f50ae",
      "contractAddress": null
    }
  ],
  "libraries": [],
  "pending": [],
  "returns": {},
  "timestamp": 1770841650495,
  "chain": 97,
  "commit": "a49e421"
}