{
  "transactions": [
    {
      "hash": "0xef4a08f6466e36470f739bc625924526a4c3107c9283f1bb7ad1501efe6582e6",
      "transactionType": "CALL",
      "contractName": null,
      "contractAddress": "0xae9b520f9efdd9d0ba0a913aca475a3581bb4b4c",
      "function": "setTargetAllowed(address,bool)",
      "arguments": [
        "0xD99D1c33F9fC3444f8101754aBC46c52416550D1",
        "true"
      ],
      "transaction": {
        "from": "0xc8306a4a2da13f8e3c30d5096f19d5f01969aa7d",
        "to": "0xae9b520f9efdd9d0ba0a913aca475a3581bb4b4c",
        "gas": "0x1117e",
        "value": "0x0",
        "input": "0x3a3d56fa000000000000000000000000d99d1c33f9fc3444f8101754abc46c52416550d10000000000000000000000000000000000000000000000000000000000000001",
        "nonce": "0x43",
        "chainId": "0x61"
      },
      "additionalContracts": [],
      "isFixedGasLimit": false
    },
    {
      "hash": "0x40dcba7e779c3b34eea3be68d428aa006b508ca15e3139d04e4c7c184fa89749",
      "transactionType": "CALL",
      "contractName": null,
      "contractAddress": "0xae9b520f9efdd9d0ba0a913aca475a3581bb4b4c",
      "function": "setSelectorAllowed(address,bytes4,bool)",
      "arguments": [
        "0xD99D1c33F9fC3444f8101754aBC46c52416550D1",
        "0x38ed1739",
        "true"
      ],
      "transaction": {
        "from": "0xc8306a4a2da13f8e3c30d5096f19d5f01969aa7d",
        "to": "0xae9b520f9efdd9d0ba0a913aca475a3581bb4b4c",
        "gas": "0x10686",
        "value": "0x0",
        "input": "0x7a5a7c27000000000000000000000000d99d1c33f9fc3444f8101754abc46c52416550d138ed1739000000000000000000000000000000000000000000000000000000000000000000000000000000000000000000000000000000000000000000000001",
        "nonce": "0x44",
        "chainId": "0x61"
      },
      "additionalContracts": [],
      "isFixedGasLimit": false
    },
    {
      "hash": "0xf189ef99974eeb145f7ab7c3f070e8aa8f2bf9980a09eb0c56e88609f845ece9",
      "transactionType": "CALL",
      "contractName": null,
      "contractAddress": "0xae9b520f9efdd9d0ba0a913aca475a3581bb4b4c",
      "function": "setSelectorAllowed(address,bytes4,bool)",
      "arguments": [
        "0xD99D1c33F9fC3444f8101754aBC46c52416550D1",
        "0x7ff36ab5",
        "true"
      ],
      "transaction": {
        "from": "0xc8306a4a2da13f8e3c30d5096f19d5f01969aa7d",
        "to": "0xae9b520f9efdd9d0ba0a913aca475a3581bb4b4c",
        "gas": "0x10686",
        "value": "0x0",
        "input": "0x7a5a7c27000000000000000000000000d99d1c33f9fc3444f8101754abc46c52416550d17ff36ab5000000000000000000000000000000000000000000000000000000000000000000000000000000000000000000000000000000000000000000000001",
        "nonce": "0x45",
        "chainId": "0x61"
      },
      "additionalContracts": [],
      "isFixedGasLimit": false
    },
    {
      "hash": "0xdc58ae8e42821021e3d794fd670d2d2874697dd52a940a19c0d8a5e6eacf3895",
      "transactionType": "CALL",
      "contractName": null,
      "contractAddress": "0xae9b520f9efdd9d0ba0a913aca475a3581bb4b4c",
      "function": "setTokenAllowed(address,bool)",
      "arguments": [
        "0xae13d989daC2f0dEbFf460aC112a837C89BAa7cd",
        "true"
      ],
      "transaction": {
        "from": "0xc8306a4a2da13f8e3c30d5096f19d5f01969aa7d",
        "to": "0xae9b520f9efdd9d0ba0a913aca475a3581bb4b4c",
        "gas": "0x1112d",
        "value": "0x0",
        "input": "0x15f69012000000000000000000000000ae13d989dac2f0debff460ac112a837c89baa7cd0000000000000000000000000000000000000000000000000000000000000001",
        "nonce": "0x46",
        "chainId": "0x61"
      },
      "additionalContracts": [],
      "isFixedGasLimit": false
    },
    {
      "hash": "0x26f1475959128648d469bb1559e152d11221f32194f7bf2b79839f9b20e1ee3e",
      "transactionType": "CALL",
      "contractName": null,
      "contractAddress": "0xae9b520f9efdd9d0ba0a913aca475a3581bb4b4c",
      "function": "setTargetAllowed(address,bool)",
      "arguments": [
        "0xae13d989daC2f0dEbFf460aC112a837C89BAa7cd",
        "true"
      ],
      "transaction": {
        "from": "0xc8306a4a2da13f8e3c30d5096f19d5f01969aa7d",
        "to": "0xae9b520f9efdd9d0ba0a913aca475a3581bb4b4c",
        "gas": "0x1117e",
        "value": "0x0",
        "input": "0x3a3d56fa000000000000000000000000ae13d989dac2f0debff460ac112a837c89baa7cd0000000000000000000000000000000000000000000000000000000000000001",
        "nonce": "0x47",
        "chainId": "0x61"
      },
      "additionalContracts": [],
      "isFixedGasLimit": false
    },
    {
      "hash": "0x367ab547f00574ebd0187414e49fca83c6c286f1e73e2fe203ef013cdcf4eeea",
      "transactionType": "CALL",
      "contractName": null,
      "contractAddress": "0xae9b520f9efdd9d0ba0a913aca475a3581bb4b4c",
      "function": "setSelectorAllowed(address,bytes4,bool)",
      "arguments": [
        "0xae13d989daC2f0dEbFf460aC112a837C89BAa7cd",
        "0x095ea7b3",
        "true"
      ],
      "transaction": {
        "from": "0xc8306a4a2da13f8e3c30d5096f19d5f01969aa7d",
        "to": "0xae9b520f9efdd9d0ba0a913aca475a3581bb4b4c",
        "gas": "0x10686",
        "value": "0x0",
        "input": "0x7a5a7c27000000000000000000000000ae13d989dac2f0debff460ac112a837c89baa7cd095ea7b3000000000000000000000000000000000000000000000000000000000000000000000000000000000000000000000000000000000000000000000001",
        "nonce": "0x48",
        "chainId": "0x61"
      },
      "additionalContracts": [],
      "isFixedGasLimit": false
    },
    {
      "hash": "0xb7223e0e3b14e11f8c3282d1f782042d4fc099c3a4d1775adad0f52a41117723",
      "transactionType": "CALL",
      "contractName": null,
      "contractAddress": "0xae9b520f9efdd9d0ba0a913aca475a3581bb4b4c",
      "function": "setSelectorAllowed(address,bytes4,bool)",
      "arguments": [
        "0xae13d989daC2f0dEbFf460aC112a837C89BAa7cd",
        "0xd0e30db0",
        "true"
      ],
      "transaction": {
        "from": "0xc8306a4a2da13f8e3c30d5096f19d5f01969aa7d",
        "to": "0xae9b520f9efdd9d0ba0a913aca475a3581bb4b4c",
        "gas": "0x10686",
        "value": "0x0",
        "input": "0x7a5a7c27000000000000000000000000ae13d989dac2f0debff460ac112a837c89baa7cdd0e30db0000000000000000000000000000000000000000000000000000000000000000000000000000000000000000000000000000000000000000000000001",
        "nonce": "0x49",
        "chainId": "0x61"
      },
      "additionalContracts": [],
      "isFixedGasLimit": false
    },
    {
      "hash": "0x9375ce56f13da22b886770b326bb94f9ec7c67943e402556d546fccd63d8968e",
      "transactionType": "CALL",
      "contractName": null,
      "contractAddress": "0xae9b520f9efdd9d0ba0a913aca475a3581bb4b4c",
      "function": "setSelectorAllowed(address,bytes4,bool)",
      "arguments": [
        "0xae13d989daC2f0dEbFf460aC112a837C89BAa7cd",
        "0x2e1a7d4d",
        "true"
      ],
      "transaction": {
        "from": "0xc8306a4a2da13f8e3c30d5096f19d5f01969aa7d",
        "to": "0xae9b520f9efdd9d0ba0a913aca475a3581bb4b4c",
        "gas": "0x10686",
        "value": "0x0",
        "input": "0x7a5a7c27000000000000000000000000ae13d989dac2f0debff460ac112a837c89baa7cd2e1a7d4d000000000000000000000000000000000000000000000000000000000000000000000000000000000000000000000000000000000000000000000001",
        "nonce": "0x4a",
        "chainId": "0x61"
      },
      "additionalContracts": [],
      "isFixedGasLimit": false
    },
    {
      "hash": "0x6e52aa2363ea3cce5a14cd85c37c6f757b50b23c2ce666df2512778152f96fa6",
      "transactionType": "CALL",
      "contractName": null,
      "contractAddress": "0xae9b520f9efdd9d0ba0a913aca475a3581bb4b4c",
      "function": "setSpenderAllowed(address,address,bool)",
      "arguments": [
        "0xae13d989daC2f0dEbFf460aC112a837C89BAa7cd",
        "0xD99D1c33F9fC3444f8101754aBC46c52416550D1",
        "true"
      ],
      "transaction": {
        "from": "0xc8306a4a2da13f8e3c30d5096f19d5f01969aa7d",
        "to": "0xae9b520f9efdd9d0ba0a913aca475a3581bb4b4c",
        "gas": "0x116b3",
        "value": "0x0",
        "input": "0x871018a1000000000000000000000000ae13d989dac2f0debff460ac112a837c89baa7cd000000000000000000000000d99d1c33f9fc3444f8101754abc46c52416550d10000000000000000000000000000000000000000000000000000000000000001",
        "nonce": "0x4b",
        "chainId": "0x61"
      },
      "additionalContracts": [],
      "isFixedGasLimit": false
    },
    {
      "hash": "0x8911d77682637f4e9e51258a87fef3242625264939c0ea991a14498071059fe8",
      "transactionType": "CALL",
      "contractName": null,
      "contractAddress": "0xae9b520f9efdd9d0ba0a913aca475a3581bb4b4c",
      "function": "setTokenAllowed(address,bool)",
      "arguments": [
        "0x337610d27c682E347C9cD60BD4b3b107C9d34dDd",
        "true"
      ],
      "transaction": {
        "from": "0xc8306a4a2da13f8e3c30d5096f19d5f01969aa7d",
        "to": "0xae9b520f9efdd9d0ba0a913aca475a3581bb4b4c",
        "gas": "0x1112d",
        "value": "0x0",
        "input": "0x15f69012000000000000000000000000337610d27c682e347c9cd60bd4b3b107c9d34ddd0000000000000000000000000000000000000000000000000000000000000001",
        "nonce": "0x4c",
        "chainId": "0x61"
      },
      "additionalContracts": [],
      "isFixedGasLimit": false
    },
    {
      "hash": "0x10ecbd5f3bd869eddecb26b23d5ed748c6239da49093321e5dd946b167fafd35",
      "transactionType": "CALL",
      "contractName": null,
      "contractAddress": "0xae9b520f9efdd9d0ba0a913aca475a3581bb4b4c",
      "function": "setTargetAllowed(address,bool)",
      "arguments": [
        "0x337610d27c682E347C9cD60BD4b3b107C9d34dDd",
        "true"
      ],
      "transaction": {
        "from": "0xc8306a4a2da13f8e3c30d5096f19d5f01969aa7d",
        "to": "0xae9b520f9efdd9d0ba0a913aca475a3581bb4b4c",
        "gas": "0x1117e",
        "value": "0x0",
        "input": "0x3a3d56fa000000000000000000000000337610d27c682e347c9cd60bd4b3b107c9d34ddd0000000000000000000000000000000000000000000000000000000000000001",
        "nonce": "0x4d",
        "chainId": "0x61"
      },
      "additionalContracts": [],
      "isFixedGasLimit": false
    },
    {
      "hash": "0x70e4f59b9f35532b8529664e5c7eef6754d646b4ac8135577c88f7ea3dd0c491",
      "transactionType": "CALL",
      "contractName": null,
      "contractAddress": "0xae9b520f9efdd9d0ba0a913aca475a3581bb4b4c",
      "function": "setSelectorAllowed(address,bytes4,bool)",
      "arguments": [
        "0x337610d27c682E347C9cD60BD4b3b107C9d34dDd",
        "0x095ea7b3",
        "true"
      ],
      "transaction": {
        "from": "0xc8306a4a2da13f8e3c30d5096f19d5f01969aa7d",
        "to": "0xae9b520f9efdd9d0ba0a913aca475a3581bb4b4c",
        "gas": "0x10686",
        "value": "0x0",
        "input": "0x7a5a7c27000000000000000000000000337610d27c682e347c9cd60bd4b3b107c9d34ddd095ea7b3000000000000000000000000000000000000000000000000000000000000000000000000000000000000000000000000000000000000000000000001",
        "nonce": "0x4e",
        "chainId": "0x61"
      },
      "additionalContracts": [],
      "isFixedGasLimit": false
    },
    {
      "hash": "0x66892e7522cb84b2c083246856b1624a522fd5918ede84d5467b35b10a2e50ca",
      "transactionType": "CALL",
      "contractName": null,
      "contractAddress": "0xae9b520f9efdd9d0ba0a913aca475a3581bb4b4c",
      "function": "setSpenderAllowed(address,address,bool)",
      "arguments": [
        "0x337610d27c682E347C9cD60BD4b3b107C9d34dDd",
        "0xD99D1c33F9fC3444f8101754aBC46c52416550D1",
        "true"
      ],
      "transaction": {
        "from": "0xc8306a4a2da13f8e3c30d5096f19d5f01969aa7d",
        "to": "0xae9b520f9efdd9d0ba0a913aca475a3581bb4b4c",
        "gas": "0x116b3",
        "value": "0x0",
        "input": "0x871018a1000000000000000000000000337610d27c682e347c9cd60bd4b3b107c9d34ddd000000000000000000000000d99d1c33f9fc3444f8101754abc46c52416550d10000000000000000000000000000000000000000000000000000000000000001",
        "nonce": "0x4f",
        "chainId": "0x61"
      },
      "additionalContracts": [],
      "isFixedGasLimit": false
    },
    {
      "hash": "0x23d08e0afafeb9fb6244bfb43735cb0bff3456cfdae9dfec3855133bc47d2a58",
      "transactionType": "CALL",
      "contractName": null,
      "contractAddress": "0xae9b520f9efdd9d0ba0a913aca475a3581bb4b4c",
      "function": "setTargetAllowed(address,bool)",
      "arguments": [
        "0xb7526572FFE56AB9D7489838Bf2E18e3323b441A",
        "true"
      ],
      "transaction": {
        "from": "0xc8306a4a2da13f8e3c30d5096f19d5f01969aa7d",
        "to": "0xae9b520f9efdd9d0ba0a913aca475a3581bb4b4c",
        "gas": "0x1117e",
        "value": "0x0",
        "input": "0x3a3d56fa000000000000000000000000b7526572ffe56ab9d7489838bf2e18e3323b441a0000000000000000000000000000000000000000000000000000000000000001",
        "nonce": "0x50",
        "chainId": "0x61"
      },
      "additionalContracts": [],
      "isFixedGasLimit": false
    },
    {
      "hash": "0xec334ded83617052b545e5da17f9edc3a78cfee39b8df926a271b7e40d59b319",
      "transactionType": "CALL",
      "contractName": null,
      "contractAddress": "0xae9b520f9efdd9d0ba0a913aca475a3581bb4b4c",
      "function": "setSelectorAllowed(address,bytes4,bool)",
      "arguments": [
        "0xb7526572FFE56AB9D7489838Bf2E18e3323b441A",
        "0x2608f818",
        "true"
      ],
      "transaction": {
        "from": "0xc8306a4a2da13f8e3c30d5096f19d5f01969aa7d",
        "to": "0xae9b520f9efdd9d0ba0a913aca475a3581bb4b4c",
        "gas": "0x10686",
        "value": "0x0",
        "input": "0x7a5a7c27000000000000000000000000b7526572ffe56ab9d7489838bf2e18e3323b441a2608f818000000000000000000000000000000000000000000000000000000000000000000000000000000000000000000000000000000000000000000000001",
        "nonce": "0x51",
        "chainId": "0x61"
      },
      "additionalContracts": [],
      "isFixedGasLimit": false
    },
    {
      "hash": "0xfdc2f16921e6ca86a188ea4f035c37429db92913b63b9e75a290d0e0fe98a29f",
      "transactionType": "CALL",
      "contractName": null,
      "contractAddress": "0xae9b520f9efdd9d0ba0a913aca475a3581bb4b4c",
      "function": "setRouter(address)",
      "arguments": [
        "0xD99D1c33F9fC3444f8101754aBC46c52416550D1"
      ],
      "transaction": {
        "from": "0xc8306a4a2da13f8e3c30d5096f19d5f01969aa7d",
        "to": "0xae9b520f9efdd9d0ba0a913aca475a3581bb4b4c",
        "gas": "0xfec8",
        "value": "0x0",
        "input": "0xc0d78655000000000000000000000000d99d1c33f9fc3444f8101754abc46c52416550d1",
        "nonce": "0x52",
        "chainId": "0x61"
      },
      "additionalContracts": [],
      "isFixedGasLimit": false
    }
  ],
  "receipts": [
    {
      "status": "0x1",
      "cumulativeGasUsed": "0x4c137",
      "logs": [
        {
          "address": "0xae9b520f9efdd9d0ba0a913aca475a3581bb4b4c",
          "topics": [
            "0xd5cc69c3fd825b34b369396f105ab7c13b09d888d513418c0e02a42db3133999",
            "0x000000000000000000000000d99d1c33f9fc3444f8101754abc46c52416550d1"
          ],
          "data": "0x0000000000000000000000000000000000000000000000000000000000000001",
          "blockHash": "0x3c11ed88571073e540c0c7c2efcc548b14f0d59969f74701b7a043e97225fe67",
          "blockNumber": "0x55f02c9",
          "blockTimestamp": "0x698f12cc",
          "transactionHash": "0xef4a08f6466e36470f739bc625924526a4c3107c9283f1bb7ad1501efe6582e6",
          "transactionIndex": "0x2",
          "logIndex": "0x2",
          "removed": false
        }
      ],
      "logsBloom": "0x00000000000000000002000000000000000040000000000000000000000000000000000000000000000000000000000000080000000000000000000000000000004000000000000000000000800000000000000000000000000000000000000000000000000000000000000000000000000000000000000000000000000000000000000000000000000000000000000000000800000000000000000000000000000000000000000000000000000000000000000000000000000000000000000000000000000000000000000000000000000000000000000000000000000000000000000040000000000000020000000000000000000000000100000000000000",
      "type": "0x2",
      "transactionHash": "0xef4a08f6466e36470f739bc625924526a4c3107c9283f1bb7ad1501efe6582e6",
      "transactionIndex": "0x2",
      "blockHash": "0x3c11ed88571073e540c0c7c2efcc548b14f0d59969f74701b7a043e97225fe67",
      "blockNumber": "0x55f02c9",
      "gasUsed": "0xbb01",
      "effectiveGasPrice": "0x5f5e100",
      "from": "0xc8306a4a2da13f8e3c30d5096f19d5f01969aa7d",
      "to": "0xae9b520f9efdd9d0ba0a913aca475a3581bb4b4c",
      "contractAddress": null
    },
    {
      "status": "0x1",
      "cumulativeGasUsed": "0x57f47",
      "logs": [
        {
          "address": "0xae9b520f9efdd9d0ba0a913aca475a3581bb4b4c",
          "topics": [
            "0xc8feb62b1b295ccec8d4fcabfae6673ec51dd67cf746942a19f162afa891a9f4",
            "0x000000000000000000000000d99d1c33f9fc3444f8101754abc46c52416550d1",
            "0x38ed173900000000000000000000000000000000000000000000000000000000"
          ],
          "data": "0x0000000000000000000000000000000000000000000000000000000000000001",
          "blockHash": "0x3c11ed88571073e540c0c7c2efcc548b14f0d59969f74701b7a043e97225fe67",
          "blockNumber": "0x55f02c9",
          "blockTimestamp": "0x698f12cc",
          "transactionHash": "0xb7223e0e3b14e11f8c3282d1f782042d4fc099c3a4d1775adad0f52a41117723",
          "transactionIndex": "0x3",
          "logIndex": "0x3",
          "removed": false
        }
      ],
      "logsBloom": "0x00000000000000000000000000000000000040000000000000000000000000000000000040000000000000000000000000080000000000000000000000000000004000008000000000000000000000000000000000000000000000000000000000000000000000000000000000000000000000000000000000000000000000000000000000000000000000000000000000000800000000000000000000000000000000000000000000000000000000000000002000000000000000000000000000000000000200000000000000000000000020000000000000000000000100000000000040000000000000020000000000000000000000000000000000000000",
      "type": "0x2",
      "transactionHash": "0xb7223e0e3b14e11f8c3282d1f782042d4fc099c3a4d1775adad0f52a41117723",
      "transactionIndex": "0x3",
      "blockHash": "0x3c11ed88571073e540c0c7c2efcc548b14f0d59969f74701b7a043e97225fe67",
      "blockNumber": "0x55f02c9",
      "gasUsed": "0xbe10",
      "effectiveGasPrice": "0x5f5e100",
      "from": "0xc8306a4a2da13f8e3c30d5096f19d5f01969aa7d",
      "to": "0xae9b520f9efdd9d0ba0a913aca475a3581bb4b4c",
      "contractAddress": null
    },
    {
      "status": "0x1",
      "cumulativeGasUsed": "0x63d57",
      "logs": [
        {
          "address": "0xae9b520f9efdd9d0ba0a913aca475a3581bb4b4c",
          "topics": [
            "0xc8feb62b1b295ccec8d4fcabfae6673ec51dd67cf746942a19f162afa891a9f4",
            "0x000000000000000000000000d99d1c33f9fc3444f8101754abc46c52416550d1",
            "0x7ff36ab500000000000000000000000000000000000000000000000000000000"
          ],
          "data": "0x0000000000000000000000000000000000000000000000000000000000000001",
          "blockHash": "0x3c11ed88571073e540c0c7c2efcc548b14f0d59969f74701b7a043e97225fe67",
          "blockNumber": "0x55f02c9",
          "blockTimestamp": "0x698f12cc",
          "transactionHash": "0xf189ef99974eeb145f7ab7c3f070e8aa8f2bf9980a09eb0c56e88609f845ece9",
          "transactionIndex": "0x4",
          "logIndex": "0x4",
          "removed": false
        }
      ],
      "logsBloom": "0x00000000000800000000000000000000000040000000000000000000000000000000000040000000000000000000000000080000000010000000000000000000004000000000000000000000000000000000000000000000000000000000000000000000400000000000000000000000000000000000000000000000000000000000000000000000000000000000000000000800000000000000000000000000000000000000000000000000000000000000002000000000000000000000000000000000000200000000000000000000000000000000000000000000000000000000000040000000000000020000000000000000000000000000000000000000",
      "type": "0x2",
      "transactionHash": "0xf189ef99974eeb145f7ab7c3f070e8aa8f2bf9980a09eb0c56e88609f845ece9",
      "transactionIndex": "0x4",
      "blockHash": "0x3c11ed88571073e540c0c7c2efcc548b14f0d59969f74701b7a043e97225fe67",
      "blockNumber": "0x55f02c9",
      "gasUsed": "0xbe10",
      "effectiveGasPrice": "0x5f5e100",
      "from": "0xc8306a4a2da13f8e3c30d5096f19d5f01969aa7d",
      "to": "0xae9b520f9efdd9d0ba0a913aca475a3581bb4b4c",
      "contractAddress": null
    },
    {
      "status": "0x1",
      "cumulativeGasUsed": "0x6f821",
      "logs": [
        {
          "address": "0xae9b520f9efdd9d0ba0a913aca475a3581bb4b4c",
          "topics": [
            "0xdcb2804db02b95bdd568fd11a31c5577ffdf36538c0f670e92930d9c1e8518ab",
            "0x000000000000000000000000ae13d989dac2f0debff460ac112a837c89baa7cd"
          ],
          "data": "0x0000000000000000000000000000000000000000000000000000000000000001",
          "blockHash": "0x3c11ed88571073e540c0c7c2efcc548b14f0d59969f74701b7a043e97225fe67",
          "blockNumber": "0x55f02c9",
          "blockTimestamp": "0x698f12cc",
          "transactionHash": "0x26f1475959128648d469bb1559e152d11221f32194f7bf2b79839f9b20e1ee3e",
          "transactionIndex": "0x5",
          "logIndex": "0x5",
          "removed": false
        }
      ],
      "logsBloom": "0x00000000000000000000000000000000000000000000002000000000000000000002000000000000010000000000000000000000000000000000000000000000000000000000000000000000000004000000000000000000000000000000000000000000000000000000000000000000000000000000000000000000000000000000000000000000000000000000000000000800000000000000000000000000000000000000000000000000000000000000000000000000000000000000000000000000000000000000000000000000000000000000000000000000010001000000000040000000000000020000000000000000000000000000000000000000",
      "type": "0x2",
      "transactionHash": "0x26f1475959128648d469bb1559e152d11221f32194f7bf2b79839f9b20e1ee3e",
      "transactionIndex": "0x5",
      "blockHash": "0x3c11ed88571073e540c0c7c2efcc548b14f0d59969f74701b7a043e97225fe67",
      "blockNumber": "0x55f02c9",
      "gasUsed": "0xbaca",
      "effectiveGasPrice": "0x5f5e100",
      "from": "0xc8306a4a2da13f8e3c30d5096f19d5f01969aa7d",
      "to": "0xae9b520f9efdd9d0ba0a913aca475a3581bb4b4c",
      "contractAddress": null
    },
    {
      "status": "0x1",
      "cumulativeGasUsed": "0x7b322",
      "logs": [
        {
          "address": "0xae9b520f9efdd9d0ba0a913aca475a3581bb4b4c",
          "topics": [
            "0xd5cc69c3fd825b34b369396f105ab7c13b09d888d513418c0e02a42db3133999",
            "0x000000000000000000000000ae13d989dac2f0debff460ac112a837c89baa7cd"
          ],
          "data": "0x0000000000000000000000000000000000000000000000000000000000000001",
          "blockHash": "0x3c11ed88571073e540c0c7c2efcc548b14f0d59969f74701b7a043e97225fe67",
          "blockNumber": "0x55f02c9",
          "blockTimestamp": "0x698f12cc",
          "transactionHash": "0xdc58ae8e42821021e3d794fd670d2d2874697dd52a940a19c0d8a5e6eacf3895",
          "transactionIndex": "0x6",
          "logIndex": "0x6",
          "removed": false
        }
      ],
      "logsBloom": "0x00000000000000000002000000000000000000000000002000000000000000000000000000000000000000000000000000000000000000000000000000000000000000000000000000000000800004000000000000000000000000000000000000000000000000000000000000000000000000000000000000000000000000000000000000000000000000000000000000000800000000000000000000000000000000000000000000000000000000000000000000000000000000000000000000000000000000000000000000000000000000000000000000000000000001000000000040000000000000020000000000000000000000000100000000000000",
      "type": "0x2",
      "transactionHash": "0xdc58ae8e42821021e3d794fd670d2d2874697dd52a940a19c0d8a5e6eacf3895",
      "transactionIndex": "0x6",
      "blockHash": "0x3c11ed88571073e540c0c7c2efcc548b14f0d59969f74701b7a043e97225fe67",
      "blockNumber": "0x55f02c9",
      "gasUsed": "0xbb01",
      "effectiveGasPrice": "0x5f5e100",
      "from": "0xc8306a4a2da13f8e3c30d5096f19d5f01969aa7d",
      "to": "0xae9b520f9efdd9d0ba0a913aca475a3581bb4b4c",
      "contractAddress": null
    },
    {
      "status": "0x1",
      "cumulativeGasUsed": "0x87132",
      "logs": [
        {
          "address": "0xae9b520f9efdd9d0ba0a913aca475a3581bb4b4c",
          "topics": [
            "0xc8feb62b1b295ccec8d4fcabfae6673ec51dd67cf746942a19f162afa891a9f4",
            "0x000000000000000000000000ae13d989dac2f0debff460ac112a837c89baa7cd",
            "0x095ea7b300000000000000000000000000000000000000000000000000000000"
          ],
          "data": "0x0000000000000000000000000000000000000000000000000000000000000001",
          "blockHash": "0x3c11ed88571073e540c0c7c2efcc548b14f0d59969f74701b7a043e97225fe67",
          "blockNumber": "0x55f02c9",
          "blockTimestamp": "0x698f12cc",
          "transactionHash": "0x9375ce56f13da22b886770b326bb94f9ec7c67943e402556d546fccd63d8968e",
          "transactionIndex": "0x7",
          "logIndex": "0x7",
          "removed": false
        }
      ],
      "logsBloom": "0x00000000000000000000000000000000000000000000002000000000000000000000000040000000000000000400000000000000000000000008000000000000000000000000000000000000000004000000000000000000000000000000000000000000000000000000000000000000000000000000000000000000000000000000000000000000000000000000000000000800000000000000000000000000000000000000000000000000000000000000002000000000000000000000000000000008000200000000000000000000000000000000000000000000000001000000000040000000000000020000000000000000000000000000000000000000",
      "type": "0x2",
      "transactionHash": "0x9375ce56f13da22b886770b326bb94f9ec7c67943e402556d546fccd63d8968e",
      "transactionIndex": "0x7",
      "blockHash": "0x3c11ed88571073e540c0c7c2efcc548b14f0d59969f74701b7a043e97225fe67",
      "blockNumber": "0x55f02c9",
      "gasUsed": "0xbe10",
      "effectiveGasPrice": "0x5f5e100",
      "from": "0xc8306a4a2da13f8e3c30d5096f19d5f01969aa7d",
      "to": "0xae9b520f9efdd9d0ba0a913aca475a3581bb4b4c",
      "contractAddress": null
    },
    {
      "status": "0x1",
      "cumulativeGasUsed": "0x92f42",
      "logs": [
        {
          "address": "0xae9b520f9efdd9d0ba0a913aca475a3581bb4b4c",
          "topics": [
            "0xc8feb62b1b295ccec8d4fcabfae6673ec51dd67cf746942a19f162afa891a9f4",
            "0x000000000000000000000000ae13d989dac2f0debff460ac112a837c89baa7cd",
            "0xd0e30db000000000000000000000000000000000000000000000000000000000"
          ],
          "data": "0x0000000000000000000000000000000000000000000000000000000000000001",
          "blockHash": "0x3c11ed88571073e540c0c7c2efcc548b14f0d59969f74701b7a043e97225fe67",
          "blockNumber": "0x55f02c9",
          "blockTimestamp": "0x698f12cc",
          "transactionHash": "0x40dcba7e779c3b34eea3be68d428aa006b508ca15e3139d04e4c7c184fa89749",
          "transactionIndex": "0x8",
          "logIndex": "0x8",
          "removed": false
        }
      ],
      "logsBloom": "0x00000000000000000000000000000000000000000000002000000000000000000000000040000000000000000000000000000000000000000000000000000000000000000000000000000000000004000000000000000000000000000000000000000000000000000000000000000010000000000000000000000000000000000000000000000000000000000000000000000800000000000000000000000000000000000000000000000000000000000000002000000000000000800000000000000000000200000000000000000000040000000000000000000000000001000000000040000000000000020000000000000000000000000000000000000000",
      "type": "0x2",
      "transactionHash": "0x40dcba7e779c3b34eea3be68d428aa006b508ca15e3139d04e4c7c184fa89749",
      "transactionIndex": "0x8",
      "blockHash": "0x3c11ed88571073e540c0c7c2efcc548b14f0d59969f74701b7a043e97225fe67",
      "blockNumber": "0x55f02c9",
      "gasUsed": "0xbe10",
      "effectiveGasPrice": "0x5f5e100",
      "from": "0xc8306a4a2da13f8e3c30d5096f19d5f01969aa7d",
      "to": "0xae9b520f9efdd9d0ba0a913aca475a3581bb4b4c",
      "contractAddress": null
    },
    {
      "status": "0x1",
      "cumulativeGasUsed": "0x9ed52",
      "logs": [
        {
          "address": "0xae9b520f9efdd9d0ba0a913aca475a3581bb4b4c",
          "topics": [
            "0xc8feb62b1b295ccec8d4fcabfae6673ec51dd67cf746942a19f162afa891a9f4",
            "0x000000000000000000000000ae13d989dac2f0debff460ac112a837c89baa7cd",
            "0x2e1a7d4d00000000000000000000000000000000000000000000000000000000"
          ],
          "data": "0x0000000000000000000000000000000000000000000000000000000000000001",
          "blockHash": "0x3c11ed88571073e540c0c7c2efcc548b14f0d59969f74701b7a043e97225fe67",
          "blockNumber": "0x55f02c9",
          "blockTimestamp": "0x698f12cc",
          "transactionHash": "0x367ab547f00574ebd0187414e49fca83c6c286f1e73e2fe203ef013cdcf4eeea",
          "transactionIndex": "0x9",
          "logIndex": "0x9",
          "removed": false
        }
      ],
      "logsBloom": "0x00000000000000000000000000000000000000000000002000000000000000000000000040000000000000000000000000000000000000000000000000000000000000000000000000000000000004000000000000000000000000000000000000000000000000000000000000000000000000000000000400000000000000000000000000040000000000000000000000000800000000000000000000000000000000000200000000000000000000000000002000000000000000000000000000000000000200000000000000000000000000000000000000000000000001000000000040000000000000020000000000000000000000000000000000000000",
      "type": "0x2",
      "transactionHash": "0x367ab547f00574ebd0187414e49fca83c6c286f1e73e2fe203ef013cdcf4eeea",
      "transactionIndex": "0x9",
      "blockHash": "0x3c11ed88571073e540c0c7c2efcc548b14f0d59969f74701b7a043e97225fe67",
      "blockNumber": "0x55f02c9",
      "gasUsed": "0xbe10",
      "effectiveGasPrice": "0x5f5e100",
      "from": "0xc8306a4a2da13f8e3c30d5096f19d5f01969aa7d",
      "to": "0xae9b520f9efdd9d0ba0a913aca475a3581bb4b4c",
      "contractAddress": null
    },
    {
      "status": "0x1",
      "cumulativeGasUsed": "0xaabe3",
      "logs": [
        {
          "address": "0xae9b520f9efdd9d0ba0a913aca475a3581bb4b4c",
          "topics": [
            "0x95c087089192bf9794af589e4c80ce5881b2309bf8e2a09281a94db4896bd41d",
            "0x000000000000000000000000ae13d989dac2f0debff460ac112a837c89baa7cd",
            "0x000000000000000000000000d99d1c33f9fc3444f8101754abc46c52416550d1"
          ],
          "data": "0x0000000000000000000000000000000000000000000000000000000000000001",
          "blockHash": "0x3c11ed88571073e540c0c7c2efcc548b14f0d59969f74701b7a043e97225fe67",
          "blockNumber": "0x55f02c9",
          "blockTimestamp": "0x698f12cc",
          "transactionHash": "0x10ecbd5f3bd869eddecb26b23d5ed748c6239da49093321e5dd946b167fafd35",
          "transactionIndex": "0xa",
          "logIndex": "0xa",
          "removed": false
        }
      ],
      "logsBloom": "0x00000000000000000000000000000000000040000000002000000000000000000000000000000000000000000000000000080000000000000000000000000000004000000000000000000000000004000000000000000000000000008000000000000000000000000000000000000000000000000000000000000000000000000000000000000000000000000000000000000800000000000000000000000000000000000000000000000000000000000000000000000000000000000000000000000000000400000000000000000000000000000000000000000000000001000000000040000000000000020000000000000000000000000000010000000000",
      "type": "0x2",
      "transactionHash": "0x10ecbd5f3bd869eddecb26b23d5ed748c6239da49093321e5dd946b167fafd35",
      "transactionIndex": "0xa",
      "blockHash": "0x3c11ed88571073e540c0c7c2efcc548b14f0d59969f74701b7a043e97225fe67",
      "blockNumber": "0x55f02c9",
      "gasUsed": "0xbe91",
      "effectiveGasPrice": "0x5f5e100",
      "from": "0xc8306a4a2da13f8e3c30d5096f19d5f01969aa7d",
      "to": "0xae9b520f9efdd9d0ba0a913aca475a3581bb4b4c",
      "contractAddress": null
    },
    {
      "status": "0x1",
      "cumulativeGasUsed": "0xb66ad",
      "logs": [
        {
          "address": "0xae9b520f9efdd9d0ba0a913aca475a3581bb4b4c",
          "topics": [
            "0xdcb2804db02b95bdd568fd11a31c5577ffdf36538c0f670e92930d9c1e8518ab",
            "0x000000000000000000000000337610d27c682e347c9cd60bd4b3b107c9d34ddd"
          ],
          "data": "0x0000000000000000000000000000000000000000000000000000000000000001",
          "blockHash": "0x3c11ed88571073e540c0c7c2efcc548b14f0d59969f74701b7a043e97225fe67",
          "blockNumber": "0x55f02c9",
          "blockTimestamp": "0x698f12cc",
          "transactionHash": "0x6e52aa2363ea3cce5a14cd85c37c6f757b50b23c2ce666df2512778152f96fa6",
          "transactionIndex": "0xb",
          "logIndex": "0xb",
          "removed": false
        }
      ],
      "logsBloom": "0x00000000000000000000000000000000000000000000000000000000000000000002000000000000010000000000000000000000000000000000000000100000000000000000000000000000000000000000000000000000000000000001000000000000000000000000000000000000000000000000000000000000000000000000000000000000000000000000008000000800000000000000000000000000000000000000000000000000000000000000000000000000000000000000000000000000000000000000000000000000000000000000000000000000010000000000000040000000000000020000000000000000000000000000000000000000",
      "type": "0x2",
      "transactionHash": "0x6e52aa2363ea3cce5a14cd85c37c6f757b50b23c2ce666df2512778152f96fa6",
      "transactionIndex": "0xb",
      "blockHash": "0x3c11ed88571073e540c0c7c2efcc548b14f0d59969f74701b7a043e97225fe67",
      "blockNumber": "0x55f02c9",
      "gasUsed": "0xbaca",
      "effectiveGasPrice": "0x5f5e100",
      "from": "0xc8306a4a2da13f8e3c30d5096f19d5f01969aa7d",
      "to": "0xae9b520f9efdd9d0ba0a913aca475a3581bb4b4c",
      "contractAddress": null
    },
    {
      "status": "0x1",
      "cumulativeGasUsed": "0xc21ae",
      "logs": [
        {
          "address": "0xae9b520f9efdd9d0ba0a913aca475a3581bb4b4c",
          "topics": [
            "0xd5cc69c3fd825b34b369396f105ab7c13b09d888d513418c0e02a42db3133999",
            "0x000000000000000000000000337610d27c682e347c9cd60bd4b3b107c9d34ddd"
          ],
          "data": "0x0000000000000000000000000000000000000000000000000000000000000001",
          "blockHash": "0x3c11ed88571073e540c0c7c2efcc548b14f0d59969f74701b7a043e97225fe67",
          "blockNumber": "0x55f02c9",
          "blockTimestamp": "0x698f12cc",
          "transactionHash": "0x66892e7522cb84b2c083246856b1624a522fd5918ede84d5467b35b10a2e50ca",
          "transactionIndex": "0xc",
          "logIndex": "0xc",
          "removed": false
        }
      ],
      "logsBloom": "0x00000000000000000002000000000000000000000000000000000000000000000000000000000000000000000000000000000000000000000000000000100000000000000000000000000000800000000000000000000000000000000001000000000000000000000000000000000000000000000000000000000000000000000000000000000000000000000000008000000800000000000000000000000000000000000000000000000000000000000000000000000000000000000000000000000000000000000000000000000000000000000000000000000000000000000000000040000000000000020000000000000000000000000100000000000000",
      "type": "0x2",
      "transactionHash": "0x66892e7522cb84b2c083246856b1624a522fd5918ede84d5467b35b10a2e50ca",
      "transactionIndex": "0xc",
      "blockHash": "0x3c11ed88571073e540c0c7c2efcc548b14f0d59969f74701b7a043e97225fe67",
      "blockNumber": "0x55f02c9",
      "gasUsed": "0xbb01",
      "effectiveGasPrice": "0x5f5e100",
      "from": "0xc8306a4a2da13f8e3c30d5096f19d5f01969aa7d",
      "to": "0xae9b520f9efdd9d0ba0a913aca475a3581bb4b4c",
      "contractAddress": null
    },
    {
      "status": "0x1",
      "cumulativeGasUsed": "0xcdfbe",
      "logs": [
        {
          "address": "0xae9b520f9efdd9d0ba0a913aca475a3581bb4b4c",
          "topics": [
            "0xc8feb62b1b295ccec8d4fcabfae6673ec51dd67cf746942a19f162afa891a9f4",
            "0x000000000000000000000000337610d27c682e347c9cd60bd4b3b107c9d34ddd",
            "0x095ea7b300000000000000000000000000000000000000000000000000000000"
          ],
          "data": "0x0000000000000000000000000000000000000000000000000000000000000001",
          "blockHash": "0x3c11ed88571073e540c0c7c2efcc548b14f0d59969f74701b7a043e97225fe67",
          "blockNumber": "0x55f02c9",
          "blockTimestamp": "0x698f12cc",
          "transactionHash": "0xec334ded83617052b545e5da17f9edc3a78cfee39b8df926a271b7e40d59b319",
          "transactionIndex": "0xd",
          "logIndex": "0xd",
          "removed": false
        }
      ],
      "logsBloom": "0x00000000000000000000000000000000000000000000000000000000000000000000000040000000000000000400000000000000000000000008000000100000000000000000000000000000000000000000000000000000000000000001000000000000000000000000000000000000000000000000000000000000000000000000000000000000000000000000008000000800000000000000000000000000000000000000000000000000000000000000002000000000000000000000000000000008000200000000000000000000000000000000000000000000000000000000000040000000000000020000000000000000000000000000000000000000",
      "type": "0x2",
      "transactionHash": "0xec334ded83617052b545e5da17f9edc3a78cfee39b8df926a271b7e40d59b319",
      "transactionIndex": "0xd",
      "blockHash": "0x3c11ed88571073e540c0c7c2efcc548b14f0d59969f74701b7a043e97225fe67",
      "blockNumber": "0x55f02c9",
      "gasUsed": "0xbe10",
      "effectiveGasPrice": "0x5f5e100",
      "from": "0xc8306a4a2da13f8e3c30d5096f19d5f01969aa7d",
      "to": "0xae9b520f9efdd9d0ba0a913aca475a3581bb4b4c",
      "contractAddress": null
    },
    {
      "status": "0x1",
      "cumulativeGasUsed": "0xd9e4f",
      "logs": [
        {
          "address": "0xae9b520f9efdd9d0ba0a913aca475a3581bb4b4c",
          "topics": [
            "0x95c087089192bf9794af589e4c80ce5881b2309bf8e2a09281a94db4896bd41d",
            "0x000000000000000000000000337610d27c682e347c9cd60bd4b3b107c9d34ddd",
            "0x000000000000000000000000d99d1c33f9fc3444f8101754abc46c52416550d1"
          ],
          "data": "0x0000000000000000000000000000000000000000000000000000000000000001",
          "blockHash": "0x3c11ed88571073e540c0c7c2efcc548b14f0d59969f74701b7a043e97225fe67",
          "blockNumber": "0x55f02c9",
          "blockTimestamp": "0x698f12cc",
          "transactionHash": "0x70e4f59b9f35532b8529664e5c7eef6754d646b4ac8135577c88f7ea3dd0c491",
          "transactionIndex": "0xe",
          "logIndex": "0xe",
          "removed": false
        }
      ],
      "logsBloom": "0x00000000000000000000000000000000000040000000000000000000000000000000000000000000000000000000000000080000000000000000000000100000004000000000000000000000000000000000000000000000000000008001000000000000000000000000000000000000000000000000000000000000000000000000000000000000000000000000008000000800000000000000000000000000000000000000000000000000000000000000000000000000000000000000000000000000000400000000000000000000000000000000000000000000000000000000000040000000000000020000000000000000000000000000010000000000",
      "type": "0x2",
      "transactionHash": "0x70e4f59b9f35532b8529664e5c7eef6754d646b4ac8135577c88f7ea3dd0c491",
      "transactionIndex": "0xe",
      "blockHash": "0x3c11ed88571073e540c0c7c2efcc548b14f0d59969f74701b7a043e97225fe67",
      "blockNumber": "0x55f02c9",
      "gasUsed": "0xbe91",
      "effectiveGasPrice": "0x5f5e100",
      "from": "0xc8306a4a2da13f8e3c30d5096f19d5f01969aa7d",
      "to": "0xae9b520f9efdd9d0ba0a913aca475a3581bb4b4c",
      "contractAddress": null
    },
    {
      "status": "0x1",
      "cumulativeGasUsed": "0xe5950",
      "logs": [
        {
          "address": "0xae9b520f9efdd9d0ba0a913aca475a3581bb4b4c",
          "topics": [
            "0xd5cc69c3fd825b34b369396f105ab7c13b09d888d513418c0e02a42db3133999",
            "0x000000000000000000000000b7526572ffe56ab9d7489838bf2e18e3323b441a"
          ],
          "data": "0x0000000000000000000000000000000000000000000000000000000000000001",
          "blockHash": "0x3c11ed88571073e540c0c7c2efcc548b14f0d59969f74701b7a043e97225fe67",
          "blockNumber": "0x55f02c9",
          "blockTimestamp": "0x698f12cc",
          "transactionHash": "0x8911d77682637f4e9e51258a87fef3242625264939c0ea991a14498071059fe8",
          "transactionIndex": "0xf",
          "logIndex": "0xf",
          "removed": false
        }
      ],
      "logsBloom": "0x00000000000000000002000000000000000000000000000040000000000000000000000000000000000000000000000000000000000000000000000000000000000000000000000000000000800000000000000000000010000000000000000000000000000000000000000000000000000000000000000000000000000000000000000000000000000000000000000000000800000000000000000000000000000000000000000000000000000000000000000000000000020000000000000000000000000000000000000000000000000000000000000000000000000000000000000040000000000000020000000000000000000000000100000000000000",
      "type": "0x2",
      "transactionHash": "0x8911d77682637f4e9e51258a87fef3242625264939c0ea991a14498071059fe8",
      "transactionIndex": "0xf",
      "blockHash": "0x3c11ed88571073e540c0c7c2efcc548b14f0d59969f74701b7a043e97225fe67",
      "blockNumber": "0x55f02c9",
      "gasUsed": "0xbb01",
      "effectiveGasPrice": "0x5f5e100",
      "from": "0xc8306a4a2da13f8e3c30d5096f19d5f01969aa7d",
      "to": "0xae9b520f9efdd9d0ba0a913aca475a3581bb4b4c",
      "contractAddress": null
    },
    {
      "status": "0x1",
      "cumulativeGasUsed": "0xf1760",
      "logs": [
        {
          "address": "0xae9b520f9efdd9d0ba0a913aca475a3581bb4b4c",
          "topics": [
            "0xc8feb62b1b295ccec8d4fcabfae6673ec51dd67cf746942a19f162afa891a9f4",
            "0x000000000000000000000000b7526572ffe56ab9d7489838bf2e18e3323b441a",
            "0x2608f81800000000000000000000000000000000000000000000000000000000"
          ],
          "data": "0x0000000000000000000000000000000000000000000000000000000000000001",
          "blockHash": "0x3c11ed88571073e540c0c7c2efcc548b14f0d59969f74701b7a043e97225fe67",
          "blockNumber": "0x55f02c9",
          "blockTimestamp": "0x698f12cc",
          "transactionHash": "0x23d08e0afafeb9fb6244bfb43735cb0bff3456cfdae9dfec3855133bc47d2a58",
          "transactionIndex": "0x10",
          "logIndex": "0x10",
          "removed": false
        }
      ],
      "logsBloom": "0x00000000000000000000000000000000000000000000000040000000000000000000000040000000000000000000000000000000000000000000000000000000000000000000000000000000000000000000000000000010000800000000000000000000000000000000000000000000000000000000000000000000000000000000000000000000000000000000000000000800000000000000000000000000000008000000000000000000000000000000002000000000020000000000000000000000000200000000000000000000000000000000000000000000000000000000000040000000000000120000000000000000000000000000000000000000",
      "type": "0x2",
      "transactionHash": "0x23d08e0afafeb9fb6244bfb43735cb0bff3456cfdae9dfec3855133bc47d2a58",
      "transactionIndex": "0x10",
      "blockHash": "0x3c11ed88571073e540c0c7c2efcc548b14f0d59969f74701b7a043e97225fe67",
      "blockNumber": "0x55f02c9",
      "gasUsed": "0xbe10",
      "effectiveGasPrice": "0x5f5e100",
      "from": "0xc8306a4a2da13f8e3c30d5096f19d5f01969aa7d",
      "to": "0xae9b520f9efdd9d0ba0a913aca475a3581bb4b4c",
      "contractAddress": null
    },
    {
      "status": "0x1",
      "cumulativeGasUsed": "0xfcfd6",
      "logs": [
        {
          "address": "0xae9b520f9efdd9d0ba0a913aca475a3581bb4b4c",
          "topics": [
            "0x7aed1d3e8155a07ccf395e44ea3109a0e2d6c9b29bbbe9f142d9790596f4dc80",
            "0x000000000000000000000000d99d1c33f9fc3444f8101754abc46c52416550d1"
          ],
          "data": "0x",
          "blockHash": "0x3c11ed88571073e540c0c7c2efcc548b14f0d59969f74701b7a043e97225fe67",
          "blockNumber": "0x55f02c9",
          "blockTimestamp": "0x698f12cc",
          "transactionHash": "0xfdc2f16921e6ca86a188ea4f035c37429db92913b63b9e75a290d0e0fe98a29f",
          "transactionIndex": "0x11",
          "logIndex": "0x11",
          "removed": false
        }
      ],
      "logsBloom": "0x00000000000000000000000000000000000040000000000000000000000000000000000000000000000000000000000000080000000000000000000000000000004000000000000000000000000000000000000000000000000000000000000000000000000000000000000000000000000000000000000000000000000000000000000000000000000000000000000000000800400000000000000001000040000000000000000000000000000000000000000000000000000000000000000000000000000000000000000000000000000000000000000000000000000000000000000040000000000000020000000000000000000000000000000000000000",
      "type": "0x2",
      "transactionHash": "0xfdc2f16921e6ca86a188ea4f035c37429db92913b63b9e75a290d0e0fe98a29f",
      "transactionIndex": "0x11",
      "blockHash": "0x3c11ed88571073e540c0c7c2efcc548b14f0d59969f74701b7a043e97225fe67",
      "blockNumber": "0x55f02c9",
      "gasUsed": "0xb876",
      "effectiveGasPrice": "0x5f5e100",
      "from": "0xc8306a4a2da13f8e3c30d5096f19d5f01969aa7d",
      "to": "0xae9b520f9efdd9d0ba0a913aca475a3581bb4b4c",
      "contractAddress": null
    }
  ],
  "libraries": [],
  "pending": [],
  "returns": {},
  "timestamp": 1770984141670,
  "chain": 97,
  "commit": "259be4e"
}