{
  "transactions": [
    {
      "hash": "0x7250c3867cc351cd8cc286867ada5dc6a4cb0764b852cb173ca254142491d348",
      "transactionType": "CALL",
      "contractName": null,
      "contractAddress": "0x30ba562ce38fbd0ff300dfc4b0271fe9c40c4cf0",
      "function": "mintAgent(address,bytes32,string,(string,string,string,string,string,bytes32))",
      "arguments": [
        "0xc8306a4a2dA13F8e3c30D5096f19D5F01969Aa7D",
        "0x0000000000000000000000000000000000000000000000000000000000000001",
        "https://api.shll.io/metadata/1",
        "({\\\"name\\\": \\\"Alpha Trader\\\", \\\"role\\\": \\\"DeFi Sniper\\\", \\\"description\\\": \\\"High-frequency arbitrage bot\\\"}, Level 10, QmVoiceHash1, ipfs://QmAnimation1, https://vault.shll.io/agent/1, 0x0000000000000000000000000000000000000000000000000000000000000001)"
      ],
      "transaction": {
        "from": "0xc8306a4a2da13f8e3c30d5096f19d5f01969aa7d",
        "to": "0x30ba562ce38fbd0ff300dfc4b0271fe9c40c4cf0",
        "gas": "0x165d0e",
        "value": "0x0",
        "input": "0x7da1f729000000000000000000000000c8306a4a2da13f8e3c30d5096f19d5f01969aa7d0000000000000000000000000000000000000000000000000000000000000001000000000000000000000000000000000000000000000000000000000000008000000000000000000000000000000000000000000000000000000000000000c0000000000000000000000000000000000000000000000000000000000000001e68747470733a2f2f6170692e73686c6c2e696f2f6d657461646174612f31000000000000000000000000000000000000000000000000000000000000000000c00000000000000000000000000000000000000000000000000000000000000140000000000000000000000000000000000000000000000000000000000000018000000000000000000000000000000000000000000000000000000000000001c000000000000000000000000000000000000000000000000000000000000002000000000000000000000000000000000000000000000000000000000000000001000000000000000000000000000000000000000000000000000000000000005e7b226e616d65223a2022416c70686120547261646572222c2022726f6c65223a20224465466920536e69706572222c20226465736372697074696f6e223a2022486967682d6672657175656e63792061726269747261676520626f74227d000000000000000000000000000000000000000000000000000000000000000000084c6576656c203130000000000000000000000000000000000000000000000000000000000000000000000000000000000000000000000000000000000000000c516d566f696365486173683100000000000000000000000000000000000000000000000000000000000000000000000000000000000000000000000000000013697066733a2f2f516d416e696d6174696f6e3100000000000000000000000000000000000000000000000000000000000000000000000000000000000000001d68747470733a2f2f7661756c742e73686c6c2e696f2f6167656e742f31000000",
        "nonce": "0x1b",
        "chainId": "0x61"
      },
      "additionalContracts": [
        {
          "transactionType": "CREATE",
          "contractName": "AgentAccount",
          "address": "0x8b8d6eca5ad158191854301fa976694bfdce2a23",
          "initCode": "0x60c060405234801561001057600080fd5b50604051610d42380380610d4283398101604081905261002f91610071565b60016000556001600160a01b03821661005b5760405163d92e233d60e01b815260040160405180910390fd5b6001600160a01b0390911660805260a0526100ab565b6000806040838503121561008457600080fd5b82516001600160a01b038116811461009b57600080fd5b6020939093015192949293505050565b60805160a051610c516100f16000396000818160c801528181610557015261060201526000818160770152818161028b0152818161058001526106360152610c516000f3fe6080604052600436106100595760003560e01c80631189823a1461006557806317d70f7c146100b6578063338b5dea146100f85780633ccdbb281461011a5780639e5d4c491461013a578063b8ca8dd81461016857600080fd5b3661006057005b600080fd5b34801561007157600080fd5b506100997f000000000000000000000000000000000000000000000000000000000000000081565b6040516001600160a01b0390911681526020015b60405180910390f35b3480156100c257600080fd5b506100ea7f000000000000000000000000000000000000000000000000000000000000000081565b6040519081526020016100ad565b34801561010457600080fd5b50610118610113366004610a01565b610188565b005b34801561012657600080fd5b50610118610135366004610a2d565b6101f3565b34801561014657600080fd5b5061015a610155366004610a6f565b610274565b6040516100ad929190610b4b565b34801561017457600080fd5b50610118610183366004610b66565b610385565b610190610479565b6101a56001600160a01b0383163330846104d7565b60405181815233906001600160a01b038416907f8752a472e571a816aea92eec8dae9baf628e840f4929fbcc2d155e6233ff68a79060200160405180910390a36101ef6001600055565b5050565b6101fb610479565b61020481610548565b6102186001600160a01b0384168284610754565b806001600160a01b0316836001600160a01b03167f11dd463c4f2edd676b85f050130c7ab2f5832f52becb5444b09a92404aa1498a8460405161025d91815260200190565b60405180910390a361026f6001600055565b505050565b60006060610280610479565b336001600160a01b037f000000000000000000000000000000000000000000000000000000000000000016146102c95760405163a3b2ae2960e01b815260040160405180910390fd5b856001600160a01b03168585856040516102e4929190610b96565b60006040518083038185875af1925050503d8060008114610321576040519150601f19603f3d011682016040523d82523d6000602084013e610326565b606091505b506040805188815283151560208201529294509092506001600160a01b038816917f8de43d9a73b67cd262221606ac0627d14cbcfa306b96d16bd9e20e72771cb4ed910160405180910390a261037c6001600055565b94509492505050565b61038d610479565b61039681610548565b478211156103b757604051631e9acf1760e31b815260040160405180910390fd5b6000816001600160a01b03168360405160006040518083038185875af1925050503d8060008114610404576040519150601f19603f3d011682016040523d82523d6000602084013e610409565b606091505b505090508061042b57604051632b3f6d1160e21b815260040160405180910390fd5b816001600160a01b03167fc4825c2033e49b7d8db9d453f0a5953dc550c9452166b576df9f456893f1695f8460405161046691815260200190565b60405180910390a2506101ef6001600055565b6002600054036104d05760405162461bcd60e51b815260206004820152601f60248201527f5265656e7472616e637947756172643a207265656e7472616e742063616c6c0060448201526064015b60405180910390fd5b6002600055565b6040516001600160a01b03808516602483015283166044820152606481018290526105429085906323b872dd60e01b906084015b60408051601f198184030181529190526020810180516001600160e01b03166001600160e01b031990931692909217909152610784565b50505050565b6040516331a9108f60e11b81527f000000000000000000000000000000000000000000000000000000000000000060048201526000907f00000000000000000000000000000000000000000000000000000000000000006001600160a01b031690636352211e90602401602060405180830381865afa1580156105cf573d6000803e3d6000fd5b505050506040513d601f19601f820116820180604052508101906105f39190610ba6565b604051636178f8a560e11b81527f000000000000000000000000000000000000000000000000000000000000000060048201529091506000906001600160a01b037f0000000000000000000000000000000000000000000000000000000000000000169063c2f1f14a90602401602060405180830381865afa15801561067d573d6000803e3d6000fd5b505050506040513d601f19601f820116820180604052508101906106a19190610ba6565b90506001600160a01b03821633036106e557816001600160a01b0316836001600160a01b03161461026f57604051632139426360e01b815260040160405180910390fd5b336001600160a01b03821614801561070557506001600160a01b03811615155b1561073c57806001600160a01b0316836001600160a01b03161461026f57604051632139426360e01b815260040160405180910390fd5b6040516282b42960e81b815260040160405180910390fd5b6040516001600160a01b03831660248201526044810182905261026f90849063a9059cbb60e01b9060640161050b565b60006107d9826040518060400160405280602081526020017f5361666545524332303a206c6f772d6c6576656c2063616c6c206661696c6564815250856001600160a01b03166108599092919063ffffffff16565b90508051600014806107fa5750808060200190518101906107fa9190610bca565b61026f5760405162461bcd60e51b815260206004820152602a60248201527f5361666545524332303a204552433230206f7065726174696f6e20646964206e6044820152691bdd081cdd58d8d9595960b21b60648201526084016104c7565b60606108688484600085610870565b949350505050565b6060824710156108d15760405162461bcd60e51b815260206004820152602660248201527f416464726573733a20696e73756666696369656e742062616c616e636520666f6044820152651c8818d85b1b60d21b60648201526084016104c7565b600080866001600160a01b031685876040516108ed9190610bec565b60006040518083038185875af1925050503d806000811461092a576040519150601f19603f3d011682016040523d82523d6000602084013e61092f565b606091505b50915091506109408783838761094b565b979650505050505050565b606083156109ba5782516000036109b3576001600160a01b0385163b6109b35760405162461bcd60e51b815260206004820152601d60248201527f416464726573733a2063616c6c20746f206e6f6e2d636f6e747261637400000060448201526064016104c7565b5081610868565b61086883838151156109cf5781518083602001fd5b8060405162461bcd60e51b81526004016104c79190610c08565b6001600160a01b03811681146109fe57600080fd5b50565b60008060408385031215610a1457600080fd5b8235610a1f816109e9565b946020939093013593505050565b600080600060608486031215610a4257600080fd5b8335610a4d816109e9565b9250602084013591506040840135610a64816109e9565b809150509250925092565b60008060008060608587031215610a8557600080fd5b8435610a90816109e9565b935060208501359250604085013567ffffffffffffffff811115610ab357600080fd5b8501601f81018713610ac457600080fd5b803567ffffffffffffffff811115610adb57600080fd5b876020828401011115610aed57600080fd5b949793965060200194505050565b60005b83811015610b16578181015183820152602001610afe565b50506000910152565b60008151808452610b37816020860160208601610afb565b601f01601f19169290920160200192915050565b82151581526040602082015260006108686040830184610b1f565b60008060408385031215610b7957600080fd5b823591506020830135610b8b816109e9565b809150509250929050565b8183823760009101908152919050565b600060208284031215610bb857600080fd5b8151610bc3816109e9565b9392505050565b600060208284031215610bdc57600080fd5b81518015158114610bc357600080fd5b60008251610bfe818460208701610afb565b9190910192915050565b602081526000610bc36020830184610b1f56fea2646970667358221220c5a11ee968777f0b05acd978640c77c63887bdabeb4250c784fd52e31e0d69dd64736f6c6343000821003300000000000000000000000030ba562ce38fbd0ff300dfc4b0271fe9c40c4cf00000000000000000000000000000000000000000000000000000000000000000"
        }
      ],
      "isFixedGasLimit": false
    },
    {
      "hash": "0x8b8da2b17577300544912f1d158521f76c4987eeb3d366e40a729c40e04333e0",
      "transactionType": "CALL",
      "contractName": null,
      "contractAddress": "0x30ba562ce38fbd0ff300dfc4b0271fe9c40c4cf0",
      "function": "approve(address,uint256)",
      "arguments": [
        "0x599917b3df76b9A599b4C6f58E6aE5adE9b185B5",
        "0"
      ],
      "transaction": {
        "from": "0xc8306a4a2da13f8e3c30d5096f19d5f01969aa7d",
        "to": "0x30ba562ce38fbd0ff300dfc4b0271fe9c40c4cf0",
        "gas": "0x116e5",
        "value": "0x0",
        "input": "0x095ea7b3000000000000000000000000599917b3df76b9a599b4c6f58e6ae5ade9b185b50000000000000000000000000000000000000000000000000000000000000000",
        "nonce": "0x1c",
        "chainId": "0x61"
      },
      "additionalContracts": [],
      "isFixedGasLimit": false
    },
    {
      "hash": "0x9375b8866637f14269b0581272efde4818ca45ee9a707ec1d10bf0c347fde6a4",
      "transactionType": "CALL",
      "contractName": null,
      "contractAddress": "0x599917b3df76b9a599b4c6f58e6ae5ade9b185b5",
      "function": "createListing(address,uint256,uint96,uint32)",
      "arguments": [
        "0x30Ba562CE38fbD0ff300Dfc4b0271fe9c40C4cf0",
        "0",
        "10000000000000000",
        "1"
      ],
      "transaction": {
        "from": "0xc8306a4a2da13f8e3c30d5096f19d5f01969aa7d",
        "to": "0x599917b3df76b9a599b4c6f58e6ae5ade9b185b5",
        "gas": "0x30a19",
        "value": "0x0",
        "input": "0x460cfdac00000000000000000000000030ba562ce38fbd0ff300dfc4b0271fe9c40c4cf00000000000000000000000000000000000000000000000000000000000000000000000000000000000000000000000000000000000000000002386f26fc100000000000000000000000000000000000000000000000000000000000000000001",
        "nonce": "0x1d",
        "chainId": "0x61"
      },
      "additionalContracts": [],
      "isFixedGasLimit": false
    },
    {
      "hash": "0x6c9d8fae523bd37873f2343e482403bae2486ee5267747dbbe5ae7a3aa33395d",
      "transactionType": "CALL",
      "contractName": null,
      "contractAddress": "0x30ba562ce38fbd0ff300dfc4b0271fe9c40c4cf0",
      "function": "mintAgent(address,bytes32,string,(string,string,string,string,string,bytes32))",
      "arguments": [
        "0xc8306a4a2dA13F8e3c30D5096f19D5F01969Aa7D",
        "0x0000000000000000000000000000000000000000000000000000000000000001",
        "https://api.shll.io/metadata/2",
        "({\\\"name\\\": \\\"Yield Harvester\\\", \\\"role\\\": \\\"Farmer\\\", \\\"description\\\": \\\"Automated yield compounding\\\"}, Level 5, QmVoiceHash2, ipfs://QmAnimation2, https://vault.shll.io/agent/2, 0x0000000000000000000000000000000000000000000000000000000000000002)"
      ],
      "transaction": {
        "from": "0xc8306a4a2da13f8e3c30d5096f19d5f01969aa7d",
        "to": "0x30ba562ce38fbd0ff300dfc4b0271fe9c40c4cf0",
        "gas": "0x15a445",
        "value": "0x0",
        "input": "0x7da1f729000000000000000000000000c8306a4a2da13f8e3c30d5096f19d5f01969aa7d0000000000000000000000000000000000000000000000000000000000000001000000000000000000000000000000000000000000000000000000000000008000000000000000000000000000000000000000000000000000000000000000c0000000000000000000000000000000000000000000000000000000000000001e68747470733a2f2f6170692e73686c6c2e696f2f6d657461646174612f32000000000000000000000000000000000000000000000000000000000000000000c00000000000000000000000000000000000000000000000000000000000000140000000000000000000000000000000000000000000000000000000000000018000000000000000000000000000000000000000000000000000000000000001c000000000000000000000000000000000000000000000000000000000000002000000000000000000000000000000000000000000000000000000000000000002000000000000000000000000000000000000000000000000000000000000005b7b226e616d65223a20225969656c6420486172766573746572222c2022726f6c65223a20224661726d6572222c20226465736372697074696f6e223a20224175746f6d61746564207969656c6420636f6d706f756e64696e67227d000000000000000000000000000000000000000000000000000000000000000000000000074c6576656c203500000000000000000000000000000000000000000000000000000000000000000000000000000000000000000000000000000000000000000c516d566f696365486173683200000000000000000000000000000000000000000000000000000000000000000000000000000000000000000000000000000013697066733a2f2f516d416e696d6174696f6e3200000000000000000000000000000000000000000000000000000000000000000000000000000000000000001d68747470733a2f2f7661756c742e73686c6c2e696f2f6167656e742f32000000",
        "nonce": "0x1e",
        "chainId": "0x61"
      },
      "additionalContracts": [
        {
          "transactionType": "CREATE",
          "contractName": "AgentAccount",
          "address": "0xfbc77ce36722cab7ef601ee11f048090ded2f4bf",
          "initCode": "0x60c060405234801561001057600080fd5b50604051610d42380380610d4283398101604081905261002f91610071565b60016000556001600160a01b03821661005b5760405163d92e233d60e01b815260040160405180910390fd5b6001600160a01b0390911660805260a0526100ab565b6000806040838503121561008457600080fd5b82516001600160a01b038116811461009b57600080fd5b6020939093015192949293505050565b60805160a051610c516100f16000396000818160c801528181610557015261060201526000818160770152818161028b0152818161058001526106360152610c516000f3fe6080604052600436106100595760003560e01c80631189823a1461006557806317d70f7c146100b6578063338b5dea146100f85780633ccdbb281461011a5780639e5d4c491461013a578063b8ca8dd81461016857600080fd5b3661006057005b600080fd5b34801561007157600080fd5b506100997f000000000000000000000000000000000000000000000000000000000000000081565b6040516001600160a01b0390911681526020015b60405180910390f35b3480156100c257600080fd5b506100ea7f000000000000000000000000000000000000000000000000000000000000000081565b6040519081526020016100ad565b34801561010457600080fd5b50610118610113366004610a01565b610188565b005b34801561012657600080fd5b50610118610135366004610a2d565b6101f3565b34801561014657600080fd5b5061015a610155366004610a6f565b610274565b6040516100ad929190610b4b565b34801561017457600080fd5b50610118610183366004610b66565b610385565b610190610479565b6101a56001600160a01b0383163330846104d7565b60405181815233906001600160a01b038416907f8752a472e571a816aea92eec8dae9baf628e840f4929fbcc2d155e6233ff68a79060200160405180910390a36101ef6001600055565b5050565b6101fb610479565b61020481610548565b6102186001600160a01b0384168284610754565b806001600160a01b0316836001600160a01b03167f11dd463c4f2edd676b85f050130c7ab2f5832f52becb5444b09a92404aa1498a8460405161025d91815260200190565b60405180910390a361026f6001600055565b505050565b60006060610280610479565b336001600160a01b037f000000000000000000000000000000000000000000000000000000000000000016146102c95760405163a3b2ae2960e01b815260040160405180910390fd5b856001600160a01b03168585856040516102e4929190610b96565b60006040518083038185875af1925050503d8060008114610321576040519150601f19603f3d011682016040523d82523d6000602084013e610326565b606091505b506040805188815283151560208201529294509092506001600160a01b038816917f8de43d9a73b67cd262221606ac0627d14cbcfa306b96d16bd9e20e72771cb4ed910160405180910390a261037c6001600055565b94509492505050565b61038d610479565b61039681610548565b478211156103b757604051631e9acf1760e31b815260040160405180910390fd5b6000816001600160a01b03168360405160006040518083038185875af1925050503d8060008114610404576040519150601f19603f3d011682016040523d82523d6000602084013e610409565b606091505b505090508061042b57604051632b3f6d1160e21b815260040160405180910390fd5b816001600160a01b03167fc4825c2033e49b7d8db9d453f0a5953dc550c9452166b576df9f456893f1695f8460405161046691815260200190565b60405180910390a2506101ef6001600055565b6002600054036104d05760405162461bcd60e51b815260206004820152601f60248201527f5265656e7472616e637947756172643a207265656e7472616e742063616c6c0060448201526064015b60405180910390fd5b6002600055565b6040516001600160a01b03808516602483015283166044820152606481018290526105429085906323b872dd60e01b906084015b60408051601f198184030181529190526020810180516001600160e01b03166001600160e01b031990931692909217909152610784565b50505050565b6040516331a9108f60e11b81527f000000000000000000000000000000000000000000000000000000000000000060048201526000907f00000000000000000000000000000000000000000000000000000000000000006001600160a01b031690636352211e90602401602060405180830381865afa1580156105cf573d6000803e3d6000fd5b505050506040513d601f19601f820116820180604052508101906105f39190610ba6565b604051636178f8a560e11b81527f000000000000000000000000000000000000000000000000000000000000000060048201529091506000906001600160a01b037f0000000000000000000000000000000000000000000000000000000000000000169063c2f1f14a90602401602060405180830381865afa15801561067d573d6000803e3d6000fd5b505050506040513d601f19601f820116820180604052508101906106a19190610ba6565b90506001600160a01b03821633036106e557816001600160a01b0316836001600160a01b03161461026f57604051632139426360e01b815260040160405180910390fd5b336001600160a01b03821614801561070557506001600160a01b03811615155b1561073c57806001600160a01b0316836001600160a01b03161461026f57604051632139426360e01b815260040160405180910390fd5b6040516282b42960e81b815260040160405180910390fd5b6040516001600160a01b03831660248201526044810182905261026f90849063a9059cbb60e01b9060640161050b565b60006107d9826040518060400160405280602081526020017f5361666545524332303a206c6f772d6c6576656c2063616c6c206661696c6564815250856001600160a01b03166108599092919063ffffffff16565b90508051600014806107fa5750808060200190518101906107fa9190610bca565b61026f5760405162461bcd60e51b815260206004820152602a60248201527f5361666545524332303a204552433230206f7065726174696f6e20646964206e6044820152691bdd081cdd58d8d9595960b21b60648201526084016104c7565b60606108688484600085610870565b949350505050565b6060824710156108d15760405162461bcd60e51b815260206004820152602660248201527f416464726573733a20696e73756666696369656e742062616c616e636520666f6044820152651c8818d85b1b60d21b60648201526084016104c7565b600080866001600160a01b031685876040516108ed9190610bec565b60006040518083038185875af1925050503d806000811461092a576040519150601f19603f3d011682016040523d82523d6000602084013e61092f565b606091505b50915091506109408783838761094b565b979650505050505050565b606083156109ba5782516000036109b3576001600160a01b0385163b6109b35760405162461bcd60e51b815260206004820152601d60248201527f416464726573733a2063616c6c20746f206e6f6e2d636f6e747261637400000060448201526064016104c7565b5081610868565b61086883838151156109cf5781518083602001fd5b8060405162461bcd60e51b81526004016104c79190610c08565b6001600160a01b03811681146109fe57600080fd5b50565b60008060408385031215610a1457600080fd5b8235610a1f816109e9565b946020939093013593505050565b600080600060608486031215610a4257600080fd5b8335610a4d816109e9565b9250602084013591506040840135610a64816109e9565b809150509250925092565b60008060008060608587031215610a8557600080fd5b8435610a90816109e9565b935060208501359250604085013567ffffffffffffffff811115610ab357600080fd5b8501601f81018713610ac457600080fd5b803567ffffffffffffffff811115610adb57600080fd5b876020828401011115610aed57600080fd5b949793965060200194505050565b60005b83811015610b16578181015183820152602001610afe565b50506000910152565b60008151808452610b37816020860160208601610afb565b601f01601f19169290920160200192915050565b82151581526040602082015260006108686040830184610b1f565b60008060408385031215610b7957600080fd5b823591506020830135610b8b816109e9565b809150509250929050565b8183823760009101908152919050565b600060208284031215610bb857600080fd5b8151610bc3816109e9565b9392505050565b600060208284031215610bdc57600080fd5b81518015158114610bc357600080fd5b60008251610bfe818460208701610afb565b9190910192915050565b602081526000610bc36020830184610b1f56fea2646970667358221220c5a11ee968777f0b05acd978640c77c63887bdabeb4250c784fd52e31e0d69dd64736f6c6343000821003300000000000000000000000030ba562ce38fbd0ff300dfc4b0271fe9c40c4cf00000000000000000000000000000000000000000000000000000000000000001"
        }
      ],
      "isFixedGasLimit": false
    },
    {
      "hash": "0xca55b6411db3b5d38e1c492695b57c875639f17680fd04dc982805a89b25daa5",
      "transactionType": "CALL",
      "contractName": null,
      "contractAddress": "0x30ba562ce38fbd0ff300dfc4b0271fe9c40c4cf0",
      "function": "approve(address,uint256)",
      "arguments": [
        "0x599917b3df76b9A599b4C6f58E6aE5adE9b185B5",
        "1"
      ],
      "transaction": {
        "from": "0xc8306a4a2da13f8e3c30d5096f19d5f01969aa7d",
        "to": "0x30ba562ce38fbd0ff300dfc4b0271fe9c40c4cf0",
        "gas": "0x10776",
        "value": "0x0",
        "input": "0x095ea7b3000000000000000000000000599917b3df76b9a599b4c6f58e6ae5ade9b185b50000000000000000000000000000000000000000000000000000000000000001",
        "nonce": "0x1f",
        "chainId": "0x61"
      },
      "additionalContracts": [],
      "isFixedGasLimit": false
    },
    {
      "hash": "0xc3440499cb7da3d4c5a418e3b6836e36207d10b79604a3e9de3670aeb31ae3de",
      "transactionType": "CALL",
      "contractName": null,
      "contractAddress": "0x599917b3df76b9a599b4c6f58e6ae5ade9b185b5",
      "function": "createListing(address,uint256,uint96,uint32)",
      "arguments": [
        "0x30Ba562CE38fbD0ff300Dfc4b0271fe9c40C4cf0",
        "1",
        "5000000000000000",
        "1"
      ],
      "transaction": {
        "from": "0xc8306a4a2da13f8e3c30d5096f19d5f01969aa7d",
        "to": "0x599917b3df76b9a599b4c6f58e6ae5ade9b185b5",
        "gas": "0x31955",
        "value": "0x0",
        "input": "0x460cfdac00000000000000000000000030ba562ce38fbd0ff300dfc4b0271fe9c40c4cf000000000000000000000000000000000000000000000000000000000000000010000000000000000000000000000000000000000000000000011c37937e080000000000000000000000000000000000000000000000000000000000000000001",
        "nonce": "0x20",
        "chainId": "0x61"
      },
      "additionalContracts": [],
      "isFixedGasLimit": false
    }
  ],
  "receipts": [
    {
      "status": "0x1",
      "cumulativeGasUsed": "0x1031b1",
      "logs": [
        {
          "address": "0x30ba562ce38fbd0ff300dfc4b0271fe9c40c4cf0",
          "topics": [
            "0xddf252ad1be2c89b69c2b068fc378daa952ba7f163c4a11628f55a4df523b3ef",
            "0x0000000000000000000000000000000000000000000000000000000000000000",
            "0x000000000000000000000000c8306a4a2da13f8e3c30d5096f19d5f01969aa7d",
            "0x0000000000000000000000000000000000000000000000000000000000000000"
          ],
          "data": "0x",
          "blockHash": "0xd26e7ecfc494a899859fe1561f65ef9c78d5bf688e894f7f3d472108ccbadab0",
          "blockNumber": "0x55cd0c8",
          "blockTimestamp": "0x698e13a3",
          "transactionHash": "0x9375b8866637f14269b0581272efde4818ca45ee9a707ec1d10bf0c347fde6a4",
          "transactionIndex": "0x0",
          "logIndex": "0x0",
          "removed": false
        },
        {
          "address": "0x30ba562ce38fbd0ff300dfc4b0271fe9c40c4cf0",
          "topics": [
            "0xf8e1a15aba9398e019f0b49df1a4fde98ee17ae345cb5f6b5e2c27f5033e8ce7"
          ],
          "data": "0x0000000000000000000000000000000000000000000000000000000000000000",
          "blockHash": "0xd26e7ecfc494a899859fe1561f65ef9c78d5bf688e894f7f3d472108ccbadab0",
          "blockNumber": "0x55cd0c8",
          "blockTimestamp": "0x698e13a3",
          "transactionHash": "0x9375b8866637f14269b0581272efde4818ca45ee9a707ec1d10bf0c347fde6a4",
          "transactionIndex": "0x0",
          "logIndex": "0x1",
          "removed": false
        },
        {
          "address": "0x30ba562ce38fbd0ff300dfc4b0271fe9c40c4cf0",
          "topics": [
            "0xb9061a191892032e265236df2977078d7c7636f10980792772ab0cca612653e3",
            "0x0000000000000000000000000000000000000000000000000000000000000000",
            "0x000000000000000000000000c8306a4a2da13f8e3c30d5096f19d5f01969aa7d"
          ],
          "data": "0x0000000000000000000000008b8d6eca5ad158191854301fa976694bfdce2a230000000000000000000000000000000000000000000000000000000000000001",
          "blockHash": "0xd26e7ecfc494a899859fe1561f65ef9c78d5bf688e894f7f3d472108ccbadab0",
          "blockNumber": "0x55cd0c8",
          "blockTimestamp": "0x698e13a3",
          "transactionHash": "0x9375b8866637f14269b0581272efde4818ca45ee9a707ec1d10bf0c347fde6a4",
          "transactionIndex": "0x0",
          "logIndex": "0x2",
          "removed": false
        }
      ],
      "logsBloom": "0x00000000000000000000000040000000000000000000000000000000000000000000000000000000000000000000000000000000000000000000000000000000000000000000000000000008000000000000000000000000000000000000000000000010020000000000000000000800000000000000000000000010000000000000000000000000000000000000000000014000000000000000000000000000000000000000000000000000000000002000000000000000800000000000008000000002000000000100000000000000000000000000000000000000000020000000000000000000200000000000000000000000000080000000000000000400",
      "type": "0x0",
      "transactionHash": "0x9375b8866637f14269b0581272efde4818ca45ee9a707ec1d10bf0c347fde6a4",
      "transactionIndex": "0x0",
      "blockHash": "0xd26e7ecfc494a899859fe1561f65ef9c78d5bf688e894f7f3d472108ccbadab0",
      "blockNumber": "0x55cd0c8",
      "gasUsed": "0x1031b1",
      "effectiveGasPrice": "0x3b9aca00",
      "from": "0xc8306a4a2da13f8e3c30d5096f19d5f01969aa7d",
      "to": "0x30ba562ce38fbd0ff300dfc4b0271fe9c40c4cf0",
      "contractAddress": null
    },
    {
      "status": "0x1",
      "cumulativeGasUsed": "0x10f064",
      "logs": [
        {
          "address": "0x30ba562ce38fbd0ff300dfc4b0271fe9c40c4cf0",
          "topics": [
            "0x8c5be1e5ebec7d5bd14f71427d1e84f3dd0314c0f7b2291e5b200ac8c7c3b925",
            "0x000000000000000000000000c8306a4a2da13f8e3c30d5096f19d5f01969aa7d",
            "0x000000000000000000000000599917b3df76b9a599b4c6f58e6ae5ade9b185b5",
            "0x0000000000000000000000000000000000000000000000000000000000000000"
          ],
          "data": "0x",
          "blockHash": "0xd26e7ecfc494a899859fe1561f65ef9c78d5bf688e894f7f3d472108ccbadab0",
          "blockNumber": "0x55cd0c8",
          "blockTimestamp": "0x698e13a3",
          "transactionHash": "0x6c9d8fae523bd37873f2343e482403bae2486ee5267747dbbe5ae7a3aa33395d",
          "transactionIndex": "0x1",
          "logIndex": "0x3",
          "removed": false
        }
      ],
      "logsBloom": "0x00000000000000000000000040000000080010000040000000000000000000000000000000000000000000000000000000000000000000000000000000200000000000000000000000000000000000000000000000000000000000000000000000000010020000000000000000000800000000000000000000000010000000000000000000000000000000000000000000000000000000000000000000000000020000000000000000000000000000000000000000000000800000000000000000000000000000000100000000000000000000000000000000000000000020000010000000000000000000000000000000000000000000000000000000000400",
      "type": "0x0",
      "transactionHash": "0x6c9d8fae523bd37873f2343e482403bae2486ee5267747dbbe5ae7a3aa33395d",
      "transactionIndex": "0x1",
      "blockHash": "0xd26e7ecfc494a899859fe1561f65ef9c78d5bf688e894f7f3d472108ccbadab0",
      "blockNumber": "0x55cd0c8",
      "gasUsed": "0xbeb3",
      "effectiveGasPrice": "0x3b9aca00",
      "from": "0xc8306a4a2da13f8e3c30d5096f19d5f01969aa7d",
      "to": "0x30ba562ce38fbd0ff300dfc4b0271fe9c40c4cf0",
      "contractAddress": null
    },
    {
      "status": "0x1",
      "cumulativeGasUsed": "0x1323b9",
      "logs": [
        {
          "address": "0x599917b3df76b9a599b4c6f58e6ae5ade9b185b5",
          "topics": [
            "0xc0c60fc2d790999129096a043fb317d708e134ad5043c3f55f31cfccc95e850d",
            "0x0079f4ba09c5967a0b50210f669c458813e13a93d532d17f2ebb9cac02c9e87f",
            "0x00000000000000000000000030ba562ce38fbd0ff300dfc4b0271fe9c40c4cf0",
            "0x0000000000000000000000000000000000000000000000000000000000000000"
          ],
          "data": "0x000000000000000000000000000000000000000000000000002386f26fc100000000000000000000000000000000000000000000000000000000000000000001",
          "blockHash": "0xd26e7ecfc494a899859fe1561f65ef9c78d5bf688e894f7f3d472108ccbadab0",
          "blockNumber": "0x55cd0c8",
          "blockTimestamp": "0x698e13a3",
          "transactionHash": "0xc3440499cb7da3d4c5a418e3b6836e36207d10b79604a3e9de3670aeb31ae3de",
          "transactionIndex": "0x2",
          "logIndex": "0x4",
          "removed": false
        }
      ],
      "logsBloom": "0x00000000000000000000000000000000000000000080000000000000000000000001000000000000000004000000000000000200000000000000000000000000001000000000000000000000000000000000000000000000000000000000000000010000020000000000000000000800000000000000000000000000000000000000000000000000000000000000000000000000000000000800000000000000000100000000000000000000000000000000000000000000000000000000200000000000000000000000000000000000000000000000000000000000000020000000000000000000200000000000000400000000000000200000000000000000",
      "type": "0x0",
      "transactionHash": "0xc3440499cb7da3d4c5a418e3b6836e36207d10b79604a3e9de3670aeb31ae3de",
      "transactionIndex": "0x2",
      "blockHash": "0xd26e7ecfc494a899859fe1561f65ef9c78d5bf688e894f7f3d472108ccbadab0",
      "blockNumber": "0x55cd0c8",
      "gasUsed": "0x23355",
      "effectiveGasPrice": "0x3b9aca00",
      "from": "0xc8306a4a2da13f8e3c30d5096f19d5f01969aa7d",
      "to": "0x599917b3df76b9a599b4c6f58e6ae5ade9b185b5",
      "contractAddress": null
    },
    {
      "status": "0x1",
      "cumulativeGasUsed": "0x22cfa2",
      "logs": [
        {
          "address": "0x30ba562ce38fbd0ff300dfc4b0271fe9c40c4cf0",
          "topics": [
            "0xddf252ad1be2c89b69c2b068fc378daa952ba7f163c4a11628f55a4df523b3ef",
            "0x0000000000000000000000000000000000000000000000000000000000000000",
            "0x000000000000000000000000c8306a4a2da13f8e3c30d5096f19d5f01969aa7d",
            "0x0000000000000000000000000000000000000000000000000000000000000001"
          ],
          "data": "0x",
          "blockHash": "0xd26e7ecfc494a899859fe1561f65ef9c78d5bf688e894f7f3d472108ccbadab0",
          "blockNumber": "0x55cd0c8",
          "blockTimestamp": "0x698e13a3",
          "transactionHash": "0x7250c3867cc351cd8cc286867ada5dc6a4cb0764b852cb173ca254142491d348",
          "transactionIndex": "0x3",
          "logIndex": "0x5",
          "removed": false
        },
        {
          "address": "0x30ba562ce38fbd0ff300dfc4b0271fe9c40c4cf0",
          "topics": [
            "0xf8e1a15aba9398e019f0b49df1a4fde98ee17ae345cb5f6b5e2c27f5033e8ce7"
          ],
          "data": "0x0000000000000000000000000000000000000000000000000000000000000001",
          "blockHash": "0xd26e7ecfc494a899859fe1561f65ef9c78d5bf688e894f7f3d472108ccbadab0",
          "blockNumber": "0x55cd0c8",
          "blockTimestamp": "0x698e13a3",
          "transactionHash": "0x7250c3867cc351cd8cc286867ada5dc6a4cb0764b852cb173ca254142491d348",
          "transactionIndex": "0x3",
          "logIndex": "0x6",
          "removed": false
        },
        {
          "address": "0x30ba562ce38fbd0ff300dfc4b0271fe9c40c4cf0",
          "topics": [
            "0xb9061a191892032e265236df2977078d7c7636f10980792772ab0cca612653e3",
            "0x0000000000000000000000000000000000000000000000000000000000000001",
            "0x000000000000000000000000c8306a4a2da13f8e3c30d5096f19d5f01969aa7d"
          ],
          "data": "0x000000000000000000000000fbc77ce36722cab7ef601ee11f048090ded2f4bf0000000000000000000000000000000000000000000000000000000000000001",
          "blockHash": "0xd26e7ecfc494a899859fe1561f65ef9c78d5bf688e894f7f3d472108ccbadab0",
          "blockNumber": "0x55cd0c8",
          "blockTimestamp": "0x698e13a3",
          "transactionHash": "0x7250c3867cc351cd8cc286867ada5dc6a4cb0764b852cb173ca254142491d348",
          "transactionIndex": "0x3",
          "logIndex": "0x7",
          "removed": false
        }
      ],
      "logsBloom": "0x00000000000000000000000040000000000000000000000000000000000000000000000000000000000000000000000000000000000000000000000000040000000000000000000000000008000000000000000000040000000000000000000000000010020000000000000000000800000000000000000000000010000000000000000000000000000000000000000000014000000000000000000000000000000000000000000000000000000000002000000000000000800000000000008000000002000000000100000000000000000000000000000000000000000060000000000000000000200000000000000000000000000080000000000000000400",
      "type": "0x0",
      "transactionHash": "0x7250c3867cc351cd8cc286867ada5dc6a4cb0764b852cb173ca254142491d348",
      "transactionIndex": "0x3",
      "blockHash": "0xd26e7ecfc494a899859fe1561f65ef9c78d5bf688e894f7f3d472108ccbadab0",
      "blockNumber": "0x55cd0c8",
      "gasUsed": "0xfabe9",
      "effectiveGasPrice": "0x3b9aca00",
      "from": "0xc8306a4a2da13f8e3c30d5096f19d5f01969aa7d",
      "to": "0x30ba562ce38fbd0ff300dfc4b0271fe9c40c4cf0",
      "contractAddress": null
    },
    {
      "status": "0x1",
      "cumulativeGasUsed": "0x238e61",
      "logs": [
        {
          "address": "0x30ba562ce38fbd0ff300dfc4b0271fe9c40c4cf0",
          "topics": [
            "0x8c5be1e5ebec7d5bd14f71427d1e84f3dd0314c0f7b2291e5b200ac8c7c3b925",
            "0x000000000000000000000000c8306a4a2da13f8e3c30d5096f19d5f01969aa7d",
            "0x000000000000000000000000599917b3df76b9a599b4c6f58e6ae5ade9b185b5",
            "0x0000000000000000000000000000000000000000000000000000000000000001"
          ],
          "data": "0x",
          "blockHash": "0xd26e7ecfc494a899859fe1561f65ef9c78d5bf688e894f7f3d472108ccbadab0",
          "blockNumber": "0x55cd0c8",
          "blockTimestamp": "0x698e13a3",
          "transactionHash": "0xca55b6411db3b5d38e1c492695b57c875639f17680fd04dc982805a89b25daa5",
          "transactionIndex": "0x4",
          "logIndex": "0x8",
          "removed": false
        }
      ],
      "logsBloom": "0x00000000000000000000000040000000080010000040000000000000000000000000000000000000000000000000000000000000000000000000000000240000000000000000000000000000000000000000000000040000000000000000000000000010000000000000000000000000000000000000000000000010000000000000000000000000000000000000000000000000000000000000000000000000020000000000000000000000000000000000000000000000800000000000000000000000000000000100000000000000000000000000000000000000000040000010000000000000000000000000000000000000000000000000000000000400",
      "type": "0x0",
      "transactionHash": "0xca55b6411db3b5d38e1c492695b57c875639f17680fd04dc982805a89b25daa5",
      "transactionIndex": "0x4",
      "blockHash": "0xd26e7ecfc494a899859fe1561f65ef9c78d5bf688e894f7f3d472108ccbadab0",
      "blockNumber": "0x55cd0c8",
      "gasUsed": "0xbebf",
      "effectiveGasPrice": "0x3b9aca00",
      "from": "0xc8306a4a2da13f8e3c30d5096f19d5f01969aa7d",
      "to": "0x30ba562ce38fbd0ff300dfc4b0271fe9c40c4cf0",
      "contractAddress": null
    },
    {
      "status": "0x1",
      "cumulativeGasUsed": "0x25ccbe",
      "logs": [
        {
          "address": "0x599917b3df76b9a599b4c6f58e6ae5ade9b185b5",
          "topics": [
            "0xc0c60fc2d790999129096a043fb317d708e134ad5043c3f55f31cfccc95e850d",
            "0xda18bf6fbc0108e4ae837bdd1dc4d6cebd6479c124866cc2c0a264820b67b9c1",
            "0x00000000000000000000000030ba562ce38fbd0ff300dfc4b0271fe9c40c4cf0",
            "0x0000000000000000000000000000000000000000000000000000000000000001"
          ],
          "data": "0x0000000000000000000000000000000000000000000000000011c37937e080000000000000000000000000000000000000000000000000000000000000000001",
          "blockHash": "0xd26e7ecfc494a899859fe1561f65ef9c78d5bf688e894f7f3d472108ccbadab0",
          "blockNumber": "0x55cd0c8",
          "blockTimestamp": "0x698e13a3",
          "transactionHash": "0x8b8da2b17577300544912f1d158521f76c4987eeb3d366e40a729c40e04333e0",
          "transactionIndex": "0x5",
          "logIndex": "0x9",
          "removed": false
        }
      ],
      "logsBloom": "0x00000000000000000000000000000000000000000080000000000000000000000001000000000000000004000000000000000200000000000000000000040000001000000000000000000000000000000000000000040000000000000000008000000000000000000000000000000000000000000000000000000000000000000000000000000000000000000000000000000000000800000800000000000000000100000000000000000000000000000000000000000000000000000000000000000000000000000000000000000000000000000000000000000000000040000000000000080000200000000000000400000000000000000000000000000000",
      "type": "0x0",
      "transactionHash": "0x8b8da2b17577300544912f1d158521f76c4987eeb3d366e40a729c40e04333e0",
      "transactionIndex": "0x5",
      "blockHash": "0xd26e7ecfc494a899859fe1561f65ef9c78d5bf688e894f7f3d472108ccbadab0",
      "blockNumber": "0x55cd0c8",
      "gasUsed": "0x23e5d",
      "effectiveGasPrice": "0x3b9aca00",
      "from": "0xc8306a4a2da13f8e3c30d5096f19d5f01969aa7d",
      "to": "0x599917b3df76b9a599b4c6f58e6ae5ade9b185b5",
      "contractAddress": null
    }
  ],
  "libraries": [],
  "pending": [],
  "returns": {},
  "timestamp": 1770918819834,
  "chain": 97,
  "commit": "f28c719"
}