{
  "transactions": [
    {
      "hash": "0x56f2685ab93e13fba908767d5fe5a7c6686bfb0b0d334c13d23594860100e953",
      "transactionType": "CALL",
      "contractName": null,
      "contractAddress": "0xb65ca34b1526c926c75129ef934c3ba9fe6f29f6",
      "function": "mintAgent(address,bytes32,string,(string,string,string,string,string,bytes32))",
      "arguments": [
        "0x99981E09b6E5Fb63a683555ff0Ac30B7Fdb40403",
        "0x0000000000000000000000000000000000000000000000000000000000000001",
        "https://api.shll.io/metadata/1",
        "({\\\"name\\\": \\\"Alpha Trader\\\", \\\"role\\\": \\\"DeFi Sniper\\\", \\\"description\\\": \\\"High-frequency arbitrage bot\\\"}, Level 10, QmVoiceHash1, ipfs://QmAnimation1, https://vault.shll.io/agent/1, 0x0000000000000000000000000000000000000000000000000000000000000001)"
      ],
      "transaction": {
        "from": "0x99981e09b6e5fb63a683555ff0ac30b7fdb40403",
        "to": "0xb65ca34b1526c926c75129ef934c3ba9fe6f29f6",
        "gas": "0x15a487",
        "value": "0x0",
        "input": "0x7da1f72900000000000000000000000099981e09b6e5fb63a683555ff0ac30b7fdb404030000000000000000000000000000000000000000000000000000000000000001000000000000000000000000000000000000000000000000000000000000008000000000000000000000000000000000000000000000000000000000000000c0000000000000000000000000000000000000000000000000000000000000001e68747470733a2f2f6170692e73686c6c2e696f2f6d657461646174612f31000000000000000000000000000000000000000000000000000000000000000000c00000000000000000000000000000000000000000000000000000000000000140000000000000000000000000000000000000000000000000000000000000018000000000000000000000000000000000000000000000000000000000000001c000000000000000000000000000000000000000000000000000000000000002000000000000000000000000000000000000000000000000000000000000000001000000000000000000000000000000000000000000000000000000000000005e7b226e616d65223a2022416c70686120547261646572222c2022726f6c65223a20224465466920536e69706572222c20226465736372697074696f6e223a2022486967682d6672657175656e63792061726269747261676520626f74227d000000000000000000000000000000000000000000000000000000000000000000084c6576656c203130000000000000000000000000000000000000000000000000000000000000000000000000000000000000000000000000000000000000000c516d566f696365486173683100000000000000000000000000000000000000000000000000000000000000000000000000000000000000000000000000000013697066733a2f2f516d416e696d6174696f6e3100000000000000000000000000000000000000000000000000000000000000000000000000000000000000001d68747470733a2f2f7661756c742e73686c6c2e696f2f6167656e742f31000000",
        "nonce": "0x18",
        "chainId": "0x61"
      },
      "additionalContracts": [
        {
          "transactionType": "CREATE",
          "contractName": "AgentAccount",
          "address": "0xc60dc8b9f05f06b5f9ebf764024511417419126d",
          "initCode": "0x60c060405234801561001057600080fd5b50604051610d42380380610d4283398101604081905261002f91610071565b60016000556001600160a01b03821661005b5760405163d92e233d60e01b815260040160405180910390fd5b6001600160a01b0390911660805260a0526100ab565b6000806040838503121561008457600080fd5b82516001600160a01b038116811461009b57600080fd5b6020939093015192949293505050565b60805160a051610c516100f16000396000818160c801528181610557015261060201526000818160770152818161028b0152818161058001526106360152610c516000f3fe6080604052600436106100595760003560e01c80631189823a1461006557806317d70f7c146100b6578063338b5dea146100f85780633ccdbb281461011a5780639e5d4c491461013a578063b8ca8dd81461016857600080fd5b3661006057005b600080fd5b34801561007157600080fd5b506100997f000000000000000000000000000000000000000000000000000000000000000081565b6040516001600160a01b0390911681526020015b60405180910390f35b3480156100c257600080fd5b506100ea7f000000000000000000000000000000000000000000000000000000000000000081565b6040519081526020016100ad565b34801561010457600080fd5b50610118610113366004610a01565b610188565b005b34801561012657600080fd5b50610118610135366004610a2d565b6101f3565b34801561014657600080fd5b5061015a610155366004610a6f565b610274565b6040516100ad929190610b4b565b34801561017457600080fd5b50610118610183366004610b66565b610385565b610190610479565b6101a56001600160a01b0383163330846104d7565b60405181815233906001600160a01b038416907f8752a472e571a816aea92eec8dae9baf628e840f4929fbcc2d155e6233ff68a79060200160405180910390a36101ef6001600055565b5050565b6101fb610479565b61020481610548565b6102186001600160a01b0384168284610754565b806001600160a01b0316836001600160a01b03167f11dd463c4f2edd676b85f050130c7ab2f5832f52becb5444b09a92404aa1498a8460405161025d91815260200190565b60405180910390a361026f6001600055565b505050565b60006060610280610479565b336001600160a01b037f000000000000000000000000000000000000000000000000000000000000000016146102c95760405163a3b2ae2960e01b815260040160405180910390fd5b856001600160a01b03168585856040516102e4929190610b96565b60006040518083038185875af1925050503d8060008114610321576040519150601f19603f3d011682016040523d82523d6000602084013e610326565b606091505b506040805188815283151560208201529294509092506001600160a01b038816917f8de43d9a73b67cd262221606ac0627d14cbcfa306b96d16bd9e20e72771cb4ed910160405180910390a261037c6001600055565b94509492505050565b61038d610479565b61039681610548565b478211156103b757604051631e9acf1760e31b815260040160405180910390fd5b6000816001600160a01b03168360405160006040518083038185875af1925050503d8060008114610404576040519150601f19603f3d011682016040523d82523d6000602084013e610409565b606091505b505090508061042b57604051632b3f6d1160e21b815260040160405180910390fd5b816001600160a01b03167fc4825c2033e49b7d8db9d453f0a5953dc550c9452166b576df9f456893f1695f8460405161046691815260200190565b60405180910390a2506101ef6001600055565b6002600054036104d05760405162461bcd60e51b815260206004820152601f60248201527f5265656e7472616e637947756172643a207265656e7472616e742063616c6c0060448201526064015b60405180910390fd5b6002600055565b6040516001600160a01b03808516602483015283166044820152606481018290526105429085906323b872dd60e01b906084015b60408051601f198184030181529190526020810180516001600160e01b03166001600160e01b031990931692909217909152610784565b50505050565b6040516331a9108f60e11b81527f000000000000000000000000000000000000000000000000000000000000000060048201526000907f00000000000000000000000000000000000000000000000000000000000000006001600160a01b031690636352211e90602401602060405180830381865afa1580156105cf573d6000803e3d6000fd5b505050506040513d601f19601f820116820180604052508101906105f39190610ba6565b604051636178f8a560e11b81527f000000000000000000000000000000000000000000000000000000000000000060048201529091506000906001600160a01b037f0000000000000000000000000000000000000000000000000000000000000000169063c2f1f14a90602401602060405180830381865afa15801561067d573d6000803e3d6000fd5b505050506040513d601f19601f820116820180604052508101906106a19190610ba6565b90506001600160a01b03821633036106e557816001600160a01b0316836001600160a01b03161461026f57604051632139426360e01b815260040160405180910390fd5b336001600160a01b03821614801561070557506001600160a01b03811615155b1561073c57806001600160a01b0316836001600160a01b03161461026f57604051632139426360e01b815260040160405180910390fd5b6040516282b42960e81b815260040160405180910390fd5b6040516001600160a01b03831660248201526044810182905261026f90849063a9059cbb60e01b9060640161050b565b60006107d9826040518060400160405280602081526020017f5361666545524332303a206c6f772d6c6576656c2063616c6c206661696c6564815250856001600160a01b03166108599092919063ffffffff16565b90508051600014806107fa5750808060200190518101906107fa9190610bca565b61026f5760405162461bcd60e51b815260206004820152602a60248201527f5361666545524332303a204552433230206f7065726174696f6e20646964206e6044820152691bdd081cdd58d8d9595960b21b60648201526084016104c7565b60606108688484600085610870565b949350505050565b6060824710156108d15760405162461bcd60e51b815260206004820152602660248201527f416464726573733a20696e73756666696369656e742062616c616e636520666f6044820152651c8818d85b1b60d21b60648201526084016104c7565b600080866001600160a01b031685876040516108ed9190610bec565b60006040518083038185875af1925050503d806000811461092a576040519150601f19603f3d011682016040523d82523d6000602084013e61092f565b606091505b50915091506109408783838761094b565b979650505050505050565b606083156109ba5782516000036109b3576001600160a01b0385163b6109b35760405162461bcd60e51b815260206004820152601d60248201527f416464726573733a2063616c6c20746f206e6f6e2d636f6e747261637400000060448201526064016104c7565b5081610868565b61086883838151156109cf5781518083602001fd5b8060405162461bcd60e51b81526004016104c79190610c08565b6001600160a01b03811681146109fe57600080fd5b50565b60008060408385031215610a1457600080fd5b8235610a1f816109e9565b946020939093013593505050565b600080600060608486031215610a4257600080fd5b8335610a4d816109e9565b9250602084013591506040840135610a64816109e9565b809150509250925092565b60008060008060608587031215610a8557600080fd5b8435610a90816109e9565b935060208501359250604085013567ffffffffffffffff811115610ab357600080fd5b8501601f81018713610ac457600080fd5b803567ffffffffffffffff811115610adb57600080fd5b876020828401011115610aed57600080fd5b949793965060200194505050565b60005b83811015610b16578181015183820152602001610afe565b50506000910152565b60008151808452610b37816020860160208601610afb565b601f01601f19169290920160200192915050565b82151581526040602082015260006108686040830184610b1f565b60008060408385031215610b7957600080fd5b823591506020830135610b8b816109e9565b809150509250929050565b8183823760009101908152919050565b600060208284031215610bb857600080fd5b8151610bc3816109e9565b9392505050565b600060208284031215610bdc57600080fd5b81518015158114610bc357600080fd5b60008251610bfe818460208701610afb565b9190910192915050565b602081526000610bc36020830184610b1f56fea2646970667358221220a1294ad21f398bfe6e6259f44d74d1e9c7057d8f918f7cb755ce65ef0ff3b58364736f6c63430008210033000000000000000000000000b65ca34b1526c926c75129ef934c3ba9fe6f29f60000000000000000000000000000000000000000000000000000000000000002"
        }
      ],
      "isFixedGasLimit": false
    },
    {
      "hash": "0x1d549a959c84baa6bf6944df053b353e18efbc9fa474f05c48e1eb0214e632c2",
      "transactionType": "CALL",
      "contractName": null,
      "contractAddress": "0xb65ca34b1526c926c75129ef934c3ba9fe6f29f6",
      "function": "approve(address,uint256)",
      "arguments": [
        "0x71597c159007E9FF35bcF47822913cA78B182156",
        "2"
      ],
      "transaction": {
        "from": "0x99981e09b6e5fb63a683555ff0ac30b7fdb40403",
        "to": "0xb65ca34b1526c926c75129ef934c3ba9fe6f29f6",
        "gas": "0x10776",
        "value": "0x0",
        "input": "0x095ea7b300000000000000000000000071597c159007e9ff35bcf47822913ca78b1821560000000000000000000000000000000000000000000000000000000000000002",
        "nonce": "0x19",
        "chainId": "0x61"
      },
      "additionalContracts": [],
      "isFixedGasLimit": false
    },
    {
      "hash": "0xf986ecc888cb878760e38a217ecc3ab3e859513f48ee847bdfe4f036e142c77f",
      "transactionType": "CALL",
      "contractName": null,
      "contractAddress": "0x71597c159007e9ff35bcf47822913ca78b182156",
      "function": "createListing(address,uint256,uint96,uint32)",
      "arguments": [
        "0xB65Ca34b1526C926c75129Ef934c3Ba9fE6f29f6",
        "2",
        "10000000000000000",
        "1"
      ],
      "transaction": {
        "from": "0x99981e09b6e5fb63a683555ff0ac30b7fdb40403",
        "to": "0x71597c159007e9ff35bcf47822913ca78b182156",
        "gas": "0x28702",
        "value": "0x0",
        "input": "0x460cfdac000000000000000000000000b65ca34b1526c926c75129ef934c3ba9fe6f29f60000000000000000000000000000000000000000000000000000000000000002000000000000000000000000000000000000000000000000002386f26fc100000000000000000000000000000000000000000000000000000000000000000001",
        "nonce": "0x1a",
        "chainId": "0x61"
      },
      "additionalContracts": [],
      "isFixedGasLimit": false
    },
    {
      "hash": "0x8887066f80bec815ca4547e37131d591dd06a2dec7466899ef19f1b54783fe2a",
      "transactionType": "CALL",
      "contractName": null,
      "contractAddress": "0xb65ca34b1526c926c75129ef934c3ba9fe6f29f6",
      "function": "mintAgent(address,bytes32,string,(string,string,string,string,string,bytes32))",
      "arguments": [
        "0x99981E09b6E5Fb63a683555ff0Ac30B7Fdb40403",
        "0x0000000000000000000000000000000000000000000000000000000000000001",
        "https://api.shll.io/metadata/2",
        "({\\\"name\\\": \\\"Yield Harvester\\\", \\\"role\\\": \\\"Farmer\\\", \\\"description\\\": \\\"Automated yield compounding\\\"}, Level 5, QmVoiceHash2, ipfs://QmAnimation2, https://vault.shll.io/agent/2, 0x0000000000000000000000000000000000000000000000000000000000000002)"
      ],
      "transaction": {
        "from": "0x99981e09b6e5fb63a683555ff0ac30b7fdb40403",
        "to": "0xb65ca34b1526c926c75129ef934c3ba9fe6f29f6",
        "gas": "0x15a445",
        "value": "0x0",
        "input": "0x7da1f72900000000000000000000000099981e09b6e5fb63a683555ff0ac30b7fdb404030000000000000000000000000000000000000000000000000000000000000001000000000000000000000000000000000000000000000000000000000000008000000000000000000000000000000000000000000000000000000000000000c0000000000000000000000000000000000000000000000000000000000000001e68747470733a2f2f6170692e73686c6c2e696f2f6d657461646174612f32000000000000000000000000000000000000000000000000000000000000000000c00000000000000000000000000000000000000000000000000000000000000140000000000000000000000000000000000000000000000000000000000000018000000000000000000000000000000000000000000000000000000000000001c000000000000000000000000000000000000000000000000000000000000002000000000000000000000000000000000000000000000000000000000000000002000000000000000000000000000000000000000000000000000000000000005b7b226e616d65223a20225969656c6420486172766573746572222c2022726f6c65223a20224661726d6572222c20226465736372697074696f6e223a20224175746f6d61746564207969656c6420636f6d706f756e64696e67227d000000000000000000000000000000000000000000000000000000000000000000000000074c6576656c203500000000000000000000000000000000000000000000000000000000000000000000000000000000000000000000000000000000000000000c516d566f696365486173683200000000000000000000000000000000000000000000000000000000000000000000000000000000000000000000000000000013697066733a2f2f516d416e696d6174696f6e3200000000000000000000000000000000000000000000000000000000000000000000000000000000000000001d68747470733a2f2f7661756c742e73686c6c2e696f2f6167656e742f32000000",
        "nonce": "0x1b",
        "chainId": "0x61"
      },
      "additionalContracts": [
        {
          "transactionType": "CREATE",
          "contractName": "AgentAccount",
          "address": "0x54a5f86b0072e59256b0301195ec4f9099c9084d",
          "initCode": "0x60c060405234801561001057600080fd5b50604051610d42380380610d4283398101604081905261002f91610071565b60016000556001600160a01b03821661005b5760405163d92e233d60e01b815260040160405180910390fd5b6001600160a01b0390911660805260a0526100ab565b6000806040838503121561008457600080fd5b82516001600160a01b038116811461009b57600080fd5b6020939093015192949293505050565b60805160a051610c516100f16000396000818160c801528181610557015261060201526000818160770152818161028b0152818161058001526106360152610c516000f3fe6080604052600436106100595760003560e01c80631189823a1461006557806317d70f7c146100b6578063338b5dea146100f85780633ccdbb281461011a5780639e5d4c491461013a578063b8ca8dd81461016857600080fd5b3661006057005b600080fd5b34801561007157600080fd5b506100997f000000000000000000000000000000000000000000000000000000000000000081565b6040516001600160a01b0390911681526020015b60405180910390f35b3480156100c257600080fd5b506100ea7f000000000000000000000000000000000000000000000000000000000000000081565b6040519081526020016100ad565b34801561010457600080fd5b50610118610113366004610a01565b610188565b005b34801561012657600080fd5b50610118610135366004610a2d565b6101f3565b34801561014657600080fd5b5061015a610155366004610a6f565b610274565b6040516100ad929190610b4b565b34801561017457600080fd5b50610118610183366004610b66565b610385565b610190610479565b6101a56001600160a01b0383163330846104d7565b60405181815233906001600160a01b038416907f8752a472e571a816aea92eec8dae9baf628e840f4929fbcc2d155e6233ff68a79060200160405180910390a36101ef6001600055565b5050565b6101fb610479565b61020481610548565b6102186001600160a01b0384168284610754565b806001600160a01b0316836001600160a01b03167f11dd463c4f2edd676b85f050130c7ab2f5832f52becb5444b09a92404aa1498a8460405161025d91815260200190565b60405180910390a361026f6001600055565b505050565b60006060610280610479565b336001600160a01b037f000000000000000000000000000000000000000000000000000000000000000016146102c95760405163a3b2ae2960e01b815260040160405180910390fd5b856001600160a01b03168585856040516102e4929190610b96565b60006040518083038185875af1925050503d8060008114610321576040519150601f19603f3d011682016040523d82523d6000602084013e610326565b606091505b506040805188815283151560208201529294509092506001600160a01b038816917f8de43d9a73b67cd262221606ac0627d14cbcfa306b96d16bd9e20e72771cb4ed910160405180910390a261037c6001600055565b94509492505050565b61038d610479565b61039681610548565b478211156103b757604051631e9acf1760e31b815260040160405180910390fd5b6000816001600160a01b03168360405160006040518083038185875af1925050503d8060008114610404576040519150601f19603f3d011682016040523d82523d6000602084013e610409565b606091505b505090508061042b57604051632b3f6d1160e21b815260040160405180910390fd5b816001600160a01b03167fc4825c2033e49b7d8db9d453f0a5953dc550c9452166b576df9f456893f1695f8460405161046691815260200190565b60405180910390a2506101ef6001600055565b6002600054036104d05760405162461bcd60e51b815260206004820152601f60248201527f5265656e7472616e637947756172643a207265656e7472616e742063616c6c0060448201526064015b60405180910390fd5b6002600055565b6040516001600160a01b03808516602483015283166044820152606481018290526105429085906323b872dd60e01b906084015b60408051601f198184030181529190526020810180516001600160e01b03166001600160e01b031990931692909217909152610784565b50505050565b6040516331a9108f60e11b81527f000000000000000000000000000000000000000000000000000000000000000060048201526000907f00000000000000000000000000000000000000000000000000000000000000006001600160a01b031690636352211e90602401602060405180830381865afa1580156105cf573d6000803e3d6000fd5b505050506040513d601f19601f820116820180604052508101906105f39190610ba6565b604051636178f8a560e11b81527f000000000000000000000000000000000000000000000000000000000000000060048201529091506000906001600160a01b037f0000000000000000000000000000000000000000000000000000000000000000169063c2f1f14a90602401602060405180830381865afa15801561067d573d6000803e3d6000fd5b505050506040513d601f19601f820116820180604052508101906106a19190610ba6565b90506001600160a01b03821633036106e557816001600160a01b0316836001600160a01b03161461026f57604051632139426360e01b815260040160405180910390fd5b336001600160a01b03821614801561070557506001600160a01b03811615155b1561073c57806001600160a01b0316836001600160a01b03161461026f57604051632139426360e01b815260040160405180910390fd5b6040516282b42960e81b815260040160405180910390fd5b6040516001600160a01b03831660248201526044810182905261026f90849063a9059cbb60e01b9060640161050b565b60006107d9826040518060400160405280602081526020017f5361666545524332303a206c6f772d6c6576656c2063616c6c206661696c6564815250856001600160a01b03166108599092919063ffffffff16565b90508051600014806107fa5750808060200190518101906107fa9190610bca565b61026f5760405162461bcd60e51b815260206004820152602a60248201527f5361666545524332303a204552433230206f7065726174696f6e20646964206e6044820152691bdd081cdd58d8d9595960b21b60648201526084016104c7565b60606108688484600085610870565b949350505050565b6060824710156108d15760405162461bcd60e51b815260206004820152602660248201527f416464726573733a20696e73756666696369656e742062616c616e636520666f6044820152651c8818d85b1b60d21b60648201526084016104c7565b600080866001600160a01b031685876040516108ed9190610bec565b60006040518083038185875af1925050503d806000811461092a576040519150601f19603f3d011682016040523d82523d6000602084013e61092f565b606091505b50915091506109408783838761094b565b979650505050505050565b606083156109ba5782516000036109b3576001600160a01b0385163b6109b35760405162461bcd60e51b815260206004820152601d60248201527f416464726573733a2063616c6c20746f206e6f6e2d636f6e747261637400000060448201526064016104c7565b5081610868565b61086883838151156109cf5781518083602001fd5b8060405162461bcd60e51b81526004016104c79190610c08565b6001600160a01b03811681146109fe57600080fd5b50565b60008060408385031215610a1457600080fd5b8235610a1f816109e9565b946020939093013593505050565b600080600060608486031215610a4257600080fd5b8335610a4d816109e9565b9250602084013591506040840135610a64816109e9565b809150509250925092565b60008060008060608587031215610a8557600080fd5b8435610a90816109e9565b935060208501359250604085013567ffffffffffffffff811115610ab357600080fd5b8501601f81018713610ac457600080fd5b803567ffffffffffffffff811115610adb57600080fd5b876020828401011115610aed57600080fd5b949793965060200194505050565b60005b83811015610b16578181015183820152602001610afe565b50506000910152565b60008151808452610b37816020860160208601610afb565b601f01601f19169290920160200192915050565b82151581526040602082015260006108686040830184610b1f565b60008060408385031215610b7957600080fd5b823591506020830135610b8b816109e9565b809150509250929050565b8183823760009101908152919050565b600060208284031215610bb857600080fd5b8151610bc3816109e9565b9392505050565b600060208284031215610bdc57600080fd5b81518015158114610bc357600080fd5b60008251610bfe818460208701610afb565b9190910192915050565b602081526000610bc36020830184610b1f56fea2646970667358221220a1294ad21f398bfe6e6259f44d74d1e9c7057d8f918f7cb755ce65ef0ff3b58364736f6c63430008210033000000000000000000000000b65ca34b1526c926c75129ef934c3ba9fe6f29f60000000000000000000000000000000000000000000000000000000000000003"
        }
      ],
      "isFixedGasLimit": false
    },
    {
      "hash": "0x42abfd880eb68b0ef4c2d8f94b69cb0db78448607ad8ce9d47c56bb8c64a4b7f",
      "transactionType": "CALL",
      "contractName": null,
      "contractAddress": "0xb65ca34b1526c926c75129ef934c3ba9fe6f29f6",
      "function": "approve(address,uint256)",
      "arguments": [
        "0x71597c159007E9FF35bcF47822913cA78B182156",
        "3"
      ],
      "transaction": {
        "from": "0x99981e09b6e5fb63a683555ff0ac30b7fdb40403",
        "to": "0xb65ca34b1526c926c75129ef934c3ba9fe6f29f6",
        "gas": "0x10776",
        "value": "0x0",
        "input": "0x095ea7b300000000000000000000000071597c159007e9ff35bcf47822913ca78b1821560000000000000000000000000000000000000000000000000000000000000003",
        "nonce": "0x1c",
        "chainId": "0x61"
      },
      "additionalContracts": [],
      "isFixedGasLimit": false
    },
    {
      "hash": "0x041de3a6ea890b4454623bed0233f6d5cb666879712d610d8297c4fd85d22f1d",
      "transactionType": "CALL",
      "contractName": null,
      "contractAddress": "0x71597c159007e9ff35bcf47822913ca78b182156",
      "function": "createListing(address,uint256,uint96,uint32)",
      "arguments": [
        "0xB65Ca34b1526C926c75129Ef934c3Ba9fE6f29f6",
        "3",
        "5000000000000000",
        "1"
      ],
      "transaction": {
        "from": "0x99981e09b6e5fb63a683555ff0ac30b7fdb40403",
        "to": "0x71597c159007e9ff35bcf47822913ca78b182156",
        "gas": "0x2ad24",
        "value": "0x0",
        "input": "0x460cfdac000000000000000000000000b65ca34b1526c926c75129ef934c3ba9fe6f29f600000000000000000000000000000000000000000000000000000000000000030000000000000000000000000000000000000000000000000011c37937e080000000000000000000000000000000000000000000000000000000000000000001",
        "nonce": "0x1d",
        "chainId": "0x61"
      },
      "additionalContracts": [],
      "isFixedGasLimit": false
    }
  ],
  "receipts": [
    {
      "status": "0x1",
      "cumulativeGasUsed": "0x32b5a8",
      "logs": [
        {
          "address": "0xb65ca34b1526c926c75129ef934c3ba9fe6f29f6",
          "topics": [
            "0xddf252ad1be2c89b69c2b068fc378daa952ba7f163c4a11628f55a4df523b3ef",
            "0x0000000000000000000000000000000000000000000000000000000000000000",
            "0x00000000000000000000000099981e09b6e5fb63a683555ff0ac30b7fdb40403",
            "0x0000000000000000000000000000000000000000000000000000000000000002"
          ],
          "data": "0x",
          "blockHash": "0x114d865048c119bf5eef16413ed73eebb61a1dcc98c1befe155debc0cc8cb1b7",
          "blockNumber": "0x559dc28",
          "blockTimestamp": "0x698cbc4a",
          "transactionHash": "0x041de3a6ea890b4454623bed0233f6d5cb666879712d610d8297c4fd85d22f1d",
          "transactionIndex": "0x4",
          "logIndex": "0x19",
          "removed": false
        },
        {
          "address": "0xb65ca34b1526c926c75129ef934c3ba9fe6f29f6",
          "topics": [
            "0xf8e1a15aba9398e019f0b49df1a4fde98ee17ae345cb5f6b5e2c27f5033e8ce7"
          ],
          "data": "0x0000000000000000000000000000000000000000000000000000000000000002",
          "blockHash": "0x114d865048c119bf5eef16413ed73eebb61a1dcc98c1befe155debc0cc8cb1b7",
          "blockNumber": "0x559dc28",
          "blockTimestamp": "0x698cbc4a",
          "transactionHash": "0x041de3a6ea890b4454623bed0233f6d5cb666879712d610d8297c4fd85d22f1d",
          "transactionIndex": "0x4",
          "logIndex": "0x1a",
          "removed": false
        },
        {
          "address": "0xb65ca34b1526c926c75129ef934c3ba9fe6f29f6",
          "topics": [
            "0xb9061a191892032e265236df2977078d7c7636f10980792772ab0cca612653e3",
            "0x0000000000000000000000000000000000000000000000000000000000000002",
            "0x00000000000000000000000099981e09b6e5fb63a683555ff0ac30b7fdb40403"
          ],
          "data": "0x000000000000000000000000c60dc8b9f05f06b5f9ebf764024511417419126d0000000000000000000000000000000000000000000000000000000000000001",
          "blockHash": "0x114d865048c119bf5eef16413ed73eebb61a1dcc98c1befe155debc0cc8cb1b7",
          "blockNumber": "0x559dc28",
          "blockTimestamp": "0x698cbc4a",
          "transactionHash": "0x041de3a6ea890b4454623bed0233f6d5cb666879712d610d8297c4fd85d22f1d",
          "transactionIndex": "0x4",
          "logIndex": "0x1b",
          "removed": false
        }
      ],
      "logsBloom": "0x04000000000000000000000000000000000000000000000000000000000000000000000000000000000000000000000000000000000000000000000000000000000000000000000000000008000000000008000000000000000000000000000000000000020000000000000000000800000000000000000000000010000000000010000000000000000000000000000000014000000000000000000000000000000000000000000000000100000000002100000000000000000000000000008000800002008000000000000000000200000000000000000000000000000020000000000000000000200000000000000000000000008080000000000000000000",
      "type": "0x2",
      "transactionHash": "0x041de3a6ea890b4454623bed0233f6d5cb666879712d610d8297c4fd85d22f1d",
      "transactionIndex": "0x4",
      "blockHash": "0x114d865048c119bf5eef16413ed73eebb61a1dcc98c1befe155debc0cc8cb1b7",
      "blockNumber": "0x559dc28",
      "gasUsed": "0xfac19",
      "effectiveGasPrice": "0x5f5e100",
      "from": "0x99981e09b6e5fb63a683555ff0ac30b7fdb40403",
      "to": "0xb65ca34b1526c926c75129ef934c3ba9fe6f29f6",
      "contractAddress": null
    },
    {
      "status": "0x1",
      "cumulativeGasUsed": "0x337467",
      "logs": [
        {
          "address": "0xb65ca34b1526c926c75129ef934c3ba9fe6f29f6",
          "topics": [
            "0x8c5be1e5ebec7d5bd14f71427d1e84f3dd0314c0f7b2291e5b200ac8c7c3b925",
            "0x00000000000000000000000099981e09b6e5fb63a683555ff0ac30b7fdb40403",
            "0x00000000000000000000000071597c159007e9ff35bcf47822913ca78b182156",
            "0x0000000000000000000000000000000000000000000000000000000000000002"
          ],
          "data": "0x",
          "blockHash": "0x114d865048c119bf5eef16413ed73eebb61a1dcc98c1befe155debc0cc8cb1b7",
          "blockNumber": "0x559dc28",
          "blockTimestamp": "0x698cbc4a",
          "transactionHash": "0x8887066f80bec815ca4547e37131d591dd06a2dec7466899ef19f1b54783fe2a",
          "transactionIndex": "0x5",
          "logIndex": "0x1c",
          "removed": false
        }
      ],
      "logsBloom": "0x04000000000000000000000010000000000000000000000000000000000000000000000000000000000000000000000000000000000000000000000000200000000008000000000000000000000000000008000000000000000000000000000000000000000000001000000000000000000000000000000000000000000000000010000000000000000000000000000000000000000000000000000000000000020000000000000000000100000000000100000000000000000000000000000000800000008000000000000000000200000000000000000000000000000000000010000000000000000000000000000000000000008000000000000000000000",
      "type": "0x2",
      "transactionHash": "0x8887066f80bec815ca4547e37131d591dd06a2dec7466899ef19f1b54783fe2a",
      "transactionIndex": "0x5",
      "blockHash": "0x114d865048c119bf5eef16413ed73eebb61a1dcc98c1befe155debc0cc8cb1b7",
      "blockNumber": "0x559dc28",
      "gasUsed": "0xbebf",
      "effectiveGasPrice": "0x5f5e100",
      "from": "0x99981e09b6e5fb63a683555ff0ac30b7fdb40403",
      "to": "0xb65ca34b1526c926c75129ef934c3ba9fe6f29f6",
      "contractAddress": null
    },
    {
      "status": "0x1",
      "cumulativeGasUsed": "0x3548d4",
      "logs": [
        {
          "address": "0x71597c159007e9ff35bcf47822913ca78b182156",
          "topics": [
            "0xc0c60fc2d790999129096a043fb317d708e134ad5043c3f55f31cfccc95e850d",
            "0xb12cd83731fa34542e05e092ff35ad033585202a106ad2c30b7d148e8b282451",
            "0x000000000000000000000000b65ca34b1526c926c75129ef934c3ba9fe6f29f6",
            "0x0000000000000000000000000000000000000000000000000000000000000002"
          ],
          "data": "0x000000000000000000000000000000000000000000000000002386f26fc100000000000000000000000000000000000000000000000000000000000000000001",
          "blockHash": "0x114d865048c119bf5eef16413ed73eebb61a1dcc98c1befe155debc0cc8cb1b7",
          "blockNumber": "0x559dc28",
          "blockTimestamp": "0x698cbc4a",
          "transactionHash": "0xf986ecc888cb878760e38a217ecc3ab3e859513f48ee847bdfe4f036e142c77f",
          "transactionIndex": "0x6",
          "logIndex": "0x1d",
          "removed": false
        }
      ],
      "logsBloom": "0x04000000000000000000000000000000000000000000000000000000000000010001000000000000000000000000000000000000800000000000000000004000000000000000080000000000000000000000000000000000000000000000000000000000000000000000000000000004000000000000000000000000000000000000000000000000000000000000000000000000000000002000000000000000000000000000000000000100000000000000000000000000000000004000000000000000000000000000000000000000000000000000040000000000000000000000000000000000200000000000000400000000008000000000000000000100",
      "type": "0x2",
      "transactionHash": "0xf986ecc888cb878760e38a217ecc3ab3e859513f48ee847bdfe4f036e142c77f",
      "transactionIndex": "0x6",
      "blockHash": "0x114d865048c119bf5eef16413ed73eebb61a1dcc98c1befe155debc0cc8cb1b7",
      "blockNumber": "0x559dc28",
      "gasUsed": "0x1d46d",
      "effectiveGasPrice": "0x5f5e100",
      "from": "0x99981e09b6e5fb63a683555ff0ac30b7fdb40403",
      "to": "0x71597c159007e9ff35bcf47822913ca78b182156",
      "contractAddress": null
    },
    {
      "status": "0x1",
      "cumulativeGasUsed": "0x44f4bd",
      "logs": [
        {
          "address": "0xb65ca34b1526c926c75129ef934c3ba9fe6f29f6",
          "topics": [
            "0xddf252ad1be2c89b69c2b068fc378daa952ba7f163c4a11628f55a4df523b3ef",
            "0x0000000000000000000000000000000000000000000000000000000000000000",
            "0x00000000000000000000000099981e09b6e5fb63a683555ff0ac30b7fdb40403",
            "0x0000000000000000000000000000000000000000000000000000000000000003"
          ],
          "data": "0x",
          "blockHash": "0x114d865048c119bf5eef16413ed73eebb61a1dcc98c1befe155debc0cc8cb1b7",
          "blockNumber": "0x559dc28",
          "blockTimestamp": "0x698cbc4a",
          "transactionHash": "0x42abfd880eb68b0ef4c2d8f94b69cb0db78448607ad8ce9d47c56bb8c64a4b7f",
          "transactionIndex": "0x7",
          "logIndex": "0x1e",
          "removed": false
        },
        {
          "address": "0xb65ca34b1526c926c75129ef934c3ba9fe6f29f6",
          "topics": [
            "0xf8e1a15aba9398e019f0b49df1a4fde98ee17ae345cb5f6b5e2c27f5033e8ce7"
          ],
          "data": "0x0000000000000000000000000000000000000000000000000000000000000003",
          "blockHash": "0x114d865048c119bf5eef16413ed73eebb61a1dcc98c1befe155debc0cc8cb1b7",
          "blockNumber": "0x559dc28",
          "blockTimestamp": "0x698cbc4a",
          "transactionHash": "0x42abfd880eb68b0ef4c2d8f94b69cb0db78448607ad8ce9d47c56bb8c64a4b7f",
          "transactionIndex": "0x7",
          "logIndex": "0x1f",
          "removed": false
        },
        {
          "address": "0xb65ca34b1526c926c75129ef934c3ba9fe6f29f6",
          "topics": [
            "0xb9061a191892032e265236df2977078d7c7636f10980792772ab0cca612653e3",
            "0x0000000000000000000000000000000000000000000000000000000000000003",
            "0x00000000000000000000000099981e09b6e5fb63a683555ff0ac30b7fdb40403"
          ],
          "data": "0x00000000000000000000000054a5f86b0072e59256b0301195ec4f9099c9084d0000000000000000000000000000000000000000000000000000000000000001",
          "blockHash": "0x114d865048c119bf5eef16413ed73eebb61a1dcc98c1befe155debc0cc8cb1b7",
          "blockNumber": "0x559dc28",
          "blockTimestamp": "0x698cbc4a",
          "transactionHash": "0x42abfd880eb68b0ef4c2d8f94b69cb0db78448607ad8ce9d47c56bb8c64a4b7f",
          "transactionIndex": "0x7",
          "logIndex": "0x20",
          "removed": false
        }
      ],
      "logsBloom": "0x00000000000000000000000000000000000000000000000000000000000000000000000000000000000000000000000000000000020000000000000000000000000000000000000000000008000000000008000000000000000000000000000000000000020000000000000000000800000000000000000000000010000000000010000000000000000000000000000000014000000000000000000000000000000000000000000000000000000000002100000000800000000000000000408000800002008000000000000000000200000000000000000000000000000020000000000000000000200000000000000000000000000080000000000000000000",
      "type": "0x2",
      "transactionHash": "0x42abfd880eb68b0ef4c2d8f94b69cb0db78448607ad8ce9d47c56bb8c64a4b7f",
      "transactionIndex": "0x7",
      "blockHash": "0x114d865048c119bf5eef16413ed73eebb61a1dcc98c1befe155debc0cc8cb1b7",
      "blockNumber": "0x559dc28",
      "gasUsed": "0xfabe9",
      "effectiveGasPrice": "0x5f5e100",
      "from": "0x99981e09b6e5fb63a683555ff0ac30b7fdb40403",
      "to": "0xb65ca34b1526c926c75129ef934c3ba9fe6f29f6",
      "contractAddress": null
    },
    {
      "status": "0x1",
      "cumulativeGasUsed": "0x45b37c",
      "logs": [
        {
          "address": "0xb65ca34b1526c926c75129ef934c3ba9fe6f29f6",
          "topics": [
            "0x8c5be1e5ebec7d5bd14f71427d1e84f3dd0314c0f7b2291e5b200ac8c7c3b925",
            "0x00000000000000000000000099981e09b6e5fb63a683555ff0ac30b7fdb40403",
            "0x00000000000000000000000071597c159007e9ff35bcf47822913ca78b182156",
            "0x0000000000000000000000000000000000000000000000000000000000000003"
          ],
          "data": "0x",
          "blockHash": "0x114d865048c119bf5eef16413ed73eebb61a1dcc98c1befe155debc0cc8cb1b7",
          "blockNumber": "0x559dc28",
          "blockTimestamp": "0x698cbc4a",
          "transactionHash": "0x1d549a959c84baa6bf6944df053b353e18efbc9fa474f05c48e1eb0214e632c2",
          "transactionIndex": "0x8",
          "logIndex": "0x21",
          "removed": false
        }
      ],
      "logsBloom": "0x00000000000000000000000010000000000000000000000000000000000000000000000000000000000000000000000000000000020000000000000000200000000008000000000000000000000000000008000000000000000000000000000000000000000000001000000000000000000000000000000000000000000000000010000000000000000000000000000000000000000000000000000000000000020000000000000000000000000000000100000000800000000000000000400000800000008000000000000000000200000000000000000000000000000000000010000000000000000000000000000000000000000000000000000000000000",
      "type": "0x2",
      "transactionHash": "0x1d549a959c84baa6bf6944df053b353e18efbc9fa474f05c48e1eb0214e632c2",
      "transactionIndex": "0x8",
      "blockHash": "0x114d865048c119bf5eef16413ed73eebb61a1dcc98c1befe155debc0cc8cb1b7",
      "blockNumber": "0x559dc28",
      "gasUsed": "0xbebf",
      "effectiveGasPrice": "0x5f5e100",
      "from": "0x99981e09b6e5fb63a683555ff0ac30b7fdb40403",
      "to": "0xb65ca34b1526c926c75129ef934c3ba9fe6f29f6",
      "contractAddress": null
    },
    {
      "status": "0x1",
      "cumulativeGasUsed": "0x4787f5",
      "logs": [
        {
          "address": "0x71597c159007e9ff35bcf47822913ca78b182156",
          "topics": [
            "0xc0c60fc2d790999129096a043fb317d708e134ad5043c3f55f31cfccc95e850d",
            "0x72109f18a527a8debdd77add5ef3fc601712c63c0a4922bb0c4e5658c3bc2b66",
            "0x000000000000000000000000b65ca34b1526c926c75129ef934c3ba9fe6f29f6",
            "0x0000000000000000000000000000000000000000000000000000000000000003"
          ],
          "data": "0x0000000000000000000000000000000000000000000000000011c37937e080000000000000000000000000000000000000000000000000000000000000000001",
          "blockHash": "0x114d865048c119bf5eef16413ed73eebb61a1dcc98c1befe155debc0cc8cb1b7",
          "blockNumber": "0x559dc28",
          "blockTimestamp": "0x698cbc4a",
          "transactionHash": "0x56f2685ab93e13fba908767d5fe5a7c6686bfb0b0d334c13d23594860100e953",
          "transactionIndex": "0x9",
          "logIndex": "0x22",
          "removed": false
        }
      ],
      "logsBloom": "0x00200000000000000000000000000000000000000000000000000000000000000001000000000000000000000000000000000000820000000000000000400000000000000000080000000000000000000000000000000000000000000000000000000000000000000000000000000000000000000000000000000000000000000000000000000000000000000000000000000000000000002000000000000000000000000000000000000000000000000000000000800000000000004000400000000000000000000000000000000000000000000000040000000000004000000000000000000000200000000000000400000000000000000000000000000100",
      "type": "0x2",
      "transactionHash": "0x56f2685ab93e13fba908767d5fe5a7c6686bfb0b0d334c13d23594860100e953",
      "transactionIndex": "0x9",
      "blockHash": "0x114d865048c119bf5eef16413ed73eebb61a1dcc98c1befe155debc0cc8cb1b7",
      "blockNumber": "0x559dc28",
      "gasUsed": "0x1d479",
      "effectiveGasPrice": "0x5f5e100",
      "from": "0x99981e09b6e5fb63a683555ff0ac30b7fdb40403",
      "to": "0x71597c159007e9ff35bcf47822913ca78b182156",
      "contractAddress": null
    }
  ],
  "libraries": [],
  "pending": [],
  "returns": {},
  "timestamp": 1770830923445,
  "chain": 97,
  "commit": "cd245c0"
}